S0030000FC
S315200028000D2800201D2800204928002080B50248D8
S3152000281000F028F8012002BD002D310170B5CC0151
S31520002820240CC90501D0641CA4B20025060006E0CC
S31520002830300000F004F98020800036186D1CA8B204
S31520002840A042F5DB012070BD80B500F035F80120EF
S3152000285002BD000008B4024B9C4608BC6047C04637
S315200028602510000070B500249449FFF7F3FF411EA0
S31520002870934A80239078184201D1924870BD92489D
S315200028803F25167876060FD416781E4205D0137883
S315200028902B403F260E40B3420DD11078C023034073
S315200028A00D401D43157005E012782A400D40AA42BE
S315200028B000D00400200070BDFEB51400D2086407C5
S315200028C0640F0094A408019405000C008007800F73
S315200028D001D07E48FEBD0026029209E0216862688A
S315200028E00834280000F066F8010028D10835761C47
S315200028F002998E42F2DB290025000026019F0C005A
S3152000290008E029682D1D200000F01AF8010016D1D4
S31520002910241D761CBE42F4DB0099BA008A1AD2B274
S31520002920002A0CD00021C943A818401E0B020178AA
S315200029301943401E521EF9D1200000F001F8FEBDB9
S3152000294070B5002300240322104201D05F4870BDD9
S315200029505F4E30253571337006233372030CF371C5
S3152000296001233370F071000A307202253570080A8F
S315200029703072F1713270080E3072080CF07101203D
S3152000298000F08CF83079800600D5524C3079C0069C
S3152000299002D52000504C04433079C00702D52000D0
S315200029A04E4C04433079284202D020004C4C04433C
S315200029B0200070BDF8B5002600240323184201D05C
S315200029C04248F2BD424D30272F712E7006262E72B8
S315200029D0060CEE7101262E70E871000A2872022676
S315200029E02E70080A2872E9712B70080E2872080CBE
S315200029F0E87104202870100A2872EA7105202870D0
S31520002A00100E2872100CE871012000F047F8287982
S31520002A10800600D52F4C2879C00602D520002E4CE2
S31520002A2004432879C00702D520002C4C044328797A
S31520002A30304202D020002A4C04432000F2BD38B593
S31520002A4000210024820701D0204832BD204D3022AB
S31520002A502A7129700A212972010CE9710121297034
S31520002A60E871000A2872012000F018F828798006FB
S31520002A7000D5184C2879C00602D52000164C0443F0
S31520002A802879C00702D52000144C044328798007F2
S31520002A9002D52000124C0443200032BD11490A6899
S31520002AA080235B0213430B600F4980220A700028A3
S31520002AB002D008781042FCD07047000040420F0038
S31520002AC003000240143000001830000001300000DE
S31520002AD001000240083000001030000011300000D4
S31520002AE0123000000C3000F0050002408198B9180F
S9030000FC