S01100000000486578766965772056312E3009
S3250001000000700020B9040100F9040100F9040100F9040100F9040100F90401000000000095
S32500010020000000000000000000000000F9040100F9040100000000005D040100F90401005D
S32500010040F9040100F9040100F9040100F9040100F9040100F9040100F9040100F9040100A9
S32500010060F9040100F9040100F9040100F9040100F9040100F9040100F9040100F904010089
S32500010080F9040100F9040100F9040100F9040100F9040100F9040100F9040100F904010069
S325000100A0F9040100F9040100F9040100F9040100F9040100F9040100F9040100F904010049
S325000100C0F9040100296A0100F9040100F9040100F9040100F9040100F9040100F904010093
S325000100E0F9040100F9040100F9040100F9040100F9040100F9040100F9040100F904010009
S325000101008D870100F9870100F9040100F9040100F9040100F9040100F9040100F90401004E
S32500010120F9040100F9040100F9040100F9040100F9040100F9040100F9040100F9040100C8
S32500010140F9040100F9040100F9040100F9040100F9040100F9040100F9040100F9040100A8
S32500010160F9040100F9040100F9040100F9040100F9040100F9040100856D0100A56D01007E
S32500010180ED6D0100C56D0100C56D0100F9040100F9040100F9040100F9040100F9040100A1
S325000101A0F96D0100F9040100F9040100F9040100F9040100F9040100F90401000D6E010061
S325000101C0F9040100F9040100F9040100F9040100F9040100F9040100F9040100F904010028
S325000101E049880100F9040100F9040100F9040100F9040100F90401009D8A0100F90401000A
S32500010200F9040100F9040100F9040100F9040100F9040100F9040100F9040100F9040100E7
S32500010220F9040100F9040100F9040100F9040100F9040100F9040100F9040100F9040100C7
S32500010240F9040100F9040100F9040100F9040100F9040100F9040100F9040100F9040100A7
S32500010260F9040100F9040100F9040100F9040100F9040100F9040100F9040100F904010087
S32500010280F9040100F9040100F9040100F9040100F9040100F9040100F9040100F904010067
S325000102A0F9040100F9040100F9040100F9040100F9040100F9040100F9040100F904010047
S325000102C0F9040100F9040100F9040100F9040100F9040100F9040100F9040100F904010027
S325000102E0F9040100F9040100F9040100F9040100F9040100F9040100F9040100F904010007
S32500010300F9040100F9040100F9040100F9040100F9040100F9040100F9040100F9040100E6
S32500010320F9040100F9040100F9040100F9040100F9040100F9040100F9040100F9040100C6
S32500010340F9040100F9040100F9040100F9040100F9040100F9040100F9040100F9040100A6
S32500010360F9040100F9040100F9040100F9040100F9040100F9040100F9040100F904010086
S32500010380F9040100F9040100F9040100F9040100F9040100F9040100F9040100F904010066
S325000103A0F9040100F9040100F9040100F9040100F9040100F9040100F9040100F904010046
S325000103C0F9040100F9040100F9040100F9040100F9040100F9040100F9040100F904010026
S325000103E0F9040100F9040100F9040100F9040100F9040100F9040100F9040100FFFFFFFF08
S32500010400FFFFFFFFFFFFFFFFFFFFFFFFFE7FFFFF214A224B136070471F4A204B1360704766
S325000104201F4A002313601C4A1C4B136070471C4A00231360184A194B1360704772B6194A48
S32500010440194B1370002282F30988184A136883F30888114A114B136062B6FEE772B61048FC
S325000104600068EFF3098222B118B1203A82E8F00F02600F4A1268126892E8F00F203282F352
S3250001048009880C4A62B61047EFF3108072B6704780F310887047000004ED00E0000000100B
S325000104A00005002022ED00E000000000C490FF1FFC040020FDFFFFFF72B60B490A4A0A4B70
S325000104C0094C094D084E084FB846B946BA46BB46BC4606488546064880470648804762B662
S325000104E005F030FEFEE700000000000000700020A9600200D9600200FFF7FEBF81F00041B2
S3250001050002E000BF83F0004330B54FEA41044FEA430594EA050F08BF90EA020F1FBF54EA99
S32500010520000C55EA020C7FEA645C7FEA655C00F0E2804FEA5454D4EB5555B8BF6D420CDD5D
S325000105402C4480EA020281EA030382EA000083EA010180EA020281EA0303362D88BF30BDF4
S3250001056011F0004F4FEA01314FF4801C4CEA113102D0404261EB410113F0004F4FEA0333BF
S325000105804CEA133302D0524263EB430394EA050F00F0A780A4F10104D5F1200E0DDB02FAC3
S325000105A00EFC22FA05F2801841F1000103FA0EF2801843FA05F359410EE0A5F120050EF140
S325000105C0200E012A03FA0EFC28BF4CF0020C43FA05F3C01851EBE37101F0004507D54FF095
S325000105E0000EDCF1000C7EEB00006EEB0101B1F5801F1BD3B1F5001F0CD349085FEA3000A8
S325000106004FEA3C0C04F101044FEA445212F5800F80F09A80BCF1004F08BF5FEA500C50F1C0
S32500010620000041EB045141EA050130BD5FEA4C0C404141EB010111F4801FA4F10104E9D1CC
S3250001064091F0000F04BF01460020B1FA81F308BF2033A3F10B03B3F120020CDA0C3208DD2F
S3250001066002F1140CC2F10C0201FA0CF021FA02F10CE002F11402D8BFC2F1200C01FA02F141
S3250001068020FA0CFCDCBF41EA0C019040E41AA2BF01EB0451294330BD6FEA04041F3C1CDAE3
S325000106A00C340EDC04F11404C4F1200220FA04F001FA02F340EA030021FA04F345EA0301B5
S325000106C030BDC4F10C04C4F1200220FA02F001FA04F340EA0300294630BD21FA04F0294685
S325000106E030BD94F0000F83F4801306BF81F480110134013D4EE77FEA645C18BF7FEA655CCC
S3250001070029D094EA050F08BF90EA020F05D054EA000C04BF1946104630BD91EA030F1EBF07
S325000107200021002030BD5FEA545C05D14000494128BF41F0004130BD14F580043CBF01F527
S32500010740801130BD01F0004545F0FE4141F470014FF0000030BD7FEA645C1ABF19461046E1
S325000107607FEA655C1CBF0B46024650EA013406BF52EA033591EA030F41F4002130BD00BF9D
S3250001078090F0000F04BF0021704730B54FF4806404F132044FF000054FF0000150E700BF77
S325000107A090F0000F04BF0021704730B54FF4806404F1320410F0004548BF40424FF00001C3
S325000107C03EE700BF42004FEAE2014FEA31014FEA02701FBF12F07F4393F07F4F81F06051A5
S325000107E0704792F0000F14BF93F07F4F704730B54FF4607401F0004521F0004120E700BF85
S3250001080050EA010208BF704730B54FF000050AE050EA010208BF704730B511F0004502D546
S32500010820404261EB41014FF4806404F132045FEA915C3FF4DCAE4FF003025FEADC0C18BF10
S3250001084003325FEADC0C18BF033202EBDC02C2F1200300FA03FC20FA02F001FA03FE40EA53
S325000108600E0021FA02F11444C1E600BF70B54FF0FF0C4CF4E06C1CEA11541DBF1CEA1355E7
S3250001088094EA0C0F95EA0C0F00F0DEF82C4481EA030621EA4C5123EA4C5350EA013518BFD9
S325000108A052EA033541F4801143F4801338D0A0FB02CE4FF00005E1FB02E506F00042E0FBA0
S325000108C003E54FF00006E1FB03569CF0000F18BF4EF0010EA4F1FF04B6F5007F64F5407421
S325000108E004D25FEA4E0E6D4146EB060642EAC62141EA55514FEAC52040EA5E504FEACE2E7C
S32500010900B4F1FD0C88BFBCF5E06F1ED8BEF1004F08BF5FEA500E50F1000041EB045170BD8A
S3250001092006F0004646EA010140EA020081EA0301B4EB5C04C2BFD4EB0C0541EA045170BDAA
S3250001094041F480114FF0000E013C00F3AB8014F1360FDEBF002001F0004170BDC4F1000403
S32500010960203C35DA0C341BDC04F11404C4F1200500FA05F320FA04F001FA05F240EA0200C9
S3250001098001F0004221F0004110EBD37021FA04F642EB06015EEA430E08BF20EAD37070BD6A
S325000109A0C4F10C04C4F1200500FA04F320FA05F001FA04F240EA020001F0004110EBD37004
S325000109C041F100015EEA430E08BF20EAD37070BDC4F1200500FA05F24EEA020E20FA04F3DF
S325000109E001FA05F243EA020321FA04F001F0004121FA04F220EA020000EBD3705EEA430EA7
S32500010A0008BF20EAD37070BD94F0000F0FD101F00046400041EB010111F4801F08BF013CCE
S32500010A20F7D041EA060195F0000F18BF704703F00046520043EB030313F4801F08BF013D2A
S32500010A40F7D043EA0603704794EA0C0F0CEA135518BF95EA0C0F0CD050EA410618BF52EA03
S32500010A604306D1D181EA030101F000414FF0000070BD50EA410606BF1046194652EA4306F7
S32500010A8019D094EA0C0F02D150EA013613D195EA0C0F05D152EA03361CBF104619460AD155
S32500010AA081EA030101F0004141F0FE4141F470014FF0000070BD41F0FE4141F4780170BDC1
S32500010AC070B54FF0FF0C4CF4E06C1CEA11541DBF1CEA135594EA0C0F95EA0C0F00F0A7F89D
S32500010AE0A4EB050481EA030E52EA03354FEA013100F088804FEA03334FF0805545EA13132C
S32500010B0043EA12634FEA022245EA111545EA10654FEA00260EF000419D4208BF964244F185
S32500010B20FD0404F5407402D25B084FEA3202B61A65EB03055B084FEA32024FF480104FF44E
S32500010B40002CB6EB020E75EB030E22BFB61A754640EA0C005B084FEA3202B6EB020E75EBBD
S32500010B60030E22BFB61A754640EA5C005B084FEA3202B6EB020E75EB030E22BFB61A75460D
S32500010B8040EA9C005B084FEA3202B6EB020E75EB030E22BFB61A754640EADC0055EA060ED1
S32500010BA018D04FEA051545EA16754FEA06164FEAC30343EA52734FEAC2025FEA1C1CC0D1E4
S32500010BC011F4801F0BD141EA00014FF000004FF0004CB6E711F4801F04BF01430020B4F18B
S32500010BE0FD0C88BFBCF5E06F3FF6AFAEB5EB030C04BFB6EB020C5FEA500C50F1000041EBD9
S32500010C00045170BD0EF0004E4EEA113114EB5C04C2BFD4EB0C0541EA045170BD41F4801162
S32500010C204FF0000E013C90E645EA060E8DE60CEA135594EA0C0F08BF95EA0C0F3FF43BAF82
S32500010C4094EA0C0F0AD150EA01347FF434AF95EA0C0F7FF425AF104619462CE795EA0C0F11
S32500010C6006D152EA03353FF4FDAE1046194622E750EA410618BF52EA43067FF4C5AE50EA89
S32500010C8041047FF40DAF52EA43057FF4EBAE12E74FF0FF3C06E000BF4FF0010C02E000BF44
S32500010CA04FF0010C4DF804CD4FEA410C7FEA6C5C4FEA430C18BF7FEA6C5C1BD001B050EAAE
S32500010CC0410C0CBF52EA430C91EA030F02BF90EA020F0020704710F1000F91EA030F58BF06
S32500010CE0994208BF90422CBFD8176FEAE37040F0010070474FEA410C7FEA6C5C02D150EA47
S32500010D00013C07D14FEA430C7FEA6C5CD6D152EA033CD3D05DF8040B704700BF844610463F
S32500010D2062468C461946634600E000BF01B5FFF7B7FF002848BF10F1000F01BD4DF808EDF2
S32500010D40FFF7F4FF0CBF012000205DF808FB00BF4DF808EDFFF7EAFF34BF012000205DF8DE
S32500010D6008FB00BF4DF808EDFFF7E0FF94BF012000205DF808FB00BF4DF808EDFFF7CEFFF3
S32500010D8094BF012000205DF808FB00BF4DF808EDFFF7C4FF34BF012000205DF808FB00BF63
S32500010DA04FEA410212F5001215D211D56FF47873B3EB625212D94FEAC12343F0004343EA7F
S32500010DC0505311F0004F23FA02F018BF404270474FF00000704750EA013005D111F0004082
S32500010DE008BF6FF0004070474FF00000704700BF4A0011D212F5001211D20DD56FF47873C1
S32500010E00B3EB62520ED44FEAC12343F0004343EA505323FA02F070474FF00000704750EA3E
S32500010E20013002D14FF0FF3070474FF0000070474FEA4102B2F1E04324BFB3F5001CDCF1D6
S32500010E40FE5C0DD901F0004C4FEAC0024CEA5070B2F1004F40EB830008BF20F001007047EE
S32500010E6011F0804F21D113F13872BCBF01F00040704741F480114FEA5252C2F11802C2F175
S32500010E80200C10FA0CF320FA02F018BF40F001004FEAC1234FEAD32303FA0CFC40EA0C007B
S32500010EA023FA02F34FEA4303CCE77FEA625307D150EA01331EBF4FF0FE4040F440007047FE
S32500010EC001F0004040F0FE4040F40000704700BF80F0004002E000BF81F0004142001FBF9F
S32500010EE05FEA410392EA030F7FEA226C7FEA236C6AD04FEA1262D2EB1363C1BFD2184140DC
S32500010F0048404140B8BF5B42192B88BF704710F0004F40F4000020F07F4018BF404211F0BF
S32500010F20004F41F4000121F07F4118BF494292EA030F3FD0A2F1010241FA03FC10EB0C007E
S32500010F40C3F1200301FA03F100F0004302D5494260EB4000B0F5000F13D3B0F1807F06D391
S32500010F6040084FEA310102F10102FE2A51D2B1F1004F40EBC25008BF20F0010040EA030043
S32500010F807047490040EB000010F4000FA2F10102EDD1B0FA80FCACF1080CB2EB0C0200FA3C
S32500010FA00CF0AABF00EBC25052421843BCBFD0401843704792F0000F81F4000106BF80F4FC
S32500010FC000000132013BB5E74FEA41037FEA226C18BF7FEA236C21D092EA030F04D092F0E7
S32500010FE0000F08BF0846704790EA010F1CBF0020704712F07F4F04D1400028BF40F0004097
S32500011000704712F100723CBF00F50000704700F0004343F0FE4040F4000070477FEA22627A
S3250001102016BF08467FEA23630146420206BF5FEA412390EA010F40F4800070474FF0000363
S3250001104004E000BF10F0004348BF40425FEA000C08BF704743F0964301464FF000001CE0B9
S3250001106050EA010208BF70474FF000030AE000BF50EA010208BF704711F0004302D540426B
S3250001108061EB41015FEA010C02BF84460146002043F0B64308BFA3F18053A3F50003BCFAC8
S325000110A08CF2083AA3EBC25310DB01FA02FC634400FA02FCC2F12002BCF1004F20FA02F264
S325000110C043EB020008BF20F00100704702F1200201FA02FCC2F1200250EA4C0021FA02F2D2
S325000110E043EB020008BF20EADC7070474FF0FF0C1CEAD0521EBF1CEAD15392EA0C0F93EA58
S325000111000C0F6FD01A4480EA010C400218BF5FEA41211ED04FF0006343EA501043EA511129
S32500011120A0FB01310CF00040B1F5000F3EBF490041EAD3715B0040EA010062F17F02FD2AB4
S325000111401DD8B3F1004F40EBC25008BF20F00100704790F0000F0CF0004C08BF49024CEAB5
S32500011160502040EA51207F3AC2BFD2F1FF0340EAC250704740F400004FF00003013A5DDC81
S3250001118012F1190FDCBF00F000407047C2F10002410021FA02F1C2F1200200FA02FC5FEA81
S325000111A0310040F1000053EA4C0308BF20EADC70704792F0000F00F0004C02BF400010F494
S325000111C0000F013AF9D040EA0C0093F0000F01F0004C02BF490011F4000F013BF9D041EAA2
S325000111E00C018FE70CEAD15392EA0C0F18BF93EA0C0F0AD030F0004C18BF31F0004CD8D112
S3250001120080EA010000F00040704790F0000F17BF90F0004F084691F0000F91F0004F14D0AF
S3250001122092EA0C0F01D142020FD193EA0C0F03D14B0218BF084608D180EA010000F00040C8
S3250001124040F0FE4040F40000704740F0FE4040F4400070474FF0FF0C1CEAD0521EBF1CEA40
S32500011260D15392EA0C0F93EA0C0F69D0A2EB030280EA010C49024FEA402037D04FF08053D5
S3250001128043EA111143EA10130CF000408B4238BF5B0042F17D024FF4000C8B4224BF5B1A27
S325000112A040EA0C00B3EB510F24BFA3EB510340EA5C00B3EB910F24BFA3EB910340EA9C009F
S325000112C0B3EBD10F24BFA3EBD10340EADC001B0118BF5FEA1C1CE0D1FD2A3FF650AF8B42F1
S325000112E040EBC25008BF20F0010070470CF0004C4CEA50207F32C2BFD2F1FF0340EAC250FA
S32500011300704740F400004FF00003013A37E792F0000F00F0004C02BF400010F4000F013A24
S32500011320F9D040EA0C0093F0000F01F0004C02BF490011F4000F013BF9D041EA0C0195E701
S325000113400CEAD15392EA0C0F08D142027FF47DAF93EA0C0F7FF470AF084676E793EA0C0FAC
S3250001136004D14B023FF44CAF08466EE730F0004C18BF31F0004CCAD130F000427FF45CAF48
S3250001138031F000437FF43CAF5FE700BF4FF0FF3C06E000BF4FF0010C02E000BF4FF0010C27
S325000113A04DF804CD4FEA40024FEA41037FEA226C18BF7FEA236C11D001B052EA530C18BF4E
S325000113C090EA010F58BFB2EB030088BFC81738BF6FEAE17018BF40F0010070477FEA226C48
S325000113E002D15FEA402C05D17FEA236CE4D15FEA412CE1D05DF8040B704700BF8446084682
S325000114006146FFE70FB5FFF7C9FF002848BF10F1000F0FBD4DF808EDFFF7F4FF0CBF01209C
S3250001142000205DF808FB00BF4DF808EDFFF7EAFF34BF012000205DF808FB00BF4DF808EDD0
S32500011440FFF7E0FF94BF012000205DF808FB00BF4DF808EDFFF7D2FF94BF012000205DF81B
S3250001146008FB00BF4DF808EDFFF7C8FF34BF012000205DF808FB00BF4FEA4002B2F1FE4FF6
S325000114800FD34FF09E03B3EB12620DD94FEA002343F0004310F0004F23FA02F018BF404202
S325000114A070474FF00000704712F1610F01D1420205D110F0004008BF6FF0004070474FF07D
S325000114C00000704742000ED2B2F1FE4F0BD34FF09E03B3EB126209D44FEA002343F00043BD
S325000114E023FA02F070474FF00000704712F1610F01D1420202D14FF0FF3070474FF0000069
S32500011500704700BF80B400AF2F4A2F4BD3F8283143F08043C2F828312B4A2B4BD3F8303134
S3250001152043F08043C2F83031274A274BD3F8343143F08043C2F83431244A244B5B6843F494
S3250001154080735360224A224B5B6943F002035361204A204B1B6843F4807313601E4A1E4B8F
S325000115605B6943F0010353611B4A1B4B5B6843F001035360194A194B5B6A43F480735362D2
S32500011580174A174B5B6943F400735361144A144B5B6843F4007353600B4A0B4BD3F83431A7
S325000115A043F08043C2F834310C4A0C4B9B6A43F4807393620A4A0A4B5B6923F48063536123
S325000115C0BD465DF8047B70470050064000A0044040F00F4000C00440C0F00F4000D0044066
S325000115E000F10F4080B485B000AF0346FB710B46BB711346BB800023FB810023BB810023A5
S325000116007B81FB79002B05D0FB896FEA43436FEA5343FB81BB799B029BB203F4F8439AB2E9
S32500011620FB8913439BB2FB81FB79002B07D0BB88C3F308039AB2FB8913439BB2FB81FB8913
S325000116407B810AE0FB8903F00103002B02D0BB890133BB81FB895B08FB81FB89002BF1D19D
S32500011660BB8903F00103002B03D17B8943F400737B817B8918461437BD465DF8047B704744
S3250001168090B587B000AF0346B9607A60FB81FB89012B02D0022B2DD059E03C4A3B4B9B686C
S325000116A043F0010393600123FB821FE0FB8A03F10043013B5B00BA6813441B88184605F097
S325000116C017FB00BF324B5B6903F00103002BF9D0FB8A03F10043013B5B007A68D41805F0F0
S325000116E023FB03462380FB8A013BFB82FB8A002BDCD12CE0274A274B9B6843F4804393605F
S325000117000123FB821FE0FB8A03F10043013B5B00BA6813441B88184605F0EAFA00BF1C4B56
S325000117205B6903F00103002BF9D0FB8A03F10043013B5B007A68D41805F0F6FA0346238001
S32500011740FB8A013BFB82FB8A002BDCD100BF00233B6102E03B6901333B613B691D2BF9D955
S32500011760FB89012B06D1094A084B5B6843F00103536008E0FB89022B05D1064A054B5B68B6
S3250001178043F4804353601C37BD4690BD00F10F4000E0024080F00F4080B584B002AF294B43
S325000117A000221A80274B00225A80264B00229A80244B0022DA80234B00221A8100237B6037
S325000117C002E07B6801337B607B681D2BF9D91E4A1D4B5B6843F00103536000237B6002E0D4
S325000117E07B6801337B607B681D2BF9D9174A174B5B6843F48043536000237B6002E07B68FD
S3250001180001337B607B681D2BF9D9B223009301202E21B2222E2300F01BF800237B6002E0D5
S325000118207B6801337B607B681D2BF9D9B223009301202E21B2222E2300F00AF80837BD4681
S3250001184080BD00BF8805002000F10F4080F00F4090B583B000AF0446084611461A462346FA
S32500011860FB800346BB800B467B8013463B80374B00221A80354B1A88354B1A80BB88012024
S3250001188005211A46FFF7AEFE03461A462F4B1A802E4B1A882D4B5A80FB8818462B492C4A24
S325000118A0FFF7EEFE294B00221A80284B1A88284B1A807B88012003211A46FFF793FE034675
S325000118C01A46224B1A80214B1A88204B5A80FB8818461E491E4AFFF7D3FE1C4B00221A80AD
S325000118E01A4B1A881A4B1A803B88012006211A46FFF778FE03461A46144B1A80134B1A8862
S32500011900124B5A80FB8818461049114AFFF7B8FE0E4B00221A800D4B1A880D4B1A803B8B81
S32500011920012004211A46FFF75DFE03461A46074B1A80064B1A88054B5A80FB8818460349CA
S32500011940034AFFF79DFE0C37BD4690BD740500208805002080B500AF0F4B00221A800E4B76
S325000119601A880E4B1A80012000211F22FFF73AFE03461A46084B1A80074B1A88064B5A8065
S3250001198001200549054AFFF77BFE01200249034AFFF776FE80BD00BF7405002088050020AE
S325000119A080B500AF0C4B00221A800B4B1A880B4B1A80012000210022FFF714FE03461A462C
S325000119C0054B1A80044B1A88034B5A8001200249024AFFF755FE80BD740500208805002079
S325000119E080B584B000AF03460A46FB711346BB710023FB73BB79002019460022FFF7F2FDF3
S32500011A0003461A460E4B1A800D4B1A880C4B5A800023FB730BE0FB799AB207F10803104663
S32500011A2007491A46FFF72CFEFB7B0133FB73FB7B032BF0D93B8918461037BD4680BD00BFE2
S32500011A407405002080B500AF05F02CF805F0ACF805F0DEF880BD00BF80B500AF11F0F2FEB4
S32500011A600EF01EFC80BD00BF80B500AF2B4B1B78002B04D1294B01221A7006F0F9FF284BDC
S32500011A8093F83530032B01D10CF0BAFB254B1A68254BA3FB02131B09322101FB03F3D31A33
S32500011AA0002B01D100F04EFD204B9B79002B17D11E4B5B7A002B13D110F058F810F0E4FADA
S32500011AC009F052FE0BF094FD01200BF013FD04F0BFFE14F0CDFA164B1B68184605F082FECB
S32500011AE009F092FC09F036FC012009F079FC0D4B1A680D4BA3FB02135B09642101FB03F3DE
S32500011B00D31A002B02D1002008F0CAF9054B1B680133044A13600EF0C3FB80BDA70500206B
S32500011B2040500020000000201F85EB51385900203C02002080B500AF02F0B2FA13F08CFBD3
S32500011B400A2011F09DFE0EF0ABFB80BD80B500AF524B1B680133514A1360504B1B68642BE4
S32500011B600FDD4E4B00221A604D4B1B68002B06D101F06CFA01F05EFA494B01221A6002F05D
S32500011B807BFA484BDB78002B03D1464B1B78002B02D0FFF705FF7EE0434B002283F83620EA
S32500011BA002F06EFB13F074FB12F09CFA14F0A2F83E4B93F82630002B10D03C4B1B7E184628
S32500011BC03B493C4A12F06CFC02463B4B1A603A4B1B680120194614F049F90FE0334B1B7E6E
S32500011BE018463349334A12F077FD0246324B1A60314B1B680020194614F038F90BF06EFCBA
S32500011C000346002B45D1294B1A782C4B1B789A4205D1294B1A682A4B1B689A423BD0234B2E
S32500011C201B78012B0BD0022B21D0002B00D027E0FFF7B6FE0020002113F0AAF820E01E4BEA
S32500011C401B68C3F31303002B0AD01E4B1A681E4B1B681046194613F09BF8FFF77BFE0FE0A9
S32500011C60FFF79EFE0020002113F092F808E040F2FF3040F2FF3113F08BF8FFF76BFE00BFAE
S32500011C800A4B1A780D4B1A700B4B1B680C4A136001E007F00FF80EF003FB80BD0C0000208E
S32500011CA01000002038590020405000206C5B00209093FF1FB893FF1F040000200084FF1F35
S32500011CC008000020645B0020605B002080B483B000AF78600B46FB70FB78002B04D17B681B
S32500011CE04FF48032DA6074E0FB78012B04D17B684FF0FF32DA606CE0FB78022B04D17B68B5
S32500011D004FF0FF32DA6064E0FB78032B04D17B684FF40042DA605CE0FB78042B03D17B6821
S32500011D200022DA6055E0FB78052B04D17B684FF0FF32DA604DE0FB78062B04D17B684FF03E
S32500011D40FF32DA6045E0FB78072B04D17B684FF0FF32DA603DE0FB78082B03D17B68002249
S32500011D60DA6036E0FB78092B04D17B684FF0FF32DA602EE0FB780A2B04D17B684FF4804290
S32500011D80DA6026E0FB780B2B04D17B684FF40042DA601EE0FB780C2B04D17B684FF4803287
S32500011DA0DA6016E0FB780D2B04D17B684FF0FF32DA600EE0FB780E2B04D17B684FF0FF321D
S32500011DC0DA6006E0FB780F2B03D17B684FF48032DA600C37BD465DF8047B704780B584B00F
S32500011DE000AF786039600023FB817B681A683B681A607B685A683B685A607B689A683B6811
S32500011E009A607B68DA683B681A617B681A693B689A610E4BDB6C03F470431B0B7B737B7B26
S32500011E2038681946FFF752FF3B68DB68B3F5803F04D23B684FF480525A6102E03B68002218
S32500011E405A61FB8918461037BD4680BD0080044080B588B000AFF860B9607A600023FB838B
S32500011E607B687B61FB689B683B61BA683B699A4210D3FB68DA683B691A44BB689A4209D98D
S32500011E80BA683B69D31A03F50003BB604FF40063BB611BE0FB681B683B61BA683B699A4291
S32500011EA00ED3FB685A683B691A44BB689A4207D9BA683B69D31ABB604FF48053BB6105E04F
S32500011EC00123FB8300237B610023BB61BB695A1E7B691340002B01D00423FB8320E0164B46
S32500011EE070221A70144B0922DA71134ABB681B0CDBB29371104ABB681B0ADBB253710E4B66
S32500011F00BA68D2B21A71F86815F002FC0346FB837A69BB69D31A7B61BA68BB691344BB60D7
S32500011F207B69002B02D0FB8B002BD8D0FB8B18462037BD4680BD00BF0000024080B586B079
S32500011F4000AFF860B9607A603B600023FB827B6803F00703002B02D00423FB8265E0FB681C
S32500011F609B683B61BA683B699A420DD3FB68DA683B691A44BB689A4206D9BA683B69D31A01
S32500011F8003F50003BB6014E0FB681B683B61BA683B699A420BD3FB685A683B691A44BB68E4
S32500011FA09A4204D9BA683B69D31ABB6001E00123FB8234E01F4B70221A701E4B0722DA719A
S32500011FC01C4ABB681B0CDBB293711A4ABB681B0ADBB25371174BBA68D2B21A7100237B7516
S32500011FE00CE07A7D144B13443B613B697A7D39680A4412781A707B7D01337B757B7D072BC1
S32500012000EFD9F86815F084FB0346FB82BB680833BB607B68083B7B603B6808333B607B6871
S32500012020002B02D0FB8A002BC4D0FB8A18461837BD4680BD000002400800024080B586B0EF
S3250001204000AFF8607B600B46FB7213463B812A4B70221A70284B8122DA71274AFB7A9371E8
S32500012060FB7A552B09D1244A3B891B0A9BB2DBB2D372214B3A89D2B29A72F86815F048FBAD
S325000120800346FB82FB7A772B31D1FB8A002B2ED17B68002B02D10123FB8228E0164B9B7AAB
S325000120A0DAB27B681A70144BDB7BDBB29BB21B029AB27B689A80104B9B7BDBB29BB27A68FE
S325000120C0928813439AB27B689A800B4B5B7ADBB29BB21B029AB27B685A80074B1B7ADBB2A1
S325000120E09BB27A68528813439AB27B685A80FB8A18461837BD4680BD0000024080B487B052
S3250001210000AFF860B9601346FB710023FB82FB79012B03D1FB68BA6812781A70FB79022B85
S325000121200ED1BB6801331B781B023B61BB681B781A463B6913433B61FB683A6992B21A8086
S32500012140FB79042B1BD1BB6803331B781B063B61BB6802331B781B043A6913433B61BB687E
S3250001216001331B781B023A6913433B61BB681B781A463B6913433B61FB683A691A6000BFF4
S325000121800B4B5B78DBB203F00103002BF8D0084B1B78DBB203F07103002B01D00123FB8221
S325000121A0FB8A18461C37BD465DF8047B704700BF0000024080B586B000AFF860B9607A60EE
S325000121C03B600023FB82294B5B78DBB203F00103002B44D0FB681A69BB689A4209D8BA68CB
S325000121E07B681A44FB681969FB685B690B449A4201D90123FB822BE0BB6803F00303002B93
S3250001220005D17B68032B02D904237B750CE0BB6803F00103002B05D17B68012B02D90223C8
S325000122207B7501E001237B757B7DB86839681A46FFF764FF0346FB827B7DBA681344BB60EE
S325000122407B7D7A68D31A7B607B7D3A6813443B607B68002B05D0FB8A002BCDD001E0042311
S32500012260FB82FB8A18461837BD4680BD0000024080B584B000AF7860084611461A460346E8
S32500012280FB700B46BB7013467B70134B70221A70114B8022DA71104A7B7893710E4A3B7EE7
S325000122A0002B01D0012300E0002353710A4A3B7F83F00103DBB21371074AFB78D372064A41
S325000122C0BB789372786815F023FA0346FB81FB8918461037BD4680BD0000024080B584B0E4
S325000122E000AF786039600023FB8101237B73384A3B685360364B01221A727B689A79344B89
S325000123001A707B68DA79324B5A70042000F022F90346FB81FB89002B05D17B68184600F005
S3250001232059F80346FB81FB89002B06D17B680633184600F095F80346FB81FB89002B07D1B7
S325000123407B685B7A1846002100F074F90346FB81FB89002B06D17B680A33184600F0ACF984
S325000123600346FB81FB89002B06D17B681B7B184600F0C6F90346FB81FB89002B06D17B6857
S325000123800D33184600F0DCF90346FB81FB89002B06D17B682833184600F038FA0346FB8105
S325000123A0FB89002B06D17B681B7A184600F0D2F80346FB8107F10D03184600F013F9044B8A
S325000123C000221A72FB8918461037BD4680BD00BF2400002080B586B000AF78600023FB824A
S325000123E00023BB827B683B613B691A783B695B781343DAB23B699B781343DBB2FB7207F169
S325000124000B0310201946002200F0A8FB0346BB820023FB72BB8A002B16D17B680333FB6082
S32500012420FB681A78FB685B781343DAB2FB689B781343DBB2FB7207F10B031C2019460022FF
S3250001244000F08CFB0346BB82BB8A002B02D040F60103FB82FB8A18461837BD4680BD00BF4E
S3250001246080B584B000AF78600023FB810023BB810023FB72324B1A787B681B789A4209D19C
S325000124802F4B5A787B685B789A4203D12C4B1B7A002B08D00123FB7207F10A03184600F090
S325000124A0A1F80346FB81FB7A002B11D0FB89002B0ED1BB7A042B0BD0042000F04BF80346C9
S325000124C0FB8107F10903184600F08CF80346FB81FB89002B0FD17B681A787B685B781343CE
S325000124E0DBB23B7207F1080300201946002200F035FB0346BB81FB7A002B16D0BB89002B5D
S3250001250013D1FB89002B10D1BB7A042B0DD0BB7A184600F01FF80346FB817B681A78084BD8
S325000125201A707B685A78064B5A70BB89002B02D040F60103FB81FB8918461037BD4680BDDA
S325000125402400002080B500AF0148FFF789FF80BD2400002080B588B000AF0346FB71002310
S32500012560FB830023BB83FB79FB76FB79012B05D0FB79042B02D0FB79072B18D1FB79012B77
S3250001258002D0FB79042B11D107F10803184600F061F90346FB83FB8B002B07D107F10803DF
S325000125A0184600F037FA0346FB8303E002E040F60203FB83FB8B002B08D107F11B0301208F
S325000125C01946002200F0CAFA0346BB83BB8B002B02D040F60103FB83FB8B18462037BD46FF
S325000125E080BD00BF80B584B000AF78600023FB810023BB810023FB7207F10B030120002112
S325000126001A4600F0ABFA0346BB81BB89002B05D1FB7A03F00703DAB27B681A70BB89002B1A
S3250001262002D040F60103FB81FB8918461037BD4680BD00BF80B584B000AF03463960FB717D
S325000126400023FB810023BB81FB79002B02D0FB79042B22D1FB79FB723B68002B13D03B6839
S325000126601B78002B03D03B681B78032B0BD83B681B78DBB203F00303DAB2FB7ADBB21343DB
S32500012680DBB2DBB2FB7207F10B0302201946002200F064FA0346BB8102E040F60203FB8197
S325000126A0BB89002B02D040F60103FB81FB8918461037BD4680BD00BF80B584B000AF786004
S325000126C00023FB810023BB817B681A787B685B781343DBB2FB7207F10B03042019460022CF
S325000126E000F03CFA0346BB81BB89002B02D040F60103FB81FB8918461037BD4680BD00BF09
S3250001270080B584B000AF0346FB710023FB810023BB81FB79FB7207F10B030A201946002255
S3250001272000F01CFA0346BB81BB89002B02D040F60103FB81FB8918461037BD4680BD00BFE8
S3250001274080B586B000AF78600023FB820023BB827B683B610023FB72BB8A002B18D17B6835
S325000127600433FB60FB681A78FB685B781343DAB2FB689B781343DBB2FB7207F10B032320A4
S325000127801946002200F0EAF90346BB820023FB72BB8A002B0BD17B68DB79FB7207F10B03D2
S325000127A026201946002200F0D9F90346BB82BB8A002B04D1786800F033FA0346BB82BB8AF6
S325000127C0002B17D13B691A783B695B781343DAB23B699B781343DAB23B69DB781343DBB2DD
S325000127E0FB7207F10B0320201946002200F0B6F90346BB82BB8A002B02D040F60103FB8280
S32500012800FB8A18461837BD4680BD00BF80B584B000AF78600023FB810023BB817B681A781D
S325000128207B685B781343DBB2FB7207F10B034C201946002200F092F90346BB81BB89002B29
S3250001284002D040F60103FB81FB8918461037BD4680BD00BF80B58AB000AF78600023FB8429
S325000128600023BB84786800F041FA0023FB7307F10F03602000211A4600F070F90346BB8467
S325000128807B683B62BB8C002B17D1FB7B03F00803DAB23B6A1A70FB7B03F00403DAB23B6A87
S325000128A05A70FB7B03F00203DAB23B6A9A70FB7B03F00103DAB23B6ADA700023FB733B6A80
S325000128C0DB78012B26D107F10F03612000211A4600F044F90346BB84BB8C002B1AD17B687A
S325000128E00433FB61FB7B03F01003DAB2FB691A70FB7B03F00403DAB2FB695A70FB7B03F0B5
S325000129000203DAB2FB699A70FB7B03F00103DAB2FB69DA700023FB733B6A9B78022B20D1A3
S3250001292007F10F03622000211A4600F017F90346BB84BB8C002B14D17B680833BB61FB7BF4
S3250001294003F00403DAB2BB691A70FB7B03F00203DAB2BB695A70FB7B03F00103DAB2BB6937
S325000129609A700023FB733B6A5B78042B26D107F10F03632000211A4600F0F0F80346BB84A9
S32500012980BB8C002B1AD17B680B337B61FB7B03F02003DAB27B691A70FB7B03F01003DAB248
S325000129A07B695A70FB7B03F00203DAB27B699A70FB7B03F00103DAB27B69DA700023FB73C2
S325000129C03B6A1B78082B1AD107F10F03642000211A4600F0C3F80346BB84BB8C002B0ED107
S325000129E07B680F333B61FB7B03F00203DAB23B691A70FB7B03F00103DAB23B695A70BB8C39
S32500012A00002B02D040F60103FB84FB8C18462837BD4680BD80B58AB000AF78600023FB84DD
S32500012A200023BB840023FB737B683B623B6A9A783B6ADB781343DAB23B6A5B781343DAB231
S32500012A403B6A1B781343DBB2FB7307F10F0360201946002200F082F80346BB84FA8CBB8C1C
S32500012A601343FB847B680433FB61FB695A78FB691B781343DAB2FB699B781343DAB2FB6938
S32500012A80DB781343DBB2FB7307F10F0361201946002200F063F80346BB84FA8CBB8C134389
S32500012AA0FB847B680833BB61BB699A78BB691B781343DAB2BB695B781343DBB2FB7307F147
S32500012AC00F0362201946002200F048F80346BB84FA8CBB8C1343FB847B680B337B617B699F
S32500012AE05A787B699B781343DAB27B69DB781343DAB27B691B781343DBB2FB7307F10F0339
S32500012B0063201946002200F029F80346BB84FA8CBB8C1343FB847B680F333B613B695A7838
S32500012B203B691B781343DBB2FB7307F10F0364201946002200F012F80346BB84FA8CBB8CA8
S32500012B401343FB84FB8C002B02D040F60103FB84FB8C18462837BD4680BD00BF80B588B0AC
S32500012B6000AF0346B9607A60FB730023FB8300233B7500237B7500237B7700233B74002364
S32500012B807B7400237B8300233B83BB68002B04D101237B7700233B7502E0BB681B783B75E9
S32500012BA01E4A1E4B9B6843F020039360FB7B5B00DAB27B7F1343DBB27B757B7D9BB21B0265
S32500012BC09AB23B7D9BB213447B837B8B184604F053F804F06DF803463B833B8B1B0A9BB20D
S32500012BE0DBB27B743B8BDBB23B747A7C7B7D9A4202D040F60103FB837B68002B02D03A7C66
S32500012C007B681A70054A054B5B6843F020035360FB8B18462037BD4680BD00BF40F00F401C
S32500012C2080B586B000AF78600023FB820023FB7300237B7537E07B7D032B1FD87B7D2733D1
S32500012C40D9B27B7D08337A681344084619460022FFF784FF0346FB82FB8A002B0ED17B7DE1
S32500012C602B33D9B27B7D08337A6813440433084619460022FFF772FF0346FB82FB8A002B15
S32500012C800ED17B7D6833D9B27B7D10337A6813440333084619460022FFF760FF0346FB829C
S32500012CA07B7D01337B757B7D072BC4D9FB8A002B16D17B6810333B613B691A783B695B7824
S32500012CC01343DAB23B699B781343DBB2FB7307F10F032F2019460022FFF740FF0346FB822E
S32500012CE0FB8A18461837BD4680BD00BF80B483B000AF78607B6800221A717B6800225A714E
S32500012D007B6800229A717B680022DA717B6800221A727B6800225A727B6800229A727B68F6
S32500012D200022DA727B6800221A737B6800225A737B6800229A737B680022DA737B68002251
S32500012D401A740C37BD465DF8047B704780B485B000AF7860FF23FB730023BB7343E0BB7BE3
S32500012D607A681344BA7B79680A441178FA7B4A40D2B21A7000237B732AE0BB7B7A6813448F
S32500012D801B78DBB25BB2002B15DABB7B7A681344BA7B79680A4412785200D2B21A70BB7BF2
S32500012DA07A681344BA7B79680A44127882F02F02D2B21A7009E0BB7B7A681344BA7B7968C6
S32500012DC00A4412785200D2B21A707B7B01337B737B7B072BD1D9BB7B7A6813441B78FB735A
S32500012DE0BB7B0133BB73BB7B012BB8D9FB7BDB43FB73FB7B18461437BD465DF8047B704792
S32500012E0080B584B000AF78600023FB810023BB810023FB7207F10B03732000211A46FFF71D
S32500012E209DFE0346BB81BB89002B17D1FB7A03F03003DAB27B681A707B680133FA7A02F003
S32500012E400802D2B21A700023FB7207F10B03742000211A46FFF782FE0346BB81BB89002B3E
S32500012E601BD17B680233FA7A02F03002D2B21A707B680333FA7A02F00802D2B21A707B6827
S32500012E800433FA7A02F00402D2B21A707B680533FA7A02F00102D2B21A70BB89002B02D0A7
S32500012EA040F60103FB81FB8918461037BD4680BD80B584B000AF78600023FB8100233B738C
S32500012EC000237B737B681A787B6801331B781343DBB23B7307F10C03732019460022FFF719
S32500012EE03DFE0346FB81FB89002B1CD17B6802331A787B6803331B781343DAB27B680433DD
S32500012F001B781343DAB27B6805331B781343DBB27B7307F10C030133742019460022FFF770
S32500012F201DFE0346FB81FB89002B0FD107F10C031846FFF70BFF0346FB7207F10B03752065
S32500012F4019460022FFF70AFE0346FB81FB8918461037BD4680BD00BF80B584B000AF0023C3
S32500012F60FB8113480221FFF7B9F90346FB8105F039FC3B461846FFF743FF0346FB81FB786A
S32500012F80082B05D03B79002B02D07B79012B0BD10023FB7004233B7100237B713B46184626
S32500012FA0FFF786FF0346FB811037BD4680BD00BFD878020080B483B000AF78607B68013B25
S32500012FC07B607B68002BF9D10C37BD465DF8047B704700BF80B485B000AF0346FB71FB7966
S32500012FE0092B01D10C23FB73FB790A2B01D11023FB73FB790B2B01D11423FB73FB790C2B3F
S3250001300001D11823FB73FB790D2B01D12023FB73FB790E2B01D13023FB73FB790F2B01D13F
S325000130204023FB73FB7B18461437BD465DF8047B704700BF80B500AF0F20032100F0E8FA43
S325000130401E20032100F0E4FA80BD00BF80B500AF064B1B68012B04D100F00AF8034B002222
S325000130601A6000F029F80346184680BD3400002080B58AB002AF0023FB770E4B00221A60DC
S325000130803A1D00230093104622210022002304F0C5FC09E03B1D184604F0FCFD012005F0E7
S325000130A021FDFB7F0133FB77FB7F022BF2D92037BD4680BD3400002080B582B000AFFFF762
S325000130C0D7FF05F073FC1E4B07221A701C4B1B78184600F0F5FA1B4B00221A601A4BAA2229
S325000130E01A60174B1B78184600F0EEF900F02EF803467B607B6813F1030F02D16FF00203BB
S3250001310019E07B68B3F1FF3F02D14FF0FF3312E000F016F903467B607B6813F1050F02D1C3
S325000131206FF0040307E07B68B3F1FF3F02D14FF0FF3300E0002318460837BD4680BD00BF93
S325000131403100002034000020DC85FF1F90B597B002AF0023FB6400237B6400233B6400239E
S3250001316087F83F303B1D18460021202214F08BFA6A4B1B68012B04D1FFF77AFF674B00223C
S325000131801A6082E0664B00221A7007F1240200230093104623210022002304F03FFC07F115
S325000131A02403184604F076FD5E4BBB6400BF5C4B1A785D4B1B789A4205D2BB6C013BBB64EC
S325000131C0BB6C002BF3D1BB6C002B02D14FF0FF339FE0534B1A78544B1B789A424ED347E037
S325000131E097F83F3097F83F205049895C504AD15497F83F304E4AD35C1A4613465B0013446F
S32500013200DB0008334B4A13441C1D97F83F30484AD35C1946474A0B465B000B44DB00134490
S325000132201B79454821461A4614F022FA97F83F303F4AD35C19463F4A0B465B000B44DB000B
S32500013240134408331B68DBB203F01F03DAB23B4B1A703A4B1B781946374B1A7807F150033E
S325000132600B4403F84C2C97F83F30013387F83F302D4B1B7897F83F209A42B1D32A4B1B7804
S3250001328097F83F209A4200D106E07B6C5A1C7A64B3F57A7F7FF676AF234B1B7897F83F2041
S325000132A09A4202D04FF0FF3333E00023FB6429E01F4AFB6C13441B7807F15002134413F8E4
S325000132C04C3C03F020035B11012B04D06FF002033B643B6C1DE0164AFB6C13441B7807F18D
S325000132E05002134413F84C3C03F020035B111049FA6C0A44127893403A6C13433B64FB6C9D
S325000133000133FB64084B1B781A46FB6C9A42CFD83B6C18465437BD4690BD00BF34000020F0
S325000133207001002000350C00F63D0020F83D0020D43D002098470020183E0020F43D002015
S3250001334090B58FB002AF0023FB6200237B6200233B62554B1B68012B04D1FFF789FE524BB3
S3250001336000221A608023FB7734233B70FB7F7B708DE034233B70FB7F7B704C4AFB6A134408
S325000133801A78391D3B46009308460121022304F045FB3B1D184604F07DFC012005F0A2FB8B
S325000133A0434B00221A70414AFB6A13441A78391D3B46009308461121012304F02FFB3B1D6F
S325000133C0184604F067FC3B4BBB6200BF384B1B78012B05D0BB6A013BBB62BB6A002BF5D124
S325000133E0BB6A002B02D14FF0FF3358E0304B00221A702E4AFB6A13441B781A4613465B00F8
S325000134001344DB0008332C4A13441C1D274AFB6A13441B781946284A0B465B000B44DB00CB
S3250001342013441B79254821461A4614F021F91F4AFB6A13441B7819461F4A0B465B000B44CD
S32500013440DB00134408331B68DBB203F01F03DAB21B4B1A70194B1B781B09DBB203F00103B8
S325000134607B62164B1B789B09DBB203F001033B627B6A002B02D06FF0040310E03B6A002BA7
S3250001348002D06FF009030AE0FB6A0133FB620D4B1B781A46FB6A9A423FF66BAF00231846AC
S325000134A03437BD4690BD00BF34000020D43D00207001002000350C0098470020183E0020BF
S325000134C0F43D0020F63D002080B58CB002AF0346FB71104B1B68002B17D1FB795B00DBB21D
S325000134E043F07003DBB2DBB2FB7307F1100207F10F030093104625210022012304F08EFA92
S3250001350007F11003184604F0C5FB002318462837BD4680BD3400002090B58DB002AF034697
S325000135203960FB7100237B62334B1B68012B04D1FFF79EFD304B00221A6007F10C01FA795D
S325000135400023009308460D21002304F067FA07F10C03184604F09EFB4FF4C87005F0D8FA86
S32500013560264B00221A70264B00221A7007F10C01FA790023009308461221002304F04EFAFC
S3250001358007F10C03184604F085FB1E4B7B6200BF1B4B1B78002B05D17B6A013B7B627B6A69
S325000135A0002BF5D17B6A002B01D1FF231EE0FA7913465B001344DB000833134A13441C1D90
S325000135C0FA79114913465B001344DB000B441B790E4821461A4614F04BF838680B490822CC
S325000135E014F046F8064B00221A7000235BB218462C37BD4690BD00BF3400002070010020A0
S325000136007101002000350C0098470020183E002080B58EB002AF78600B46FB70274B1B68AE
S32500013620012B04D1FFF724FD244B00221A60FB785B00DBB243F01003DBB2DBB23B73FB7884
S325000136405B00DBB243F02003DBB2DBB27B73FB785B00DBB243F04003DBB2DBB2BB737B6821
S32500013660DAB207F1140107F10C03009308460321032304F0D3F907F11403184604F00AFB52
S32500013680FB781846FFF720FF7B68DAB207F10C0310461946FFF740FFBB7C1B09DBB203F002
S325000136A0010387F82F3097F82F30012B01D1012300E0002318463037BD4680BD34000020B5
S325000136C080B58CB002AF0346FB71204B1B68012B04D1FFF7CDFC1D4B00221A60FB795B008B
S325000136E0DBB243F01003DBB2DBB23B73FB795B00DBB243F02003DBB2DBB27B73FB795B009F
S32500013700DBB243F04003DBB2DBB2BB7307F1100207F10C030093104626210022032304F0DA
S325000137207DF907F11003184604F0B4FA012005F0D9F900F00DF80346012B01D1012300E0D9
S32500013740002318462837BD4680BD00BF3400002090B595B002AF00233B64554B1B68012BE3
S3250001376004D1FFF785FC524B00221A60514B00221A7000237B6407F1240200230093104649
S3250001378028210022002304F049F907F12403184604F080FA484BFB6300BF464B1A78474B0E
S325000137A01B789A4205D2FB6B013BFB63FB6B002BF3D1FB6B002B02D14FF0FF3374E03D4BB6
S325000137C01A783E4B1B789A4249D342E03C4A7B6C13441B781A4613465B001344DB00083342
S325000137E0384A13441C1D364A7B6C13441B781946344A0B465B000B44DB0013441B79324847
S3250001380021461A4613F034FF2D4A7B6C13441B7819462C4A0B465B000B44DB00134408331F
S325000138201B68DBB203F01F03DAB2284B1A70274B1B781946244B9B791B09DBB203F0010344
S32500013840DAB207F148030B4403F8442C7B6C01337B641A4B1B781A467B6C9A42B6D8154BD5
S3250001386000221A70154B1B781A467B6C9A4203D100BF00233B6410E07BE7114A3B6C13447F
S325000138801B7807F14802134413F8443C012B01D1012309E03B6C01333B64084B1B781A469F
S325000138A03B6C9A42E9D8002318464C37BD4690BD340000207001002000350C00F63D0020F0
S325000138C0D43D002098470020183E0020F43D002090B58FB002AF03463960FB710023FB62E7
S325000138E03A4B1B68012B04D1FFF7C2FB374B00221A603B681B783B723B685B787B7207F1A9
S325000139001001FA7907F10803009308460421022304F084F807F11003184604F0BBF901204C
S3250001392005F0E0F834233B7207F11001FA7907F10803009308461121012304F06FF807F1A6
S325000139401003184604F0A6F9214B00221A70214BFB6200BF1E4B1B78012B05D0FB6A013B1E
S32500013960FB62FB6A002BF5D1FB6A002B01D1FF2327E0FA7913465B001344DB000833164A0E
S3250001398013441C1DFA79144913465B001344DB000B441B79114821461A4613F069FE0C4B16
S325000139A000221A700D4B1B781B09DBB203F0010387F82B3097F82B30002B01D0002300E0FE
S325000139C001235BB218463437BD4690BD340000207001002000350C0098470020183E0020FB
S325000139E080B58CB002AF03460A46FB711346BB80204B1B68012B04D1FFF73AFB1D4B002261
S32500013A001A60BB88DBB23B72BB8803F470631B12DBB27B7207F11001FA7907F108030093E2
S32500013A2008460421022303F0F9FF07F11003184604F030F94FF4FA7005F06AF834233B726E
S32500013A4007F11001FA7907F10803009308461121012303F0E3FF07F11003184604F01AF964
S32500013A604FF4FA7005F054F800235BB218462837BD4680BD3400002090B58FB002AF034652
S32500013A803960FB710023FB623B4B1B68012B04D1FFF7EEFA384B00221A603B681B783B72B0
S32500013AA03B685B787B7207F11001FA7907F10803009308460521022303F0B0FF07F1100344
S32500013AC0184604F0E7F8012005F00CF82B4B00221A7034233B7207F11001FA7907F10803EF
S32500013AE0009308461121012303F098FF07F11003184604F0CFF8012004F0F4FF204BFB620A
S32500013B0000BF1E4B1B78012B05D0FB6A013BFB62FB6A002BF5D1FB6A002B01D1FF2327E003
S32500013B20FA7913465B001344DB000833154A13441C1DFA79134913465B001344DB000B44F7
S32500013B401B79114821461A4613F092FD0B4B00221A700D4B1B781B09DBB203F0010387F804
S32500013B602B3097F82B30002B01D0002300E0012318463437BD4690BD3400002070010020D8
S32500013B8000350C0098470020183E002080B58CB002AF03460A46FB711346BB80224B1B68BD
S32500013BA0012B04D1FFF764FA1F4B00221A60BB88DBB23B72BB8803F470631B12DBB27B7272
S32500013BC007F11001FA7907F10803009308460521022303F023FF07F11003184604F05AF86F
S32500013BE04FF4FA7004F094FF104B00221A7034233B7207F11001FA7907F10803009308461F
S32500013C001121012303F00AFF07F11003184604F041F84FF4FA7004F07BFF00235BB218460C
S32500013C202837BD4680BD00BF340000207001002090B591B002AF03460A46FB711346BB7179
S32500013C4000237B63504B1B68012B04D1FFF710FA4D4B00221A604D4B00221A70BB793B74E2
S32500013C6007F11801FA7907F11003009308461121012303F0D3FE07F11803184604F00AF84C
S32500013C80434B7B6300BF414B1B78012B05D07B6B013B7B637B6B002BF5D17B6B002B02D117
S32500013CA04FF0FF336BE0394B00221A70FA7913465B001344DB000833364A13441C1DFA79FA
S32500013CC0344913465B001344DB000B441B791A4607F10F031846214613F0CAFC2B4B002207
S32500013CE01A7034233B7407F11801FA7907F11003009308461121012303F090FE07F11803D3
S32500013D00184603F0C7FF224B7B6300BF1F4B1B78012B05D07B6B013B7B637B6B002BF5D1A6
S32500013D207B6B002B02D14FF0FF3328E0FA7913465B001344DB000833164A13441C1DFA7928
S32500013D40144913465B001344DB000B441B79124821461A4613F08CFC0C4B00221A700E4B2E
S32500013D601B781B09DBB203F0010387F8333097F83330002B02D06FF0080300E0FB7B184612
S32500013D803C37BD4690BD00BF340000207001002000350C0098470020183E002080B588B092
S32500013DA002AF0C4B1B68012B04D1FFF761F9094B00221A603A46002300931046272100223A
S32500013DC0002303F02BFE3B46184603F063FF1837BD4680BD3400002080B59AB002AFBA603C
S32500013DE07B600346FB730B46BB73FB7BFF2B0DD107F14402BB68009310462C2100220C2345
S32500013E0003F00CFE022004F06DFE14E1BB7B012B40F0BF80FB7B03F00103DBB2002B03D15E
S32500013E20FB7B87F85F3003E0FB7B013B87F85F3007F114031846B968082213F019FC07F18C
S32500013E40440197F85F2007F11403009308460821082303F0E3FD07F14403184603F01AFF48
S32500013E60012004F03FFEBB68083307F1140210461946082213F0FCFB07F1440197F85F2059
S32500013E8007F11403009308460921082303F0C6FD07F14403184603F0FDFE012004F022FE60
S32500013EA0BB68103307F1140210461946082213F0DFFB07F1440197F85F2007F114030093DE
S32500013EC008460A21082303F0A9FD07F14403184603F0E0FE012004F005FE07F114031846AB
S32500013EE0B968082213F0C4FB97F85F300133DAB207F1440107F1140300930846082108234F
S32500013F0003F08CFD07F14403184603F0C3FE012004F0E8FDBB68083307F1140210461946B2
S32500013F20082213F0A5FB97F85F300133DAB207F1440107F11403009308460921082303F05A
S32500013F406DFD07F14403184603F0A4FE012004F0C9FDBB68103307F1140210461946082290
S32500013F6013F086FB97F85F300133DAB207F1440107F11403009308460A21082303F04EFD17
S32500013F8007F14403184603F085FE012004F0AAFD51E007F114031846B968082213F068FBFC
S32500013FA007F14401FA7B07F11403009308460821082303F033FD07F14403184603F06AFEE9
S32500013FC0012004F08FFDBB68083307F1140210461946082213F04CFB07F14401FA7B07F1FA
S32500013FE01403009308460921082303F017FD07F14403184603F04EFE012004F073FDBB68E2
S32500014000103307F1140210461946082213F030FB07F14401FA7B07F11403009308460A216E
S32500014020082303F0FBFC07F14403184603F032FE012004F057FD6037BD4680BD80B582B0FD
S3250001404000AF0F200321FFF7E3FA1E200321FFF7DFFAFB1D0F200121054AFFF7BDFEFB1DD2
S325000140601E200121034AFFF7B7FE0837BD4680BD188FFF1F308FFF1F80B500AF00F07AF87A
S3250001408000F0CAF8044B93F826300448194600F0F3F900F001F980BD6C5B0020283E00201C
S325000140A080B500AF02F084FA03461A46304B1A7002F08AFA03461A462D4B5A8002F0B0FAEA
S325000140C003461A462A4B5A7202F08EFA0246284B5A6002F0D1FA03461A46254B1A7202F0AC
S325000140E08FFA03461A46224BDA7202F035FB03461A461F4B9A7202F0A3FA03461A461C4BEE
S325000141001A7302F0A9FA03461A46194B5A7302F0DFFA03461A46164B9A7302F0E5FA0346A0
S325000141201A46134BDA7302F0EFFA03461A46104B1A7402F0F5FA03461A460D4B5A7402F05E
S32500014140FFFA03461A460A4B9A7402F0A1FA03461A46074B5A7502F0ABFA03461A46044B6D
S325000141601A7502F005FB03461A46014BDA7480BD283E002080B500AF0EF0C6FE03461A4662
S32500014180244B83F830200EF039FF03461A46214B83F831200EF04EFF03461A461D4B83F8F0
S325000141A032200FF05BF803461A461A4B83F836200EF05AFF03461A46164B83F837200EF044
S325000141C0ABFF03461A46134B83F838200EF0DCFF03461A460F4B83F83A200EF0EBFF034672
S325000141E01A460C4B83F83B200EF0F4FF03461A46084B83F83C200EF0FDFF03461A46054B74
S3250001420083F83D200FF010F803461A46014B83F83E2080BD283E002080B500AF164B1B695E
S32500014220164A93660EF024FD0246144B5A650EF04FFD0246114BDA640EF068FD03461A4661
S325000142400E4B9A640EF07CFD03461A460B4B83F850200EF0AFFD0246084BDA650EF0C4FD5C
S3250001426003461A46054B9A650EF0D8FD03461A46024B83F8602080BD38590020283E002007
S3250001428080B500AF05F0DAF803461A46014B9A7680BD00BF283E002080B584B000AF0023AA
S325000142A07B600023BB603B1D184600F01DF80D4B93F82630002B05D040F2552002F014F845
S325000142C0F86004E040F2562002F00EF8F860FB689B681A463B1D03CB106051601037BD464C
S325000142E080BD00BF6C5B002080B485B000AF7860604B1B78012B0BD17B681B793B733B7BC3
S3250001430043F001033B737B6804333A7B1A700AE07B681B793B733B7B6FF300033B737B689D
S3250001432004333A7B1A70534B5B78012B0BD17B681B793B733B7B43F002033B737B680433AC
S325000143403A7B1A700AE07B681B793B733B7B6FF341033B737B6804333A7B1A70454B9B7802
S32500014360002B0BD07B681B793B733B7B43F004033B737B6804333A7B1A700AE07B681B79B3
S325000143803B733B7B6FF382033B737B6804333A7B1A70384BDB78012B0BD17B685B793B7381
S325000143A03B7B43F001033B737B6805333A7B1A700AE07B685B793B733B7B6FF300033B73E9
S325000143C07B6805333A7B1A702A4B1B79032B4BD801A252F823F000BFE943010009440100E8
S325000143E029440100494401007B685B793B733B7B6FF341033B733B7B6FF382033B737B681D
S3250001440005333A7B1A7030E07B685B793B733B7B43F002033B733B7B6FF382033B737B68DF
S3250001442005333A7B1A7020E07B685B793B733B7B6FF341033B733B7B43F004033B737B680E
S3250001444005333A7B1A7010E07B685B793B733B7B43F002033B733B7B43F004033B737B686C
S3250001446005333A7B1A7000E000BF1437BD465DF8047B70473C00002080B588B000AF7860F6
S325000144800B46FB70FB78012B40F0FB817B6893F836303B7507F114034FF42E50194601F06A
S325000144A0C3FC07F11403184600210A2213F0EBF87B689B6E18464FF00001FCF7D3FF0346FE
S325000144C0002B23D07B689B6E18463549FCF7ACFF0346002B1AD07B689B6E18463149FCF73C
S325000144E005FE03461846FCF7EDFF0346DBB23B7507F1140342F68230194601F095FC07F1D4
S325000145001403184600210A2213F0BDF800233B73254B93F8363003F00103002B08D03B7B38
S3250001452043F001033B733B7B43F002033B7307E03B7B6FF300033B733B7B6FF341033B7339
S32500014540194B9B6C002B04D03B7B43F004033B7303E03B7B6FF382033B73134B9B6D002B8D
S3250001456004D03B7B43F008033B7303E03B7B6FF3C3033B730C4BDB6C002B04D03B7B43F0C9
S3250001458010033B7303E03B7B6FF304133B73064BDB6D002B0AD03B7B43F020033B7309E052
S325000145A00000C84100002041283E00203B7B6FF345133B733B7B3B7507F1140342F68A307F
S325000145C0194601F031FC00233B7300233B757B6893F83D303B7507F1140342F68E301946C4
S325000145E001F022FC07F11403184600210A2213F04AF87B6893F83E303B7507F1140342F6D3
S325000146009030194601F010FC07F11403184600210A2213F038F87B685B881A46920013447B
S325000146201A4691001A460B4613449B009BB2FB82FB8ADBB27B75FB8A1B0A9BB2DBB23B75DF
S3250001464007F1140342F69130194601F0EDFB07F11403184600210A2213F015F801233B7575
S3250001466007F1140342F69330194601F0DDFB07F11403184600210A2213F005F87B689B6E5B
S3250001468018464FF00001FCF7EDFE0346002B23D07B689B6E1846C149FCF7C6FE0346002BB1
S325000146A01AD07B689B6E1846BD49FCF71FFD03461846FCF707FF0346DBB27B7507F1140335
S325000146C04FF48070194601F077FB07F11403184600210A2212F0D7FF7B685B881A46920094
S325000146E013441A4691001A460B4613449B009BB2FB82FB8ADBB27B75FB8A1B0A9BB2DBB278
S325000147003B7507F1140340F20110194601F054FB07F11403184600210A2212F0B4FF7B689F
S325000147205B689BB2FB827B685B681B0C9BB23B8307F1140302334FF48170194601F03CFB0E
S3250001474007F11403184600210A2212F09CFF7B685B6D3B6107F1100342F69730194601F05A
S325000147602BFB07F1100318460021042212F08BFF7B6893F832303B7507F1140342F6993040
S32500014780194601F019FB07F11403184600210A2212F079FF7B685B6D3B6107F1100342F6F0
S325000147A09A30194601F008FB07F1100318460021042212F068FF7B6893F835303B7507F141
S325000147C0140342F69C30194601F0F6FA07F11403184600210A2212F056FF7B6893F8603068
S325000147E07B7507F11403013342F69D30194601F0E3FA07F11403184600210A2212F043FF4F
S325000148007B6893F83730002B10D17B6893F83830002B0BD17B6893F83D30002B06D0614B4B
S3250001482093F83630002B01D000233B757B6893F83730012B01D101233B757B6893F8383034
S32500014840012B01D102233B757B6893F83630012B01D104233B757B6893F83D30012B01D1FC
S3250001486008233B7507F1140342F69E30194601F0A3FA07F11403184600210A2212F003FF96
S32500014880FCE17B6864225A807B6893F836303B7507F114034FF43350194601F0C5FA07F191
S325000148A01403184600210A2212F0EDFE7B689B6E18464FF00001FCF7D5FD0346002B23D08C
S325000148C07B689B6E18463549FCF7AEFD0346002B1AD07B689B6E18463149FCF707FC03460A
S325000148E01846FCF7EFFD0346DBB27B7507F1140342F6C240194601F097FA07F11403184617
S3250001490000210A2212F0BFFE00233B73254B93F8363003F00103002B08D03B7B43F001036B
S325000149203B733B7B43F002033B7307E03B7B6FF300033B733B7B6FF341033B73194B9B6C01
S32500014940002B04D03B7B43F004033B7303E03B7B6FF382033B73134B9B6D002B04D03B7B6A
S3250001496043F008033B7303E03B7B6FF3C3033B730C4BDB6C002B04D03B7B43F010033B738E
S3250001498003E03B7B6FF304133B73064BDB6D002B0AD03B7B43F020033B7309E00000C84106
S325000149A000002041283E00203B7B6FF345133B733B7B3B7507F1140342F6CA40194601F0E4
S325000149C033FA00233B7300233B757B6893F83D303B7507F1140342F6CE40194601F024FAB1
S325000149E007F11403184600210A2212F04CFE7B6893F83E303B7507F1140342F6D040194668
S32500014A0001F012FA07F11403184600210A2212F03AFE7B685B881A46920013441A4691009E
S32500014A201A460B4613449B009BB2FB82FB8ADBB27B75FB8A1B0A9BB2DBB23B7507F11403BD
S32500014A4042F6D140194601F0EFF907F11403184600210A2212F017FE02233B7507F1140319
S32500014A6042F6D340194601F0DFF907F11403184600210A2212F007FE7B689B6E18464FF072
S32500014A800001FCF7EFFC0346002B23D07B689B6E18467C49FCF7C8FC0346002B1AD07B68C2
S32500014AA09B6E18467849FCF721FB03461846FCF709FD0346DBB23B7507F114034FF4807050
S32500014AC0194601F079F907F11403184600210A2212F0D9FD7B685B881A46920013441A460C
S32500014AE091001A460B4613449B009BB2FB82FB8ADBB27B75FB8A1B0A9BB2DBB23B7507F183
S32500014B00140340F20110194601F056F907F11403184600210A2212F0B6FD7B685B689BB233
S32500014B20FB827B685B681B0C9BB23B8307F1140302334FF48170194601F03EF907F114030B
S32500014B40184600210A2212F09EFD7B685B6D3B6107F1100342F6D740194601F02DF907F1F7
S32500014B60100318460021042212F08DFD7B6893F832303B7507F1140342F6D940194601F0BA
S32500014B801BF907F11403184600210A2212F07BFD7B685B6E3B6107F1100342F6DA401946C2
S32500014BA001F00AF907F1100318460021042212F06AFD7B6893F835303B7507F1140342F617
S32500014BC0DC40194601F0F8F807F11403184600210A2212F058FD7B6893F860307B7507F17B
S32500014BE01403013342F6DD40194601F0E5F807F11403184600210A2212F045FD7B6893F875
S32500014C003730002B10D17B6893F83830002B0BD17B6893F83D30002B06D01C4B93F8363009
S32500014C20002B01D000233B757B6893F83730012B01D101233B757B6893F83830012B01D123
S32500014C4002233B757B6893F83630012B01D104233B757B6893F83D30012B01D108233B751B
S32500014C6007F1140342F6DE40194601F0A5F807F11403184600210A2212F005FD2037BD46C3
S32500014C8080BD00BF0000C84100002041283E002080B58CB002AF07F1140300221A6004331D
S32500014CA000221A60043300221A80023307F1080300221A60043300221A60043300221A80C4
S32500014CC00233002387F82630002387F82530002387F82430002387F823300023FB7100230C
S32500014CE0BB71002387F8273018E097F82730B44A5279D2B207F128010B4403F8142C97F823
S32500014D002730B04A5279D2B207F128010B4403F8202C97F82730013387F8273097F827305F
S32500014D20092BE2D907F11402FB1D10460A211A4600F012FB034687F8223007F10802BB1D85
S32500014D4010460A211A4600F007FB034687F8213097F8223007F12802134413F8143C5BB29E
S32500014D60002B40F3528297F8213007F12802134413F8203C5BB2002B40F3478297F8223025
S32500014D8007F12802134413F8143CDBB223F07F0387F8263097F8213007F12802134413F8DD
S32500014DA0203CDBB223F07F0387F8253097F8223007F12802134413F8143CDBB203F0010361
S32500014DC087F8243097F8213007F12802134413F8203CDBB203F0010387F8233097F8223002
S32500014DE007F12802134413F8143CDBB203F07F03DA0F13445B1087F8203097F8213007F184
S32500014E002802134413F8143CDBB203F07F03DA0F13445B10FB7797F82630002B0DD097F814
S32500014E202530002B09D097F82430002B05D097F82330002B01D0012300E00023002B40F0CF
S32500014E40DF81614B1B78FA7F9A4205D15E4B1B78FA7F9A4200F0D88197F82030112B02D0BA
S32500014E60FB7F112B4FD1594B9B6A1846FBF7AAFC02460B46104619464FA3D3E90023FBF7A5
S32500014E805DFF0346002B07D0B223009301202E21B2222E23FCF7DCFC4C4B9B6A18464C490D
S32500014EA0FCF7B8FA0346002B07D0B223009301202E21B2222E23FCF7CBFC444B9B6A184652
S32500014EC04449FCF7A7FA0346002B07D0B223009301202E21B2222E23FCF7BAFC3B4B9B6A2E
S32500014EE018463D49FCF796FA0346002B07D0B223009301202E21B2222E23FCF7A9FC374BE2
S32500014F0001221A7074E197F82030102B02D0FB7F102B65D12D4B9B6A1846FBF753FC02464D
S32500014F200B461046194624A3D3E90023FBF706FF0346002B07D0AA23009301202E21AA22E0
S32500014F402E23FCF785FC214B9B6A18462049FCF761FA0346002B07D0AA23009301202E21E4
S32500014F60AA222E23FCF774FC184B9B6A18461949FCF750FA0346002B07D0AA230093012079
S32500014F802E21AA222E23FCF763FC104B9B6A18461149FCF73FFA0346002B07D0AA2300935D
S32500014FA001202E21AA222E23FCF752FC0B4B02221A701DE1AFF30080CDCCCCCCCCCC1240DD
S32500014FC0445700204C570020420000206C5B00200000F040000030410000B041430000200E
S32500014FE097F820300F2B02D0FB7F0F2B4FD18E4B9B6A1846FBF7E6FB02460B46104619468E
S3250001500087A3D3E90023FBF799FE0346002B07D09E23009301202E219E222E23FCF718FCD0
S32500015020814B9B6A18468149FCF7F4F90346002B07D09E23009301202E219E222E23FCF77D
S3250001504007FC794B9B6A18467949FCF7E3F90346002B07D09E23009301202E219E222E236E
S32500015060FCF7F6FB704B9B6A18467249FCF7D2F90346002B07D09E23009301202E219E22DF
S325000150802E23FCF7E5FB6C4B03221A70B0E097F820300E2B02D0FB7F0E2B4FD1624B9B6A80
S325000150A01846FBF78FFB02460B46104619465CA3D3E90023FBF742FE0346002B07D09823AB
S325000150C0009301202E2198222E23FCF7C1FB564B9B6A18465549FCF79DF90346002B07D096
S325000150E09823009301202E2198222E23FCF7B0FB4D4B9B6A18464E49FCF78CF90346002BC4
S3250001510007D09823009301202E2198222E23FCF79FFB454B9B6A18464649FCF77BF9034629
S32500015120002B07D09823009301202E2198222E23FCF78EFB404B04221A7059E097F82030CE
S325000151400D2B02D9FB7F0D2B4FD8374B9B6A1846FBF738FB02460B461046194630A3D3E975
S325000151600023FBF7EBFD0346002B07D08C23009301202E218C222E23FCF76AFB2A4B9B6A5D
S3250001518018462A49FCF746F90346002B07D08C23009301202E218C222E23FCF759FB224B55
S325000151A09B6A18462249FCF735F90346002B07D08C23009301202E218C222E23FCF748FBC7
S325000151C0194B9B6A18461B49FCF724F90346002B07D08C23009301202E218C222E23FCF79E
S325000151E037FB154B05221A7002E0134B00221A70124A97F820301370114AFB7F137007E07C
S325000152000D4B00221A7003E002E00B4B00221A70094B1B7818462837BD4680BDAFF30080B6
S32500015220CDCCCCCCCCCC12406C5B00200000F040000030410000B04143000020410000200F
S325000152404200002090B589B002AF0023FB730023BB730023FB704FF000033B610023FB75D5
S3250001526015E097F917401E203A21FEF7E1FC0346DBB203F00E035B10DAB207F11803234495
S3250001528003F8142CFB7DDBB20133DBB2FB7597F91730092BE5DD3A1DFB1C10460A211A467A
S325000152A000F05AF80346BB73FB78012B46D997F90E30002B42DD97F90E30092B3EDC97F9AC
S325000152C00E3007F11802134413F8143CFB7397F90F30012B0AD1A623009301202E21A622ED
S325000152E02E23FCF7B5FA184B3B6127E097F90F30022B0AD19B23009301202E219B222E2308
S32500015300FCF7A6FA114B3B6118E097F90F30052B0AD18723009301202E2187222E23FCF78F
S3250001532097FA0B4B3B6109E0B223009301202E21B2222E23FCF78CFA064B3B613B69184695
S325000153401C37BD4690BD00BF0000F040000030410000B0416666964080B590B000AFF86034
S325000153600B467A60FB72002387F83F30002387F83E30FB7A07F128021046F9681A4612F0BD
S3250001538077F9FB7A07F11402104600211A4612F07AF9002387F83F3038E0002387F83E308E
S325000153A028E097F93F3007F14002134413F8181C97F93E30FA6813441B784AB25BB29A42E0
S325000153C011D197F93F2007F14003134413F82C3CDBB2DBB20133DBB2D9B207F140031344F8
S325000153E00A4603F82C2C97F83E30DBB20133DBB287F83E3097F93E20FB7A9A42D1DB97F851
S325000154003F30DBB20133DBB287F83F3097F93F20FB7A9A42C1DB002387F83E30002387F84C
S325000154203F303B7D87F83D30002387F83F301FE097F93F3007F14002134413F82C3C97F9AF
S325000154403D205BB29A420CDC97F93F3007F14002134413F82C3C87F83D3097F83F3087F8AB
S325000154603E3097F83F30DBB20133DBB287F83F3097F93F20FB7A9A42DADB97F83D207B68B9
S325000154801A7097F83E3018464037BD4680BD00BF80B483B000AF0346FB71FB79012B60D10E
S325000154A0624B4FF480721A80604B01229A705F4B5F4A5A605D4B40F201121A815B4B022232
S325000154C09A725A4B5B4ADA60584B4FF481721A82564B04229A74554B574A5A61534B42F619
S325000154E097321A83514B04229A76504B534ADA614E4B42F699321A844C4B012283F8222049
S325000155004A4B4F4A5A62494B42F69A321A85474B042283F82A20454B4A4ADA62434B42F6C0
S325000155209C321A86414B012283F832203F4B464A5A633E4B42F69D321A873C4B022283F84C
S325000155403A203A4B414ADA63384B42F69E32A3F84020364B022283F84220344B3C4A5A64D2
S325000155605FE0324B4FF480721A80304B01229A702E4B2F4A5A602D4B40F201121A812B4B77
S3250001558002229A72294B2B4ADA60284B4FF481721A82264B04229A74244B274A5A61234BBE
S325000155A042F6D7421A83214B04229A761F4B294ADA611E4B42F6D9421A841C4B012283F8DD
S325000155C022201A4B244A5A62184B42F6DA421A85164B042283F82A20144B204ADA62134BEE
S325000155E042F6DC421A86114B012283F832200F4B1B4A5A630D4B42F6DD421A870B4B02221C
S3250001560083F83A20094B174ADA63084B42F6DE42A3F84020054B022283F84220034B124A1B
S325000156205A640C37BD465DF8047B704740460020C0000020C4000020C8000020E000002082
S32500015640E4000020E8000020EC000020F0000020F40000203886FF1FCC000020D00000204F
S32500015660D4000020D8000020DC00002080B483B000AF0346FB71FB79012B40F05F81954BE0
S325000156804FF42E521A80934B02229A70914B924A5A60904B42F681321A818E4B02229A72BE
S325000156A08C4B8E4ADA608B4B42F682321A82894B02229A74874B8A4A5A61864B42F6843276
S325000156C01A83844B02229A76824B864ADA61814B42F685321A847F4B022283F822207D4B7F
S325000156E0814A5A627B4B42F686321A85794B022283F82A20774B7D4ADA62764B42F68732A3
S325000157001A86744B042283F83220724B784A5A63704B42F688321A876E4B042283F83A20F2
S325000157206C4B744ADA636B4B42F68932A3F84020684B042283F84220664B6F4A5A64654B7E
S3250001574042F68A32A3F84820624B012283F84A20604B6A4ADA645F4B42F68B32A3F850204F
S325000157605C4B042283F852205A4B654A5A65594B42F68C32A3F85820564B022283F85A20EE
S32500015780544B604ADA65534B42F68D32A3F86020504B022283F862204E4B5B4A5A664D4B78
S325000157A042F68E32A3F868204A4B012283F86A20484B564ADA66474B42F68F32A3F87020E1
S325000157C0444B022283F87220424B514A5A67414B42F69032A3F878203E4B012283F87A209F
S325000157E03C4B4C4ADA673B4B42F69132A3F88020384B022283F88220364B474AC3F8842053
S32500015800344B42F69232A3F88820324B022283F88A20304B414AC3F88C202E4B42F693321A
S32500015820A3F890202B4B012283F89220294B3C4AC3F89420274B42F69732A3F89820254BB1
S32500015840042283F89A20234B364AC3F89C20214B42F69932A3F8A0201E4B012283F8A220EE
S325000158601C4B314AC3F8A4201A4B42F69A32A3F8A820184B042283F8AA20164B2B4AC3F895
S32500015880AC20144B42F69C32A3F8B020114B012283F8B2200F4B264AC3F8B4200D4B42F6B0
S325000158A09D32A3F8B8200B4B022283F8BA20094B204AC3F8BC20074B42F69E32A3F8C020A6
S325000158C0044B022283F8C220024B1B4AC3F8C4205DE100BF784500200C86FF1F1086FF1F62
S325000158E01486FF1F1886FF1F1C86FF1F2086FF1F2486FF1F2886FF1F2C86FF1F80000020A5
S325000159003086FF1F3486FF1F8C0000209000002094000020980000209C000020A000002090
S32500015920A4000020A8000020AC000020B0000020B4000020B8000020BC000020964B4FF48C
S3250001594033521A80944B02229A70934B934A5A60914B42F6C1421A818F4B02229A728E4B0A
S325000159608F4ADA608C4B42F6C2421A828A4B02229A74894B8B4A5A61874B42F6C4421A8346
S32500015980854B02229A76844B874ADA61824B42F6C5421A84804B022283F822207E4B834A35
S325000159A05A627D4B42F6C6421A857B4B022283F82A20794B7E4ADA62774B42F6C7421A8663
S325000159C0754B042283F83220734B7A4A5A63724B42F6C8421A87704B042283F83A206E4BBF
S325000159E0754ADA636C4B42F6C942A3F840206A4B042283F84220684B704A5A64664B42F6E3
S32500015A00CA42A3F84820644B012283F84A20624B6B4ADA64604B42F6CB42A3F850205E4B75
S32500015A20042283F852205C4B664A5A655A4B42F6CC42A3F85820584B022283F85A20564BDB
S32500015A40614ADA65544B42F6CD42A3F86020524B022283F86220504B5C4A5A664E4B42F6C4
S32500015A60CE42A3F868204C4B012283F86A204A4B574ADA66484B42F6CF42A3F87020464B1F
S32500015A80022283F87220444B524A5A67424B42F6D042A3F87820404B012283F87A203E4B8C
S32500015AA04D4ADA673C4B42F6D142A3F880203A4B022283F88220384B484AC3F88420364B3F
S32500015AC042F6D242A3F88820334B022283F88A20314B434AC3F88C202F4B42F6D342A3F897
S32500015AE090202D4B012283F892202B4B3D4AC3F89420294B42F6D742A3F89820264B04220C
S32500015B0083F89A20244B384AC3F89C20224B42F6D942A3F8A020204B012283F8A2201E4B92
S32500015B20324AC3F8A4201C4B42F6DA42A3F8A820194B042283F8AA20174B2D4AC3F8AC2016
S32500015B40154B42F6DC42A3F8B020134B012283F8B220114B274AC3F8B4200F4B42F6DD4242
S32500015B60A3F8B8200C4B022283F8BA200A4B224AC3F8BC20084B42F6DE42A3F8C020064B0C
S32500015B80022283F8C220044B1C4AC3F8C4200C37BD465DF8047B704778450020E085FF1FF8
S32500015BA0E485FF1FE885FF1FEC85FF1FF085FF1FF485FF1FF885FF1FFC85FF1F0086FF1F35
S32500015BC0440000200486FF1F0886FF1F4C0000205000002054000020580000205C000020C2
S32500015BE06000002064000020680000206C0000207000002074000020780000207C0000202E
S32500015C0080B487B000AF0346B9607A60FB810023FB750023BB750023FB752BE0FB7D194A4C
S32500015C2032F83330FA899A4221D10023BB750EE0BB7DBA681A44FB7D1249DB000B445968C8
S32500015C40BB7D0B441B781370BB7D0133BB75FB7D0C4ADB0013449B78BA7D9A42E8D3FB7DAB
S32500015C60084ADB0013449A787B681A7005E0FB7D0133FB75FB7D182BD0D91C37BD465DF80A
S32500015C80047B70477845002080B485B000AF78600023FB730023BB7300233B7300237B7336
S32500015CA00023FB7321E0FB7B154ADB0013449B783B730023BB7311E07B7B7A681A44FB7B95
S32500015CC00F49DB000B445968BB7B0B441B7813707B7B01337B73BB7B0133BB73BA7B3B7B44
S32500015CE09A42E9D3FB7B0133FB73FB7B092BDAD97B7B18461437BD465DF8047B704700BFA4
S32500015D004046002080B485B000AF786039600023FB730023BB73FB7B5A1CFA731A467B68CF
S32500015D2013440A221A7000237B7338E0FB7B5A1CFA731A467B6813447A7B1E4931F832205C
S32500015D40120A92B2D2B21A70FB7B5A1CFA731A467B6813447A7B174931F83220D2B21A70FD
S32500015D6000233B7310E0FB7B5A1CFA731A467B681A44BB7B591CB97319463B680B441B78A6
S32500015D8013703B7B01333B737B7B0A4ADB0013449B783A7B9A42E6D37B7B01337B737B7BFA
S32500015DA0092BC3D9FB7B18461437BD465DF8047B704700BF4046002080B485B000AF034699
S32500015DC03960FB800023FB7324E0FB7B154A32F83330FA889A421AD10023BB730EE0FB7BB3
S32500015DE0104ADB0013445A68BB7B1344BA7B39680A4412781A70BB7B0133BB73FB7B094A28
S32500015E00DB0013449B78BA7B9A42E8D305E0FB7B0133FB73FB7B092BD7D91437BD465DF870
S32500015E20047B70474046002080B485B000AF03463960FB800023FB7324E0FB7B154A32F876
S32500015E403330FA889A421AD10023BB730EE0FB7B104ADB0013445A68BB7B1344BA7B396829
S32500015E600A4412781A70BB7B0133BB73FB7B094ADB0013449B78BA7B9A42E8D305E0FB7BEC
S32500015E800133FB73FB7B182BD7D91437BD465DF8047B70477845002080B582B000AF0346DB
S32500015EA03960FB80FB8818463968FFF7BDFF0837BD4680BD80B584B000AFB9607A603B606E
S32500015EC00346FB81944B93F82630012B40F08F80FB89A3F54143042B00F2868001A252F817
S32500015EE023F000BFF95E01000D5F0100E95F0100315F0100455F0100BB681B78002B7B68C1
S32500015F0000221A703B6800221A806FE0BB681B78002B06D0BB681B78012B02D100200AF09A
S32500015F2085FF7B6800221A703B6800221A805DE0BB681B78002B7B6800221A703B68002276
S32500015F401A8053E0BB681B78002B46D0BB681B78012B03D1714B04221A703EE0BB681B7880
S32500015F60022B03D16D4B01221A7036E0BB681B78032B03D1694B03221A702EE0BB681B78BF
S32500015F80042B03D1654B02221A7026E0BB681B78052B03D1614B05221A701EE0BB681B78C8
S32500015FA0062B03D15D4B06221A7016E0BB681B78072B03D1594B07221A700EE0BB681B78CE
S32500015FC0082B03D1554B08221A7006E0BB681B78092B02D1514B09221A707B6800221A70DC
S32500015FE03B6800221A8001E0312390E08EE0FB89A3F54143A03B042B00F2868001A252F899
S3250001600023F000BF196001002D600100096101005160010065600100BB681B78002B7B68F8
S3250001602000221A703B6800221A806FE0BB681B78002B06D0BB681B78012B02D100200AF079
S32500016040F5FE7B6800221A703B6800221A805DE0BB681B78002B7B6800221A703B680022E6
S325000160601A8053E0BB681B78002B46D0BB681B78012B03D1294B04221A703EE0BB681B78A7
S32500016080022B03D1254B01221A7036E0BB681B78032B03D1214B03221A702EE0BB681B782E
S325000160A0042B03D11D4B02221A7026E0BB681B78052B03D1194B05221A701EE0BB681B7837
S325000160C0062B03D1154B06221A7016E0BB681B78072B03D1114B07221A700EE0BB681B783D
S325000160E0082B03D10D4B08221A7006E0BB681B78092B02D1094B09221A707B6800221A704B
S325000161003B6800221A8001E0312300E0002318461037BD4680BD00BF6C5B002054020020E0
S3250001612080B500AF00200CF08FFB0AF0CFFF00200AF010FE00200BF0ADFD00200BF046FCBC
S3250001614080BD00BF80B500AF02F0F8FCFBF7DAF9304A304B5B6843F0020353600FF040FFCC
S325000161602D4B93F82630184600F00EFB00F0BAFEFBF768FC00F040FF01F004FD02F0FEF861
S3250001618002F0DCFB02F042FC02F0D6FA02F0E4FC02F000FD214B01221A70FCF7DDFE08F09D
S325000161A0C9F807F0F1F905F009FB08F0E3FB05F00DF905F097F9FFF7B3FF00200AF00EFE19
S325000161C002F092FA02F026FB02F006FC00F028FE00F09EFBFFF736F802460F4B9A62FCF7DF
S325000161E035FFFDF72BFFFBF7D7FA0B4B00225A70094B00221A700FF04BF80DF08FF8FDF787
S32500016200CDFD0CF0D5FA01200AF048FA0023184680BD00BF40F00F406C5B00209C050020E1
S32500016220B0B586B002AF78607B685B7B002B1CD12B4B1B68002B06D1294A7B6813607B68BB
S3250001624000225A6147E0264B1B68FB6002E0FB685B69FB60FB685B69002BF8D1FB687A6820
S325000162605A617B6800225A6135E07B685B7B012B31D11C4B1B68002B06D11A4A7B681360FA
S325000162807B6800225A6110E0164B1B68FB6002E0FB685B69FB60FB685B69002BF8D1FB6826
S325000162A07A685A617B6800225A617B689B7B002B11D17B681A687B689B7B19467B68DB7B7E
S325000162C01D467B689C687B681B79009310462A46234601F053FB002318461037BD46B0BDBD
S325000162E0F8000020FC00002080B485B000AF7860144B1B68FB6009E0FB681A687B689A42A9
S3250001630001D1FB6817E0FB685B69FB60FB68002BF2D10D4B1B68FB6009E0FB681A687B6890
S325000163209A4201D1FB6806E0FB685B69FB60FB68002BF2D1002318461437BD465DF8047BE9
S32500016340704700BFF8000020FC00002080B584B000AF786039600023BB600023FB73786854
S32500016360FFF7C2FFB860BB68002B01D1012314E00023FB730BE0BB689A68FB7B1344FA7B2C
S3250001638039680A4412781A70FB7B0133FB73BB681B79FA7B9A42EED3002318461037BD4647
S325000163A080BD00BF80B485B000AF0346FB71FB7903F00703FB73FB7B072B33D801A252F88E
S325000163C023F000BFE5630100ED630100F5630100FD630100056401000D640100156401003A
S325000163E01D640100124BFF221A701CE0104B01221A7018E00E4B03221A7014E00C4B072294
S325000164001A7010E00A4B0F221A700CE0084B1F221A7008E0064B3F221A7004E0044B7F22E9
S325000164201A7000E000BF1437BD465DF8047B70473C86FF1F80B588B000AF786000233B61C0
S325000164400023BB610023FB757B685B6D002B01D1012390E07B685B6D3B617B6893F8203022
S32500016460FB777B6893F82130BB777B6893F82230FB73BA7FFB7B1344082B2CDCFB7B18466F
S32500016480FFF790FF3B699A68FB7F13441B781A46BB7F42FA03F33A4A127813401A467B68F6
S325000164A0DA637B68DB6B1846FAF76AF97B68D3E90C23FAF7DBF902460B46104619467B68F9
S325000164C0D3E90A23FAF720F802460B467968C1E9102300234FE00023FB752CE03B699A68D5
S325000164E0FB7F13441B781A46BB7F42FA03F303F00103002B08D0FB7D012202FA03F31A467E
S32500016500BB691343BB6108E0FB7D012202FA03F3DB431A46BB691340BB61BB7F0133BB77B8
