:020000021000EC
:10000000006E0020B9040100F9040100F9040100A8
:10001000F9040100F9040100F904010000000000E6
:10002000000000000000000000000000F9040100D2
:10003000F9040100000000005D04010001FD010061
:10004000F9040100F9040100F9040100F9040100B8
:10005000F9040100F9040100F9040100F9040100A8
:10006000F9040100F9040100F9040100F904010098
:10007000F9040100F9040100F9040100F904010088
:10008000F9040100F9040100F9040100F904010078
:10009000F9040100F9040100F9040100F904010068
:1000A000F9040100F9040100F9040100F904010058
:1000B000F9040100F9040100F904010025C8010058
:1000C000F90401007DC80100F9040100D9C801004C
:1000D000F9040100F9040100F9040100F904010028
:1000E000F9040100F9040100F9040100F904010018
:1000F000F9040100F9040100F9040100F904010008
:1001000049FD0100B1FD0100F9040100F9040100FD
:10011000F9040100F9040100F9040100F9040100E7
:10012000F9040100F9040100F904010031C90100DA
:1001300059C9010085C90100B1C90100DDC901002B
:10014000F9040100F9040100F9040100F9040100B7
:10015000F9040100F9040100F9040100F9040100A7
:10016000F9040100F9040100F9040100F904010097
:10017000F9040100F9040100B1B30100F904010020
:10018000F904010089F9010089F90100F90401006D
:10019000F9040100F9040100F9040100F904010067
:1001A000F9040100F9040100F9040100F904010057
:1001B000F9040100F9040100F9040100F904010047
:1001C000F9040100F9040100F9040100F904010037
:1001D000F9040100F9040100F9040100F904010027
:1001E00009FE0100F9040100F9040100F90401000D
:1001F000F9040100F90401004DFE0100F9040100B9
:10020000F9040100F9040100F9040100F9040100F6
:10021000F9040100F9040100F9040100F9040100E6
:10022000F9040100F9040100F9040100F9040100D6
:10023000F9040100F9040100F9040100F9040100C6
:10024000F9040100F9040100F9040100F9040100B6
:10025000F9040100F9040100F9040100F9040100A6
:10026000F9040100F9040100F9040100F904010096
:10027000F9040100F9040100F9040100F904010086
:10028000F9040100F9040100F9040100F904010076
:10029000F9040100F9040100F9040100F904010066
:1002A000F9040100F9040100F9040100F904010056
:1002B000F9040100F9040100F9040100F904010046
:1002C000F9040100F9040100F9040100F904010036
:1002D000F9040100F9040100F9040100F904010026
:1002E000F9040100F9040100F9040100F904010016
:1002F000F9040100F9040100F9040100F904010006
:10030000F9040100F9040100F9040100F9040100F5
:10031000F9040100F9040100F9040100F9040100E5
:10032000F9040100F9040100F9040100F9040100D5
:10033000F9040100F9040100F9040100F9040100C5
:10034000F9040100F9040100F9040100F9040100B5
:10035000F9040100F9040100F9040100F9040100A5
:10036000F9040100F9040100F9040100F904010095
:10037000F9040100F9040100F9040100F904010085
:10038000F9040100F9040100F9040100F904010075
:10039000F9040100F9040100F9040100F904010065
:1003A000F9040100F9040100F9040100F904010055
:1003B000F9040100F9040100F9040100F904010045
:1003C000F9040100F9040100F9040100F904010035
:1003D000F9040100F9040100F9040100F904010025
:1003E000F9040100F9040100F9040100F904010015
:1003F000F9040100F9040100F9040100FFFFFFFF07
:10040000FFFFFFFFFFFFFFFFFFFFFFFFFE7FFFFF7D
:10041000214A224B136070471F4A204B13607047DC
:100420001F4A002313601C4A1C4B136070471C4A70
:1004300000231360184A194B1360704772B6194AAB
:10044000194B1370002282F30988184A136883F34A
:100450000888114A114B136062B6FEE772B6104865
:100460000068EFF3098222B118B1203A82E8F00F58
:1004700002600F4A1268126892E8F00F203282F38D
:1004800009880C4A62B61047EFF3108072B67047C5
:1004900080F310887047000004ED00E000000010B9
:1004A000CC02002022ED00E0000000003886FF1F93
:1004B000C8020020FDFFFFFF72B60B490A4A0A4B33
:1004C000094C094D084E084FB846B946BA46BB46D6
:1004D000BC4606488546064880470648804762B6BF
:1004E0000BF0A0FCFEE7000000000000006E002002
:1004F0000100020059000200FFF7FEBF81F0004139
:1005000002E000BF83F0004330B54FEA41044FEAF8
:10051000430594EA050F08BF90EA020F1FBF54EA93
:10052000000C55EA020C7FEA645C7FEA655C00F02F
:10053000E2804FEA5454D4EB5555B8BF6D420CDD00
:100540002C4480EA020281EA030382EA000083EA83
:10055000010180EA020281EA0303362D88BF30BD23
:1005600011F0004F4FEA01314FF4801C4CEA113179
:1005700002D0404261EB410113F0004F4FEA0333D8
:100580004CEA133302D0524263EB430394EA050F63
:1005900000F0A780A4F10104D5F1200E0DDB02FAD2
:1005A0000EFC22FA05F2801841F1000103FA0EF266
:1005B000801843FA05F359410EE0A5F120050EF12C
:1005C000200E012A03FA0EFC28BF4CF0020C43FA5D
:1005D00005F3C01851EBE37101F0004507D54FF06A
:1005E000000EDCF1000C7EEB00006EEB0101B1F5BA
:1005F000801F1BD3B1F5001F0CD349085FEA300000
:100600004FEA3C0C04F101044FEA445212F5800F0A
:1006100080F09A80BCF1004F08BF5FEA500C50F1A7
:10062000000041EB045141EA050130BD5FEA4C0C8A
:10063000404141EB010111F4801FA4F10104E9D113
:1006400091F0000F04BF01460020B1FA81F308BF0A
:100650002033A3F10B03B3F120020CDA0C3208DDD6
:1006600002F1140CC2F10C0201FA0CF021FA02F1B1
:100670000CE002F11402D8BFC2F1200C01FA02F121
:1006800020FA0CFCDCBF41EA0C019040E41AA2BF46
:1006900001EB0451294330BD6FEA04041F3C1CDA0E
:1006A0000C340EDC04F11404C4F1200220FA04F02E
:1006B00001FA02F340EA030021FA04F345EA0301D8
:1006C00030BDC4F10C04C4F1200220FA02F001FA9A
:1006D00004F340EA0300294630BD21FA04F029461C
:1006E00030BD94F0000F83F4801306BF81F48011B5
:1006F0000134013D4EE77FEA645C18BF7FEA655C28
:1007000029D094EA050F08BF90EA020F05D054EAF9
:10071000000C04BF1946104630BD91EA030F1EBFFE
:100720000021002030BD5FEA545C05D14000494102
:1007300028BF41F0004130BD14F580043CBF01F5F5
:10074000801130BD01F0004545F0FE4141F47001DB
:100750004FF0000030BD7FEA645C1ABF19461046B6
:100760007FEA655C1CBF0B46024650EA013406BFB7
:1007700052EA033591EA030F41F4002130BD00BF76
:1007800090F0000F04BF0021704730B54FF4806433
:1007900004F132044FF000054FF0000150E700BFB4
:1007A00090F0000F04BF0021704730B54FF4806413
:1007B00004F1320410F0004548BF40424FF0000100
:1007C0003EE700BF42004FEAE2014FEA31014FEA43
:1007D00002701FBF12F07F4393F07F4F81F0605192
:1007E000704792F0000F14BF93F07F4F704730B501
:1007F0004FF4607401F0004521F0004120E700BF94
:1008000050EA010208BF704730B54FF000050AE01A
:1008100050EA010208BF704730B511F0004502D51B
:10082000404261EB41014FF4806404F132045FEA1D
:10083000915C3FF4DCAE4FF003025FEADC0C18BFC2
:1008400003325FEADC0C18BF033202EBDC02C2F1B8
:10085000200300FA03FC20FA02F001FA03FE40EA4A
:100860000E0021FA02F11444C1E600BF70B54FF04A
:10087000FF0C4CF4E06C1CEA11541DBF1CEA13552C
:1008800094EA0C0F95EA0C0F00F0DEF82C4481EA94
:10089000030621EA4C5123EA4C5350EA013518BFB4
:1008A00052EA033541F4801143F4801338D0A0FBA1
:1008B00002CE4FF00005E1FB02E506F00042E0FB4E
:1008C00003E54FF00006E1FB03569CF0000F18BF54
:1008D0004EF0010EA4F1FF04B6F5007F64F54074FC
:1008E00004D25FEA4E0E6D4146EB060642EAC6218F
:1008F00041EA55514FEAC52040EA5E504FEACE2EFC
:10090000B4F1FD0C88BFBCF5E06F1ED8BEF1004FFE
:1009100008BF5FEA500E50F1000041EB045170BD7A
:1009200006F0004646EA010140EA020081EA0301BE
:10093000B4EB5C04C2BFD4EB0C0541EA045170BDBA
:1009400041F480114FF0000E013C00F3AB8014F134
:10095000360FDEBF002001F0004170BDC4F100047D
:10096000203C35DA0C341BDC04F11404C4F12005FE
:1009700000FA05F320FA04F001FA05F240EA020059
:1009800001F0004221F0004110EBD37021FA04F68F
:1009900042EB06015EEA430E08BF20EAD37070BD49
:1009A000C4F10C04C4F1200500FA04F320FA05F0A8
:1009B00001FA04F240EA020001F0004110EBD370AA
:1009C00041F100015EEA430E08BF20EAD37070BD1A
:1009D000C4F1200500FA05F24EEA020E20FA04F3F3
:1009E00001FA05F243EA020321FA04F001F00041A2
:1009F00021FA04F220EA020000EBD3705EEA430E13
:100A000008BF20EAD37070BD94F0000F0FD101F041
:100A10000046400041EB010111F4801F08BF013C7A
:100A2000F7D041EA060195F0000F18BF704703F0B8
:100A30000046520043EB030313F4801F08BF013D3F
:100A4000F7D043EA0603704794EA0C0F0CEA1355FB
:100A500018BF95EA0C0F0CD050EA410618BF52EAB5
:100A60004306D1D181EA030101F000414FF00000BB
:100A700070BD50EA410606BF1046194652EA4306C9
:100A800019D094EA0C0F02D150EA013613D195EA3D
:100A90000C0F05D152EA03361CBF104619460AD185
:100AA00081EA030101F0004141F0FE4141F470018F
:100AB0004FF0000070BD41F0FE4141F4780170BD7F
:100AC00070B54FF0FF0C4CF4E06C1CEA11541DBFE4
:100AD0001CEA135594EA0C0F95EA0C0F00F0A7F8E6
:100AE000A4EB050481EA030E52EA03354FEA013113
:100AF00000F088804FEA03334FF0805545EA131326
:100B000043EA12634FEA022245EA111545EA1065ED
:100B10004FEA00260EF000419D4208BF964244F184
:100B2000FD0404F5407402D25B084FEA3202B61AA3
:100B300065EB03055B084FEA32024FF480104FF477
:100B4000002CB6EB020E75EB030E22BFB61A7546EB
:100B500040EA0C005B084FEA3202B6EB020E75EB7E
:100B6000030E22BFB61A754640EA5C005B084FEAE6
:100B70003202B6EB020E75EB030E22BFB61A7546B3
:100B800040EA9C005B084FEA3202B6EB020E75EBBE
:100B9000030E22BFB61A754640EADC0055EA060E7F
:100BA00018D04FEA051545EA16754FEA06164FEAC2
:100BB000C30343EA52734FEAC2025FEA1C1CC0D16E
:100BC00011F4801F0BD141EA00014FF000004FF0FB
:100BD000004CB6E711F4801F04BF01430020B4F1BC
:100BE000FD0C88BFBCF5E06F3FF6AFAEB5EB030C74
:100BF00004BFB6EB020C5FEA500C50F1000041EB71
:100C0000045170BD0EF0004E4EEA113114EB5C043D
:100C1000C2BFD4EB0C0541EA045170BD41F4801110
:100C20004FF0000E013C90E645EA060E8DE60CEA18
:100C3000135594EA0C0F08BF95EA0C0F3FF43BAF35
:100C400094EA0C0F0AD150EA01347FF434AF95EAEC
:100C50000C0F7FF425AF104619462CE795EA0C0FD0
:100C600006D152EA03353FF4FDAE1046194622E79D
:100C700050EA410618BF52EA43067FF4C5AE50EA77
:100C800041047FF40DAF52EA43057FF4EBAE12E767
:100C900080B500AF1A4B1B78002B10D1184B0122E6
:100CA0001A700DF0BDFE0CF0C1FD0346002B03D001
:100CB000144B01221A7002E0124B02221A70114BDF
:100CC0001B78DBB2012B01D00DF060FA0D4B1B78C5
:100CD000DBB2012B04D0022B05D0002B0BD00BE094
:100CE0000CF00AFE08E00CF0A1FA0CF01DFC054B1C
:100CF00002221A7000E000BF07F000FF80BD00BFB5
:100D0000040000208003002080B500AF03F0ECFA5F
:100D100005F0FAF9012005F083F9274B93F83530F7
:100D2000032B01D105F0FAFF244B1A68244BA3FBD7
:100D300002131B09322101FB03F3D31A002B01D14B
:100D400000F092FC03F04EF903F0FCF8012003F0F0
:100D500035F909F047FB09F0D3FD1A4B1B78DBB2DC
:100D6000012B01D00EF044F9144B1A68144BA3FB6D
:100D700002135B09642101FB03F3D31A002B02D198
:100D8000002001F085FE0D4B1B6801330B4A1360F8
:100D90000D4B1B6801330C4A13600B4B1B68642B13
:100DA00007D14FF40B7002210EF0F4FE064B002227
:100DB0001A6007F0A3FE80BD74250020000000200B
:100DC0001F85EB51800300200800002080B500AF94
:100DD00007F094FE80BD00BF80B500AF0CF06CFA48
:100DE0000CF0AAFA0DF0CEFA07F088FE80BD00BF25
:100DF00080B483B000AF78600B46FB70FB78002BAB
:100E000004D17B684FF48032DA6074E0FB78012B08
:100E100004D17B684FF0FF32DA606CE0FB78022B84
:100E200004D17B684FF0FF32DA6064E0FB78032B7B
:100E300004D17B684FF40042DA605CE0FB78042B5D
:100E400003D17B680022DA6055E0FB78052B04D1E2
:100E50007B684FF0FF32DA604DE0FB78062B04D15F
:100E60007B684FF0FF32DA6045E0FB78072B04D156
:100E70007B684FF0FF32DA603DE0FB78082B03D14E
:100E80007B680022DA6036E0FB78092B04D17B68AE
:100E90004FF0FF32DA602EE0FB780A2B04D17B683A
:100EA0004FF48042DA6026E0FB780B2B04D17B689C
:100EB0004FF40042DA601EE0FB780C2B04D17B6813
:100EC0004FF48032DA6016E0FB780D2B04D17B689A
:100ED0004FF0FF32DA600EE0FB780E2B04D17B6816
:100EE0004FF0FF32DA6006E0FB780F2B03D17B680E
:100EF0004FF48032DA600C37BD465DF8047B7047F2
:100F000080B584B000AF786039600023FB817B68D6
:100F10001A683B681A607B685A683B685A607B684D
:100F20009A683B689A607B68DA683B681A617B68FC
:100F30001A693B689A610E4BDB6C03F470431B0B20
:100F40007B737B7B38681946FFF752FF3B68DB6891
:100F5000B3F5803F04D23B684FF480525A6102E0FF
:100F60003B6800225A61FB8918461037BD4680BD98
:100F70000080044080B588B000AFF860B9607A6046
:100F80000023FB837B687B61FB689B683B61BA68DD
:100F90003B699A4210D3FB68DA683B691A44BB6824
:100FA0009A4209D9BA683B69D31A03F50003BB60BA
:100FB0004FF40063BB611BE0FB681B683B61BA68D0
:100FC0003B699A420ED3FB685A683B691A44BB6876
:100FD0009A4207D9BA683B69D31ABB604FF4805371
:100FE000BB6105E00123FB8300237B610023BB6120
:100FF000BB695A1E7B691340002B01D00423FB837D
:1010000020E0164B70221A70144B0922DA71134A31
:10101000BB681B0CDBB29371104ABB681B0ADBB2C6
:1010200053710E4BBA68D2B21A71F8680FF0ECF82F
:101030000346FB837A69BB69D31A7B61BA68BB69D3
:101040001344BB607B69002B02D0FB8B002BD8D0F4
:10105000FB8B18462037BD4680BD00BF0000024014
:1010600080B586B000AFF860B9607A603B6000235D
:10107000FB827B6803F00703002B02D00423FB8272
:1010800065E0FB689B683B61BA683B699A420DD397
:10109000FB68DA683B691A44BB689A4206D9BA68A9
:1010A0003B69D31A03F50003BB6014E0FB681B68BF
:1010B0003B61BA683B699A420BD3FB685A683B694B
:1010C0001A44BB689A4204D9BA683B69D31ABB6018
:1010D00001E00123FB8234E01F4B70221A701E4B8B
:1010E0000722DA711C4ABB681B0CDBB293711A4AE7
:1010F000BB681B0ADBB25371174BBA68D2B21A71C4
:1011000000237B750CE07A7D144B13443B613B69F3
:101110007A7D39680A4412781A707B7D01337B75B9
:101120007B7D072BEFD9F8680FF06EF80346FB8242
:10113000BB680833BB607B68083B7B603B68083357
:101140003B607B68002B02D0FB8A002BC4D0FB8A5B
:1011500018461837BD4680BD000002400800024016
:1011600080B586B000AFF8607B600B46FB7213461B
:101170003B812A4B70221A70284B8122DA71274A50
:10118000FB7A9371FB7A552B09D1244A3B891B0AC0
:101190009BB2DBB2D372214B3A89D2B29A72F86811
:1011A0000FF032F80346FB82FB7A772B31D1FB8AB2
:1011B000002B2ED17B68002B02D10123FB8228E07B
:1011C000164B9B7ADAB27B681A70144BDB7BDBB26E
:1011D0009BB21B029AB27B689A80104B9B7BDBB25E
:1011E0009BB27A68928813439AB27B689A800B4BC1
:1011F0005B7ADBB29BB21B029AB27B685A80074BC8
:101200001B7ADBB29BB27A68528813439AB27B682E
:101210005A80FB8A18461837BD4680BD0000024040
:1012200080B487B000AFF860B9601346FB7100234B
:10123000FB82FB79012B03D1FB68BA6812781A7024
:10124000FB79022B0ED1BB6801331B781B023B617B
:10125000BB681B781A463B6913433B61FB683A69DC
:1012600092B21A80FB79042B1BD1BB6803331B7825
:101270001B063B61BB6802331B781B043A691343AE
:101280003B61BB6801331B781B023A6913433B6126
:10129000BB681B781A463B6913433B61FB683A699C
:1012A0001A6000BF0B4B5B78DBB203F00103002B2D
:1012B000F8D0084B1B78DBB203F07103002B01D090
:1012C0000123FB82FB8A18461C37BD465DF8047B70
:1012D000704700BF0000024080B586B000AFF860E4
:1012E000B9607A603B600023FB82294B5B78DBB2FC
:1012F00003F00103002B44D0FB681A69BB689A42D3
:1013000009D8BA687B681A44FB681969FB685B698D
:101310000B449A4201D90123FB822BE0BB6803F006
:101320000303002B05D17B68032B02D904237B75B3
:101330000CE0BB6803F00103002B05D17B68012B97
:1013400002D902237B7501E001237B757B7DB868A0
:1013500039681A46FFF764FF0346FB827B7DBA6853
:101360001344BB607B7D7A68D31A7B607B7D3A68CF
:1013700013443B607B68002B05D0FB8A002BCDD04B
:1013800001E00423FB82FB8A18461837BD4680BD66
:101390000000024080B584B000AF78600846114676
:1013A0001A460346FB700B46BB7013467B70134B0B
:1013B00070221A70114B8022DA71104A7B78937177
:1013C0000E4A3B7E002B01D0012300E00023537125
:1013D0000A4A3B7F83F00103DBB21371074AFB78B3
:1013E000D372064ABB78937278680EF00DFF0346FD
:1013F000FB81FB8918461037BD4680BD00000240C6
:1014000080B584B000AF786039600023FB81012390
:101410007B73384A3B685360364B01221A727B68F3
:101420009A79344B1A707B68DA79324B5A700420FF
:1014300000F022F90346FB81FB89002B05D17B6874
:10144000184600F059F80346FB81FB89002B06D1B2
:101450007B680633184600F095F80346FB81FB894C
:10146000002B07D17B685B7A1846002100F074F9E5
:101470000346FB81FB89002B06D17B680A331846A3
:1014800000F0ACF90346FB81FB89002B06D17B6899
:101490001B7B184600F0C6F90346FB81FB89002B35
:1014A00006D17B680D33184600F0DCF90346FB815A
:1014B000FB89002B06D17B682833184600F038FAE8
:1014C0000346FB81FB89002B06D17B681B7A1846FB
:1014D00000F0D2F80346FB8107F10D03184600F037
:1014E00013F9044B00221A72FB8918461037BD46C7
:1014F00080BD00BF1C00002080B586B000AF7860C2
:101500000023FB820023BB827B683B613B691A7826
:101510003B695B781343DAB23B699B781343DBB2D8
:10152000FB7207F10B0310201946002200F0A8FB04
:101530000346BB820023FB72BB8A002B16D17B685B
:101540000333FB60FB681A78FB685B781343DAB2FD
:10155000FB689B781343DBB2FB7207F10B031C2083
:101560001946002200F08CFB0346BB82BB8A002B8D
:1015700002D040F60103FB82FB8A18461837BD46AD
:1015800080BD00BF80B584B000AF78600023FB81D0
:101590000023BB810023FB72324B1A787B681B78D7
:1015A0009A4209D12F4B5A787B685B789A4203D1D3
:1015B0002C4B1B7A002B08D00123FB7207F10A0386
:1015C000184600F0A1F80346FB81FB7A002B11D0EE
:1015D000FB89002B0ED1BB7A042B0BD0042000F02A
:1015E0004BF80346FB8107F10903184600F08CF81D
:1015F0000346FB81FB89002B0FD17B681A787B683F
:101600005B781343DBB23B7207F1080300201946F5
:10161000002200F035FB0346BB81FB7A002B16D07D
:10162000BB89002B13D1FB89002B10D1BB7A042B73
:101630000DD0BB7A184600F01FF80346FB817B688B
:101640001A78084B1A707B685A78064B5A70BB8917
:10165000002B02D040F60103FB81FB8918461037AE
:10166000BD4680BD1C00002080B500AF0148FFF7DB
:1016700089FF80BD1C00002080B588B000AF034604
:10168000FB710023FB830023BB83FB79FB76FB7993
:10169000012B05D0FB79042B02D0FB79072B18D145
:1016A000FB79012B02D0FB79042B11D107F1080340
:1016B000184600F061F90346FB83FB8B002B07D132
:1016C00007F10803184600F037FA0346FB8303E0EE
:1016D00002E040F60203FB83FB8B002B08D107F1ED
:1016E0001B0301201946002200F0CAFA0346BB83FF
:1016F000BB8B002B02D040F60103FB83FB8B18460B
:101700002037BD4680BD00BF80B584B000AF786093
:101710000023FB810023BB810023FB7207F10B0335
:10172000012000211A4600F0ABFA0346BB81BB89B9
:10173000002B05D1FB7A03F00703DAB27B681A703D
:10174000BB89002B02D040F60103FB81FB891846C0
:101750001037BD4680BD00BF80B584B000AF0346E2
:101760003960FB710023FB810023BB81FB79002BD7
:1017700002D0FB79042B22D1FB79FB723B68002B52
:1017800013D03B681B78002B03D03B681B78032BDE
:101790000BD83B681B78DBB203F00303DAB2FB7AA9
:1017A000DBB21343DBB2DBB2FB7207F10B030220A7
:1017B0001946002200F064FA0346BB8102E040F6BD
:1017C0000203FB81BB89002B02D040F60103FB81A1
:1017D000FB8918461037BD4680BD00BF80B584B078
:1017E00000AF78600023FB810023BB817B681A78FF
:1017F0007B685B781343DBB2FB7207F10B030420B9
:101800001946002200F03CFA0346BB81BB89002B3D
:1018100002D040F60103FB81FB8918461037BD4614
:1018200080BD00BF80B584B000AF0346FB710023CC
:10183000FB810023BB81FB79FB7207F10B030A20BC
:101840001946002200F01CFA0346BB81BB89002B1D
:1018500002D040F60103FB81FB8918461037BD46D4
:1018600080BD00BF80B586B000AF78600023FB82EA
:101870000023BB827B683B610023FB72BB8A002B89
:1018800018D17B680433FB60FB681A78FB685B78CF
:101890001343DAB2FB689B781343DBB2FB7207F1A8
:1018A0000B0323201946002200F0EAF90346BB820D
:1018B0000023FB72BB8A002B0BD17B68DB79FB72A8
:1018C00007F10B0326201946002200F0D9F9034640
:1018D000BB82BB8A002B04D1786800F025FA03464E
:1018E000BB82BB8A002B17D13B691A783B695B78B6
:1018F0001343DAB23B699B781343DAB23B69DB7876
:101900001343DBB2FB7207F10B03202019460022C0
:1019100000F0B6F90346BB82BB8A002B02D040F62A
:101920000103FB82FB8A18461837BD4680BD00BF05
:1019300080B584B000AF78600023FB810023BB81B9
:101940007B681A787B685B781343DBB2FB7207F124
:101950000B034C201946002200F092F90346BB818C
:10196000BB89002B02D040F60103FB81FB8918469E
:101970001037BD4680BD00BF80B58AB000AF78602B
:101980000023FB840023BB84786800F033FA002333
:10199000FB7307F10F03602000211A4600F070F975
:1019A0000346BB847B683B62BB8C002B17D1FB7B5F
:1019B00003F00803DAB23B6A1A70FB7B03F00403FE
:1019C000DAB23B6A5A70FB7B03F00203DAB23B6A7D
:1019D0009A70FB7B03F00103DAB23B6ADA700023F2
:1019E000FB733B6ADB78012B26D107F10F036120E3
:1019F00000211A4600F044F90346BB84BB8C002B3F
:101A00001AD17B680433FB61FB7B03F01003DAB26D
:101A1000FB691A70FB7B03F00403DAB2FB695A70AE
:101A2000FB7B03F00203DAB2FB699A70FB7B03F0E5
:101A30000103DAB2FB69DA700023FB733B6A9B781F
:101A4000022B20D107F10F03622000211A4600F07B
:101A500017F90346BB84BB8C002B14D17B68083379
:101A6000BB61FB7B03F00403DAB2BB691A70FB7B3A
:101A700003F00203DAB2BB695A70FB7B03F0010387
:101A8000DAB2BB699A700023FB733B6A5B78042B64
:101A900026D107F10F03632000211A4600F0F0F869
:101AA0000346BB84BB8C002B1AD17B680B337B6154
:101AB000FB7B03F02003DAB27B691A70FB7B03F037
:101AC0001003DAB27B695A70FB7B03F00203DAB2CF
:101AD0007B699A70FB7B03F00103DAB27B69DA70F1
:101AE0000023FB733B6A1B78082B1AD107F10F0305
:101AF000642000211A4600F0C3F80346BB84BB8C67
:101B0000002B0ED17B680F333B61FB7B03F002039C
:101B1000DAB23B691A70FB7B03F00103DAB23B696E
:101B20005A70BB8C002B02D040F60103FB84FB8C67
:101B300018462837BD4680BD80B58AB000AF7860B2
:101B40000023FB840023BB840023FB737B683B6280
:101B50003B6A9A783B6ADB781343DAB23B6A5B787C
:101B60001343DAB23B6A1B781343DBB2FB7307F112
:101B70000F0360201946002200F082F80346BB8460
:101B8000FA8CBB8C1343FB847B680433FB61FB69D9
:101B90005A78FB691B781343DAB2FB699B781343CD
:101BA000DAB2FB69DB781343DBB2FB7307F10F0397
:101BB00061201946002200F063F80346BB84FA8CCA
:101BC000BB8C1343FB847B680833BB61BB699A7889
:101BD000BB691B781343DAB2BB695B781343DBB292
:101BE000FB7307F10F0362201946002200F048F84A
:101BF0000346BB84FA8CBB8C1343FB847B680B339A
:101C00007B617B695A787B699B781343DAB27B6985
:101C1000DB781343DAB27B691B781343DBB2FB73C7
:101C200007F10F0363201946002200F029F803464C
:101C3000BB84FA8CBB8C1343FB847B680F333B6102
:101C40003B695A783B691B781343DBB2FB7307F19E
:101C50000F0364201946002200F012F80346BB84EB
:101C6000FA8CBB8C1343FB84FB8C002B02D040F618
:101C70000103FB84FB8C18462837BD4680BD00BF9E
:101C800080B588B000AF0346B9607A60FB7300236B
:101C9000FB8300233B7500237B7500237B770023A8
:101CA0003B7400237B7400237B8300233B83BB684E
:101CB000002B04D101237B7700233B7502E0BB6836
:101CC0001B783B75FB7B5B00DAB27B7F1343DBB297
:101CD0007B757B7D9BB21B029AB23B7D9BB213440A
:101CE0007B837B8B18460DF027FA0DF041FA0346F3
:101CF0003B833B8B1B0A9BB2DBB27B743B8BDBB21F
:101D00003B747A7C7B7D9A4202D040F60103FB83D0
:101D10007B68002B02D03A7C7B681A70FB8B1846DC
:101D20002037BD4680BD00BF80B586B000AF78606B
:101D30000023FB820023FB7300237B7537E07B7D50
:101D4000032B1FD87B7D2733D9B27B7D08337A687C
:101D50001344084619460022FFF792FF0346FB8210
:101D6000FB8A002B0ED17B7D2B33D9B27B7D0833D0
:101D70007A6813440433084619460022FFF780FFAF
:101D80000346FB82FB8A002B0ED17B7D6833D9B2E0
:101D90007B7D10337A6813440333084619460022CA
:101DA000FFF76EFF0346FB827B7D01337B757B7DF6
:101DB000072BC4D9FB8A002B16D17B6810333B61FB
:101DC0003B691A783B695B781343DAB23B699B78CD
:101DD0001343DBB2FB7307F10F032F2019460022D8
:101DE000FFF74EFF0346FB82FB8A18461837BD46B5
:101DF00080BD00BF80B483B000AF78607B680022F4
:101E00001A717B6800225A717B6800229A717B6884
:101E10000022DA717B6800221A727B6800225A72F3
:101E20007B6800229A727B680022DA727B6800224B
:101E30001A737B6800225A737B6800229A737B684E
:101E40000022DA737B6800221A740C37BD465DF8F5
:101E5000047B704780B485B000AF7860FF23FB73CC
:101E60000023BB7343E0BB7B7A681344BA7B796879
:101E70000A441178FA7B4A40D2B21A7000237B736D
:101E80002AE0BB7B7A6813441B78DBB25BB2002B81
:101E900015DABB7B7A681344BA7B79680A441278F6
:101EA0005200D2B21A70BB7B7A681344BA7B79684D
:101EB0000A44127882F02F02D2B21A7009E0BB7B7A
:101EC0007A681344BA7B79680A4412785200D2B215
:101ED0001A707B7B01337B737B7B072BD1D9BB7B58
:101EE0007A6813441B78FB73BB7B0133BB73BB7BEA
:101EF000012BB8D9FB7BDB43FB73FB7B1846143704
:101F0000BD465DF8047B704780B584B000AF786053
:101F10000023FB810023BB810023FB7207F10B032D
:101F2000732000211A46FFF7ABFE0346BB81BB8935
:101F3000002B17D1FB7A03F03003DAB27B681A70FA
:101F40007B680133FA7A02F00802D2B21A700023D9
:101F5000FB7207F10B03742000211A46FFF790FE75
:101F60000346BB81BB89002B1BD17B680233FA7A05
:101F700002F03002D2B21A707B680333FA7A02F0B0
:101F80000802D2B21A707B680433FA7A02F00402B3
:101F9000D2B21A707B680533FA7A02F00102D2B22B
:101FA0001A70BB89002B02D040F60103FB81FB892C
:101FB00018461037BD4680BD80B584B000AF78604C
:101FC0000023FB8100233B7300237B737B681A781B
:101FD0007B6801331B781343DBB23B7307F10C03BF
:101FE000732019460022FFF74BFE0346FB81FB8955
:101FF000002B1CD17B6802331A787B6803331B7873
:102000001343DAB27B6804331B781343DAB27B687C
:1020100005331B781343DBB27B7307F10C030133E9
:10202000742019460022FFF72BFE0346FB81FB8933
:10203000002B0FD107F10C031846FFF70BFF0346E7
:10204000FB7207F10B03752019460022FFF718FEFB
:102050000346FB81FB8918461037BD4680BD00BF93
:1020600080B584B000AF0023FB8113480221FFF745
:10207000C7F90346FB810DF0BDFE3B461846FFF74E
:1020800043FF0346FB81FB78082B05D03B79002BEF
:1020900002D07B79012B0BD10023FB7004233B7111
:1020A00000237B713B461846FFF786FF0346FB8102
:1020B0001037BD4680BD00BFEC03020080B483B082
:1020C00000AF0346FB71084997F907305B09FA79BD
:1020D00002F01F02012000FA02F241F823200C371F
:1020E000BD465DF8047B704700E100E080B400AFBE
:1020F000084B1B68002B09DD064B1B68013B054A9A
:102100001360044B1B68002B00DC62B6BD465DF813
:10211000047B70472800002080B400AF72B6044BE7
:102120001B680133024A1360BD465DF8047B7047AB
:102130002800002080B485B000AF0346FB71002367
:10214000FB60FB795B00FB71FB790A4A1344DB7986
:102150001946FB790133074A1344DB791B029BB212
:102160000B43FB60FB6818461437BD465DF8047BE3
:10217000704700BF2C24002080B485B000AF034618
:10218000FB710023FB60FB799B00FB71FB79124A1A
:102190001344DB791946FB7901330F4A1344DB7989
:1021A0001B029BB241EA0302FB7902330A490B444A
:1021B000DB791B0403F47F031A43FB7903330649DD
:1021C0000B44DB791B061343FB60FB68184614378E
:1021D000BD465DF8047B70472C24002080B483B09A
:1021E00000AF03463960FB71FB795B00FB71FB7943
:1021F0003A68D1B2084A13440A461A74FB7901338B
:102200003A68120AD1B2044A13440A461A740C37C7
:10221000BD465DF8047B70472C24002080B483B059
:1022200000AF03463960FB71FB799B00FB71FB79C2
:102230003A68D1B2114A13440A461A74FB79013341
:102240003A68120AD1B20D4A13440A461A74FB794D
:1022500002333A68120CD1B2084A13440A461A747F
:10226000FB7903333A68120ED1B2044A13440A468A
:102270001A740C37BD465DF8047B70472C2400208F
:1022800080B483B000AF78600B467B8013467B70D0
:1022900008E07B687A781A707B6801337B607B8802
:1022A000013B7B807B88002BF3D10C37BD465DF86A
:1022B000047B704780B582B000AF78600B467B80AE
:1022C0007B88786819460022FFF7DAFF0837BD4699
:1022D00080BD00BF80B485B000AFF860B960134620
:1022E000FB710CE0BB681A78FB681A70FB6801335D
:1022F000FB60BB680133BB60FB79013BFB71FB7981
:10230000002BEFD11437BD465DF8047B704700BF4A
:1023100080B485B000AF03463960FB7111E03B68C3
:102320001B78FB730C4B1B68FA7B1A700A4B1B68FB
:102330000133094A13603B6801333B60FB79013B81
:10234000FB71FB79002BEAD1012318461437BD46F7
:102350005DF8047B704700BF2C24002080B483B05C
:1023600000AF03463960FB710FE00D4B1B681A7814
:102370003B681A703B6801333B60094B1B680133B3
:10238000074A1360FB79013BFB71FB79002BECD111
:10239000012318460C37BD465DF8047B704700BF2B
:1023A0002C24002080B400AF044B00221A60044BA0
:1023B00000221A60BD465DF8047B70472C000020A7
:1023C0003000002080B584B000AF786039607B6851
:1023D000FB60F86801F068FE1037BD4680BD00BFA5
:1023E00080B586B000AFF860B9601346FB71BB687A
:1023F0003B613B6923F00702234B1B689A420CD0D8
:10240000224B1B68002B08DD1F4B1A681F4B1B68F3
:10241000104619461E4A01F039FE3B6903F00703D6
:102420001A4A13603B6923F00703174A136000231D
:10243000FB7520E0154B1B685A1C14490A60FA7D95
:10244000F9680A441178124AD154104B1B68082BC2
:102450000ED10D4B1B68184608210D4A01F016FEDF
:102460000A4B00221A60084B1B680833064A1360A7
:10247000FB7D0133FB75FA7DFB799A42DAD30123A8
:1024800018461837BD4680BD2C00002030000020C3
:102490002424002080B500AF054B1B68002B06DD0F
:1024A000044B1B6818460821034A01F0EFFD80BD6C
:1024B000300000202C0000202424002080B400AF35
:1024C000054B002283F83921034B002283F83A217F
:1024D000BD465DF8047B70472C24002080B582B097
:1024E00000AF1F4B93F83C3103F07003002B32D147
:1024F0001B4B93F83931002B2DD001F0C1FD184B47
:1025000093F83A315A1CD1B2154A82F83A11FB714C
:10251000134B93F83A21124B93F838319A4203D374
:102520000F4B002283F83A210D4B93F83931013BD0
:10253000DAB20B4B83F8392101F09CFD084BD3F83C
:102540003411FA791346DB0013440B44184600F0AB
:1025500009F8012300E0002318460837BD4680BD76
:102560002C24002080B582B000AF78607B680133F6
:10257000184600F0F5FB0837BD4680BD80B500AFBA
:10258000134B5B7923F04003DAB2114B5A71104BB5
:10259000002283F820210E4B002283F821210C4BCE
:1025A0000022A3F822210A4B0022C3F82421084B61
:1025B0000022C3F82821064B0022C3F82C2105482D
:1025C0004FF48071FFF776FEFFF778FF80BD00BF04
:1025D0002C2400204C24002080B483B000AF424B58
:1025E00093F820319BB21A46520013445B009AB212
:1025F0003D4B93F821319BB29B009BB213449AB29E
:10260000394BB3F82231194689000B449BB213446D
:10261000FB80FB880333FB80FB88FF2B01D9302331
:102620005CE0314B93F820311A4613465B001344AB
:102630005B0020332C4A1344013323F001031A4674
:10264000294BC3F82421284BD3F82421264B93F897
:1026500021319B001344033323F003031A46224B1A
:10266000C3F82821204BD3F828211F4BB3F822317F
:102670009B0013441C4AC2F82C311B4BD3F82C315D
:10268000194AB2F822211344013323F001031A46F8
:10269000154BC3F83421FB88C3F58073134A82FBC2
:1026A00003125210DB17D31ADAB20F4B83F838211A
:1026B0000D4B93F83831DBB25BB2002B03DA0A4BD7
:1026C0007F2283F83821084B93F83821064B93F882
:1026D00021319A4201D2302300E0002318460C3702
:1026E000BD465DF8047B70472C240020398EE3380A
:1026F00080B582B000AF0346FB710B4B93F82131DC
:10270000002B04D1084BB3F82231002B01D0292330
:1027100006E0054AFB7982F82031FFF75DFF0346AA
:1027200018460837BD4680BD2C24002080B582B0F5
:1027300000AF03460A46FB711346BB71214B93F869
:102740002031002B04D01F4BB3F82231002B01D0D5
:10275000292332E01B4B93F821311A46BB79C3F190
:10276000FB039A4201DD302327E0FA79154B93F8F9
:102770002101144913465B0013445B000B442033D2
:1027800002465A700F4B93F82121BB791344DAB2F9
:102790000C4B83F82121FA790A4B93F82131013B44
:1027A000D8B2084913465B0013445B000B44203346
:1027B00002461A70FFF710FF034618460837BD4659
:1027C00080BD00BF2C24002080B584B000AF03463C
:1027D000FB710B46BB7113467B71264B93F820317E
:1027E000002B04D0234B93F82131002B01D1292356
:1027F0003CE0204BB3F822311A467B79C3F57F4386
:10280000FF339A4201DD302330E0FA79194913464B
:102810005B0013445B000B4420335B78FB73154B68
:10282000D3F82421F97BBB790B449B001344114A54
:10283000B2F822211A800F4BB3F822217B799BB288
:1028400013449AB20B4BA3F822210A4BD3F824214C
:10285000F97BBB790B449B001344064AB2F8222152
:10286000013A92B25A80FFF7B7FE03461846103776
:10287000BD4680BD2C24002080B483B000AF034649
:10288000FB71FA79F97915480B465B000B445B0044
:10289000034420339B7843F00103D8B20F49134619
:1028A0005B0013445B000B44203302469A70FA79B4
:1028B0000A4913465B0013445B000B44203301229A
:1028C0005A71064B5B7943F04003DAB2034B5A71FD
:1028D0000C37BD465DF8047B704700BF2C240020F8
:1028E00080B582B000AF0023FB7129E0FA79194965
:1028F00013465B0013445B000B4420339B7803F0CA
:102900000103002B19D0FA79F97912480B465B00C4
:102910000B445B00034420339B7823F00103D8B2BF
:102920000C4913465B0013445B000B442033024602
:102930009A70FB791846FFF79FFFFB790133FB7113
:10294000044B93F82031FA799A42CFD30837BD4629
:1029500080BD00BF2C24002080B584B000AF0346AA
:10296000FB71FA79174913465B0013445B000B4473
:10297000203300229A700023FB7310E0FA7B114988
:1029800013465B0013445B000B4420339B7803F039
:102990000103002B00D011E0FB7B0133FB73094BDB
:1029A00093F82031FA7B9A42E8D3064B5B7923F007
:1029B0004003DAB2034B5A71FFF780FD1037BD4672
:1029C00080BD00BF2C24002080B582B000AF002362
:1029D000FB7129E0FA79194913465B0013445B0047
:1029E0000B4420339B7803F00103002B19D0FB79B3
:1029F0001846FFF7B1FFFA79F97910480B465B00EA
:102A00000B445B00034420339B7823F00103D8B2CE
:102A10000A4913465B0013445B000B442033024613
:102A20009A70FB790133FB71044B93F82031FA79EA
:102A30009A42CFD30837BD4680BD00BF2C2400206A
:102A400080B582B000AF0023FB710CE0FA790F492A
:102A500013465B0013445B000B44203300229A7042
:102A6000FB790133FB71094B93F82031FA799A42D3
:102A7000ECD3064B5B7923F04003DAB2034B5A7177
:102A8000FFF71CFD0837BD4680BD00BF2C24002089
:102A900090B589B000AF0346FB710023FB77AF4BC5
:102AA0005B7903F04003002B01D1002351E10023A7
:102AB000FB7541E1FA7DA94913465B0013445B00B5
:102AC0000B4420339B7803F00103002B00D130E14D
:102AD000FA7DA24913465B0013445B000B4420338C
:102AE000DB78FA799A4200D023E1FA7D9B491346BC
:102AF0005B0013445B000B4420335B79013BD8B28D
:102B0000964913465B0013445B000B442033014697
:102B10005971924913465B0013445B000B44203308
:102B20005B79002B00D104E1FA7DF97D8B480B46DF
:102B30005B000B445B00034420331879874913463C
:102B40005B0013445B000B44203302465A71834BF5
:102B500093F839311846FA7D804913465B001344D7
:102B60005B000B4420331B781C46FA7D7B491346DF
:102B70005B0013445B000B4420335B78E31A0133A2
:102B80000344764A92F8382193421ADBFB7F43F0E4
:102B90000203FB77FA7DF97D70480B465B000B441E
:102BA0005B00034420339B7843F00803D8B26B49A1
:102BB00013465B0013445B000B44203302469A70BB
:102BC000B7E0FA7D654913465B0013445B000B4494
:102BD00020335B78BB759FE0FB7F43F00103FB77FD
:102BE0005E4BD3F834115D4B93F83A311A465B4B88
:102BF00093F839311344594A92F8382193FBF2F093
:102C000002FB00F29B1A1A461346DB0013440B44E6
:102C10003B61524B93F839310133DAB24F4B83F8B1
:102C200039213B69BA7D5A700123FB73FA7D4B4908
:102C300013465B0013445B000B4420339B7803F086
:102C40000803002B1CD03B695B7863F07F03DAB28A
:102C50003B695A70FA7DF97D40480B465B000B4496
:102C60005B00034420339B7823F00803D8B23B4930
:102C700013465B0013445B000B44203302469A70FA
:102C8000364BD3F82421BB7D9B0013441B88BB83A8
:102C9000324BD3F82C21BB8B13441B78002B00D173
:102CA00037E02E4BD3F82421BB7D9B0013445B8877
:102CB000BB81FB7B3A6913440133BB611EE0274BA8
:102CC000D3F82C21BB8B13441B78FB72FB7A002BAF
:102CD00000D117E0214BD3F82821BB8B9B00134474
:102CE0001A68FB7AB86911461A46FFF7F3FAFB7ABD
:102CF000BA691344BB61BB8B0133BB83BA8BBB89FD
:102D00009A42DCD9BB693A6901329B1ADAB23B6953
:102D10001A70BB7D0133BB75FA7D104913465B0009
:102D200013445B000B4420331B78BA7D9A427FF634
:102D300053AFFB7D0133FB75084B93F82031FA7DCF
:102D40009A42FFF4B7AEFB7F002B01D000F030F8C1
:102D5000FB7F18462437BD4690BD00BF2C240020C1
:102D600080B588B000AF786040F2AB73BB600823D9
:102D7000BB7300237B7300233B730023FB770CE0C2
:102D8000FB7FFA7F79680A44127807F120010B442F
:102D900003F8112CFB7F0133FB77FB7F072BEFD967
:102DA00007F10803184601F091F92037BD4680BDB0
:102DB00080B500AF01F084F980BD00BF80B485B05C
:102DC00000AF78607B68002B00D121E07B681B6836
:102DD00040F2AA7293421BD1104B93F83B31002B67
:102DE00000D015E00023FB730BE0FB7BFA7B7968D6
:102DF0000A44D179094A13440A46DA71FB7B01334C
:102E0000FB73FB7B072BF0D9044B012283F83B219A
:102E10001437BD465DF8047B704700BF2C240020AA
:102E200080B400AF034BD3F840311846BD465DF87F
:102E3000047B70472C24002080B483B000AF7860FE
:102E40000B46FB707B68054A1360044AFB781371DC
:102E50000C37BD465DF8047B704700BF2C24002072
:102E600080B500AF044B5B7923F02003DAB2024B4C
:102E70005A71FFF7E5FD80BD2C24002080B500AF1E
:102E8000054B93F83C3143F00103DAB2024B83F86F
:102E90003C21FFF78DFF80BD2C24002080B582B03F
:102EA00000AF0346FB71074B0222DA73054BFE228B
:102EB0001A74044AFB795374FFF7E0FF0837BD46E4
:102EC00080BD00BF2C24002080B500AFFFF7D6FFE7
:102ED00080BD00BF80B500AF214B5B79DBB25BB238
:102EE000002B05DBFFF74AFB1D4B002283F83C213A
:102EF0001B4B00225A761A4B20225A71184BFF2284
:102F00001A74174B0122DA75154B01229A75144B6E
:102F10000822DA7402200821FFF760F9104B012221
:102F20005A740F4B5B7C43F01003DAB20C4B5A74AB
:102F30000B4B5B7C43F00403DAB2094B5A74084B29
:102F400000229A74064B9B7C63F07F03DAB2044B39
:102F50009A74034B0822DA73FFF7B6FF80BD00BFF7
:102F60002C24002080B500AFFFF77AFF044BFF222E
:102F70001A74034B0122DA73FFF7A6FF80BD00BF6E
:102F80002C24002080B500AF094BFF221A74084B97
:102F90005A79074B5A74064B00229A74022000217A
:102FA000FFF71CF9024B0622DA73FFF78DFF80BD95
:102FB0002C24002080B500AF054BFE221A74044B70
:102FC00000225A74024B0222DA73FFF77DFF80BDA4
:102FD0002C24002080B500AF0B4BFF221A740A4B43
:102FE0001522DA75084B00229A74074B00229A7555
:102FF000054B00221A75044B00225A75024B082219
:10300000DA73FFF761FF80BD2C24002080B500AF8C
:103010000E4BFF221A740D4B00225A74012000211E
:10302000FFF7FCF8094B1B7A012B08D10120032183
:10303000FFF7F4F8064B18460021FFF7FDFE034B9F
:103040000822DA73FFF740FF80BD00BF2C24002068
:10305000D885FF1F80B500AF0120FFF78DF802462D
:10306000054B9B7A10461946FFF7E6FE024B0822F5
:10307000DA73FFF729FF80BD2C24002080B582B0D1
:1030800000AF114B1B7AFB71FB79072B03D9222070
:10309000FFF704FF14E00C4BFF221A74FB7918466B
:1030A0000A49FFF75BF90346BB71FB790133DAB2DA
:1030B000054BDA73BB79022B00D101E0FFF704FF67
:1030C0000837BD4680BD00BF2C2400203D240020D1
:1030D00080B582B000AF164B1B7A072B03D9222094
:1030E000FFF7DCFE20E0124BFF221A740120FFF7ED
:1030F00043F802460E4B9B7A10461946FFF79CFE9A
:103100000B4B1B7A18460B49FFF728F90346FB7156
:10311000074B1B7A0133DAB2054BDA73FB79022BCA
:1031200000D101E0FFF7D0FE0837BD4680BD00BFEB
:103130002C2400203D24002080B582B000AF154B28
:103140000022DA830120FFF717F878607B689AB2D3
:10315000104B9A837B681B0C1B04002B03D022208E
:10316000FFF79CFE12E000F05BFF0A4BFF221A748F
:10317000084B02225A74074BDB8B01201946FFF7DC
:103180004DF8044B0822DA73FFF79EFE0837BD4660
:1031900080BD00BF2C24002080B582B000AF174B4B
:1031A0001B7AFB71FB79062B03D92220FFF776FEF1
:1031B00020E0FB7918461249FFF7AAF80346BB71D5
:1031C000BB79022B00D115E0BB79002B03D1232062
:1031D000FFF764FE0EE0BB79032B03D12120FFF73C
:1031E0005DFE07E0054BFF221A74044B0122DA73DF
:1031F000FFF76AFE0837BD4680BD00BF2C240020C3
:103200003524002080B582B000AF07201049FFF7B9
:103210007FF80346FB71FB79022B00D115E0FB79A7
:10322000002B03D12320FFF739FE0EE0FB79032B9F
:1032300003D12120FFF732FE07E0064BFF221A746C
:10324000044B0122DA73FFF73FFE0837BD4680BD0D
:10325000342400202C24002080B500AF164B5B7A6C
:10326000002B03D02820FFF719FE23E0124B9B7A96
:10327000002B03D02620FFF711FE1BE00E4B1B7A1C
:10328000012B07D00C4B1B7A022B03D02720FFF712
:1032900005FE0FE0084B5B7A1946074B9A7A064BFE
:1032A0000B44DA76044BFF221A74034B0422DA73C0
:1032B000FFF70AFE80BD00BF2C24002080B500AFC0
:1032C000124B5B7A002B03D02820FFF7E7FD1BE0B1
:1032D0000E4B1B7A012B07D00C4B1B7A022B03D011
:1032E0002720FFF7DBFD0FE0084B5B7A1A46074B00
:1032F0001344DA7E054BDA74044BFF221A74034B35
:103300000422DA73FFF7E0FD80BD00BF2C2400200B
:1033100080B500AF074BFF221A74064B01225A7486
:10332000044B00229A74034B0322DA73FFF7CCFD9F
:1033300080BD00BF2C24002080B500AF564B5B7AC7
:10334000002B03D02220FFF7A9FDA4E0524BFF225F
:103350001A74514B1B7A002B03D101200021FEF778
:103360005DFF4D4B1B7A012B29D14B4B5B7A1946E4
:103370004A4A0B469B000B449B0013441A78464B69
:103380005A74454B5B7A1946444A0B469B000B44E2
:103390009B0013449A78404B9A743F4B5B7A1946D2
:1033A0003E4A0B469B000B449B001344DA783A4B91
:1033B000DA74394B00221A75374B00225A75364B96
:1033C0001B7A022B62D1344B5B7A1946334A0B4687
:1033D0009B000B449B001344DA782F4BDB7A9A4214
:1033E00003D32220FFF75AFD55E02B4B9B7A002B8D
:1033F00016D1294B5B7A1846274BDB7A27491A46A8
:1034000052001A4493001A4603469B0003449B0053
:1034100013440B4408331B6801201946FEF7FEFED7
:103420001D4B9B7A012B16D11B4B5B7A18461A4B0E
:10343000DB7A1A491A4652001A4493001A46034688
:103440009B0003449B0013440B4408335B6801203A
:103450001946FEF7E3FE104B9B7A022B16D10E4B5A
:103460005B7A18460C4BDB7A0C491A4652001A4418
:1034700093001A4603469B0003449B0013440B44ED
:1034800010331B6801201946FEF7C8FE024B0822C4
:10349000DA73FFF719FD80BD2C240020E885FF1F9B
:1034A00080B500AF0B4B5B7A002B03D1094B9B7AA5
:1034B000002B03D02220FFF7F1FC0AE0054BFF228E
:1034C0001A74044B00225A74024B0322DA73FFF77A
:1034D000FBFC80BD2C24002080B500AF084B5B7A3C
:1034E000002B03D02220FFF7D9FC07E0044BFF227A
:1034F0001A74034B0122DA73FFF7E6FC80BD00BFAC
:103500002C24002080B500AF094B5B7A002B03D040
:103510002220FFF7C3FC0AE0054BFF221A74044B7C
:1035200000229A74024B0322DA73FFF7CDFC80BDB0
:103530002C24002080B500AF044BFF221A74034BEB
:103540000122DA73FFF7C0FC80BD00BF2C240020ED
:1035500090B583B000AF0120FEF7ECFD0346FB7190
:10356000304BDB7ABB712F4B1B7B7B71FA792D497A
:1035700013465B0013445B000B4420335A78BB793D
:1035800013443B71274B93F82031FA799A422BD29E
:10359000B979FA79234813465B0013445B0003446E
:1035A00020331B781C46FA791E4813465B001344EF
:1035B0005B00034420335B78E31A0133994213DA4A
:1035C0007A79184BD3F824113B799B000B445B8824
:1035D0001846144BD3F824113B799B000B441B88ED
:1035E000C31A01339A4203DB2220FFF757FC15E090
:1035F0000C4BD3F824213B799B0013441A887B7928
:103600009BB213449AB2074BA3F83021054BFF221B
:103610001A74044B0122DA73FFF756FC0C37BD46CF
:1036200090BD00BF2C24002098B500AF194B5B7AE9
:10363000002B03D0174B5B7A072B03D92220FFF70F
:103640002DFC26E0134BD3F82C31124AB2F830216E
:103650001344104A527A1A700E4BD3F828210D4B9E
:10366000B3F830319B00D4180120FEF785FD0346E6
:103670002360084BB3F8303101339AB2054BA3F8FD
:103680003021044BFF221A74024B0122DA73FFF738
:103690001BFC98BD2C24002080B582B000AF012017
:1036A000FEF748FD0346FB711D4B93F82031FA7974
:1036B0009A4203D32220FFF7F1FB2DE0184BFF22A3
:1036C0001A74FA79164913465B0013445B000B44E5
:1036D00020339A78124B5A74FA79114913465B00D9
:1036E00013445B000B4420331A790D4B9A75FA7919
:1036F0000B4913465B0013445B000B442033DB781B
:1037000002201946FEF76AFD054B0022DA75044BCC
:103710000822DA73FFF7D8FB0837BD4680BD00BF2B
:103720002C24002080B582B000AF0120FEF702FDFE
:103730000346BB71284B5B7BFB710220FEF7FAFC52
:1037400003467B71244B93F82031BA799A4203D314
:103750002220FFF7A3FB3BE07B79002B03D0222044
:10376000FFF79CFB34E01C4B9B7B002B03D02220FB
:10377000FFF794FB2CE0FB79002B01D10123FB71B7
:10378000BA79154913465B0013445B000B442033A0
:10379000FA791A71BA79104913465B0013445B0039
:1037A0000B4420337A79DA70BA790B4B187A0A49CC
:1037B00013465B0013445B000B44203302469A70AF
:1037C000054BFF221A74044B0122DA73FFF77CFBCE
:1037D0000837BD4680BD00BF2C24002080B582B0D4
:1037E00000AF0120FEF7A6FC0346FB71284B93F8BF
:1037F0002031FA799A4203D32220FFF74FFB43E0AE
:10380000234B1B7A012B03D0214B1B7A022B2FD188
:10381000FA79F9791E480B465B000B445B000344C0
:1038200020339B7843F00103D8B2194913465B005B
:1038300013445B000B44203302469A70144B1B7AEE
:10384000012B03D1FB791846FFF716F8104BFF2226
:103850001A74FA790E4913465B0013445B000B445B
:1038600020335A780A4B5A74094B0222DA7309E062
:10387000FB791846FFF770F8054BFF221A74044BCA
:103880000122DA73FFF720FB0837BD4680BD00BF79
:103890002C24002080B500AF0C4B1B7A022B02D1E8
:1038A000FFF792F808E0094B1B7A012B02D1FFF7D2
:1038B00017F801E0FFF7C4F8044BFF221A74034B1A
:1038C0000122DA73FFF700FB80BD00BF2C2400202B
:1038D00080B500AF074BFF221A74FFF7A1FA034629
:1038E00001201946FEF79AFC024B0822DA73FFF713
:1038F000EBFA80BD2C24002080B500AF0E4BFF22D8
:103900001A740D4B00229A750B4B93F8203101204D
:103910001946FEF763FC02200121FEF75FFC064B0F
:103920000022DA75044B43225A74034B0822DA73DF
:10393000FFF7CAFA80BD00BF2C24002080B500AF7D
:103940000D4BFF221A740C4B01225A740A4B0122B0
:10395000DA74094B07229A74074B07221A75064B33
:1039600000225A7503200021FEF738FC024B082282
:10397000DA73FFF7A9FA80BD2C24002080B582B04D
:1039800000AF0120FEF7D6FB0346FB80FB88002B2F
:1039900003D02220FFF782FA3DE0204B0722DA73A2
:1039A0001E4BFF221A74FA881D4913465B0013440C
:1039B0009B000B4408339A78184B5A74174B01221A
:1039C0009A74FA88164913465B0013449B000B4413
:1039D00008331A78114BDA74FA88114913465B00E0
:1039E00013449B000B4408335A780C4B1A750B4B4D
:1039F00006225A75094B00229A75FA88084913461F
:103A00005B0013449B000B445B6818460021FFF7E2
:103A100013FAFFF759FA0837BD4680BD2C24002061
:103A2000DC85FF1F80B500AFFEF7A8FD044BFF2229
:103A30001A74034B0122DA73FFF746FA80BD00BF08
:103A40002C24002080B582B000AF0120FEF772FB6D
:103A50000346FB80FB88DBB21846FEF749FE0346AF
:103A60007B717B79002B04D07B791846FFF716FA1F
:103A700007E0054BFF221A74034B0122DA73FFF7AC
:103A800023FA0837BD4680BD2C24002080B582B0C3
:103A900000AF0120FEF74EFB0346FB71134BDB7AB0
:103AA000BB71124B93F82031FA799A4203D322204A
:103AB000FFF7F4F917E0FA79BB7910461946FEF7DB
:103AC00035FE03467B717B79002B04D07B79184649
:103AD000FFF7E4F907E0054BFF221A74034B0122BC
:103AE000DA73FFF7F1F90837BD4680BD2C240020BA
:103AF00090B583B000AF0120FEF71CFB0346FB71BD
:103B0000224BDB7ABB71214B1B7B7B711F4B93F8E4
:103B10002031FA799A4217D2B979FA791B481346BB
:103B20005B0013445B00034420331B781C46FA7986
:103B3000164813465B0013445B00034420335B7854
:103B4000E31A0133994203DB2220FFF7A7F919E0BA
:103B5000F979BA797B79084611461A46FEF734FEA0
:103B600003463B713B79002B04D03B791846FFF7A5
:103B700095F907E0054BFF221A74044B0122DA7312
:103B8000FFF7A2F90C37BD4690BD00BF2C240020E2
:103B900080B500AFFEF706FC0D4B01229A760C4B68
:103BA000FF221A740A4B0822DA74094B00229A7415
:103BB000074B00221A75064B00225A75044B00224F
:103BC0009A75034B0722DA73FFF77EF980BD00BFB9
:103BD0002C24002098B500AF114B9B7E012B03D005
:103BE0003120FFF75BF91AE00D4B1B68B3F5C01FDE
:103BF00003D32220FFF752F911E0094B1C68012082
:103C0000FEF7BAFA034620461946FEF7DBFB044BE3
:103C1000FF221A74024B0122DA73FFF755F998BD9F
:103C20002C24002080B582B000AF1E4B9B7E012B60
:103C300003D03120FFF732F930E01A4B1B68194AE4
:103C4000127A1344B3F5C01F03D32220FFF726F9DD
:103C500024E0144B1A68134B1B7A134811461A467A
:103C6000FEF7BEFB0346FB71FB79042B03D130202A
:103C7000FFF714F912E0FB79022B00D10EE0094B9B
:103C80001B68084A127A1344064A1360054BFF2248
:103C90001A74044B0122DA73FFF716F90837BD4690
:103CA00080BD00BF2C2400203524002080B500AF4B
:103CB0000A4B9B7E012B03D03120FFF7EFF80CE07D
:103CC000FEF7E8FB054B00229A76044BFF221A749C
:103CD000024B0122DA73FFF7F7F880BD2C24002095
:103CE00080B500AF044BFF221A74034B0122DA7334
:103CF000FFF7EAF880BD00BF2C24002080B582B019
:103D000000AF00F085F90346FB71FB79022B00D16F
:103D100008E0FB79032B03D12120FFF7BFF801E076
:103D2000FFF7D2F80837BD4680BD00BF80B500AFB1
:103D3000834BDB79FF2B02D1FFF7CCF8FFE0804B00
:103D40005B7903F02003002B00D1F8E07C4B93F863
:103D50003C3103F01103002B09D0FFF729F8784B11
:103D60005B7943F01003DAB2754B5A71E7E0744B9C
:103D7000DB79CC3B322B00F2DE8001A252F823F03B
:103D80002B3F0100373F0100373F0100253F010075
:103D90001F3F0100193F0100133F01000D3F0100CB
:103DA000073F0100013F0100FB3E0100F53E01001D
:103DB000373F0100EF3E0100E93E0100373F0100BF
:103DC000E33E0100DD3E0100D73E0100CB3E010095
:103DD000D13E0100C53E0100BF3E0100373F01005A
:103DE000B93E0100B33E0100AD3E0100A73E010017
:103DF000A13E01009B3E0100953E01008F3E010067
:103E0000373F0100373F0100893E0100373F010085
:103E1000833E0100313F0100373F01007D3E01003C
:103E2000773E0100713E01006B3E0100373F01000B
:103E3000373F0100373F0100653E01005F3E010052
:103E4000593E0100533E01004D3E0100FFF78AF844
:103E500075E0FFF797F872E0FFF7ACF86FE0FFF757
:103E6000B9F86CE0FFF7D2F869E0FFF7F3F866E025
:103E7000FFF704F963E0FFF72BF960E0FFF75CF967
:103E80005DE0FFF789F95AE0FFF7BCF957E0FFF76B
:103E9000E3F954E0FFF712FA51E0FFF739FA4EE088
:103EA000FFF74AFA4BE0FFF7FBFA48E0FFF714FB95
:103EB00045E0FFF727FB42E0FFF73CFB3FE0FFF761
:103EC00047FB3CE0FFF7B0FB39E0FFF7E5FB36E0EE
:103ED000FFF728FC33E0FFF781FC30E0FFF7DAFC66
:103EE0002DE0FFF7F5FC2AE0FFF706FD27E0FFF7DE
:103EF00025FD24E0FFF742FD21E0FFF793FD1EE0E2
:103F0000FFF7A0FD1BE0FFF7C1FD18E0FFF7F0FD94
:103F100015E0FFF73DFE12E0FFF75CFE0FE0FFF754
:103F200081FE0CE0FFF7C2FE09E0FFF7D9FE06E0D4
:103F3000FFF7E4FE03E02020FEF7B0FF00BF80BDE6
:103F40002C24002080B500AF1A4B93F83C3123F0AD
:103F50007003DAB2174B83F83C21164B93F83C31CF
:103F600003F00103002B0CD0124B93F83C3123F0EB
:103F70000103DAB20F4B83F83C210F48FEF7F0FE45
:103F800007E00C4B5B7903F04003002B01D0FEF7F8
:103F9000A5FA084B5B7903F04003002B06D0054BD4
:103FA00093F83931002B01D0012300E0002318469B
:103FB00080BD00BF2C2400203C24002080B483B0AE
:103FC00000AF7860064BD3F840217B681344044A65
:103FD000C2F840310C37BD465DF8047B704700BF26
:103FE0002C24002080B500AF084B93F83B31002B08
:103FF0000BD0064BD3F84031044AC2F84431FFF7E6
:1040000095FE024B002283F83B2180BD2C2400202A
:1040100080B400AF00231846BD465DF8047B7047AE
:1040200080B483B000AF124B9B8BFB80104B9B8BFB
:10403000002B01D1002315E00D4BDA8B0C4B1B68D4
:104040001B789BB213449AB2094BDA83084B1B6866
:104050000133074A1360FB88013BFB80FB88002B80
:10406000EAD1002318460C37BD465DF8047B704743
:104070002C24002080B400AFBD465DF8047B70475F
:1040800080B400AFBD465DF8047B704780B485B056
:1040900000AFF860B9607A60002318461437BD4657
:1040A0005DF8047B704700BF80B483B000AF7860D8
:1040B000002318460C37BD465DF8047B704700BFEF
:1040C00080B400AFBD465DF8047B704780B582B018
:1040D00000AF786078680BF0B3FB00231846083710
:1040E000BD4680BD80B400AF024B1846BD465DF8AA
:1040F000047B7047B402002080B400AF024B184626
:10410000BD465DF8047B7047BC02002080B400AF60
:10411000064B074A1A60054B00229A80034B002287
:10412000DA80BD465DF8047B704700BFB402002012
:104130003400002080B400AF064B074A1A60054BDC
:1041400000229A80034B0022DA80BD465DF8047B92
:10415000704700BFBC020020B400002080B582B0D0
:1041600000AF00237B6007E0104A7B681344002205
:104170001A707B6801337B607B687F2BF4D9002346
:104180007B6007E00A4A7B68134400221A707B6850
:1041900001337B607B68B3F5007FF3D3FFF7B6FF95
:1041A000FFF7C8FF0837BD4680BD00BF34000020C0
:1041B000B400002080B584B000AF78600023FB73AA
:1041C00019E0154B1968FA7B13465B0013449B00FA
:1041D0000B441A687B689A420AD10F4B1968FA7B24
:1041E00013465B0013449B000B44BB60BB680EE0AE
:1041F000FB7B0133FB73084B1B79FA7B9A42E0D3BC
:10420000042001210122002301F01CFF0023184695
:104210001037BD4680BD00BFF005020080B584B0F8
:1042200000AFF8600B467A607B810D4B9B7B002BC7
:104230000AD1FFF757FF02467B681A607B681B684C
:104240007A899A80002306E0054B9B7B012B01D1E4
:10425000022300E0012318461037BD4680BD00BF91
:104260007425002080B483B000AF78600B46FB70EB
:10427000074B9B7B002B05D1054A7B681362044BDF
:1042800001229A7300BF0C37BD465DF8047B70476E
:104290007425002080B584B000AF786002F010FD76
:1042A000F860104BDB69002B16D00E4BDA69FB6807
:1042B0009A4211D80B4BDB69FA68D31A41F2883263
:1042C000934209D9074B00225A76064B01229A766F
:1042D000044B002283F82420002318461037BD46E3
:1042E00080BD00BF7425002080B500AF084B1B6A5D
:1042F0001846FFF7CFFF064B9B7B012B07D1044BE2
:1043000002229A73024B1B6A184600F067F980BDBF
:104310007425002080B483B000AF78600B46FB703A
:10432000FB78002B02D1044B00229A7300BF0C379C
:10433000BD465DF8047B70477425002080B500AF52
:10434000FFF70CFF1848002138220BF00AFF164B2C
:1043500000225A76144B01229A76134B00229A734C
:10436000114B00225A73104B0022DA730E4B0022BD
:1043700083F824200C4B002283F8252002F0A0FCB7
:104380000246094BDA61084B00229A62064B002272
:10439000DA62054B002283F83420034B00221A63B3
:1043A000014B00221A7480BD7425002080B584B0B2
:1043B00000AF78600B46FB700023FB737868FFF753
:1043C000F9FEB860BB68002B01D1002319E000237F
:1043D000FB7310E0BB685968FA7B13465B0013441B
:1043E0009B000B441B78FA789A4201D1012308E024
:1043F000FB7B0133FB73BB681B7AFA7B9A42E9D3E0
:10440000002318461037BD4680BD00BF80B588B078
:1044100000AF78600B46FB700023FB770023BB776F
:104420007868FFF7C7FEB861FFF75CFE7861BB698B
:10443000002B01D1002372E00023FB7769E0BB6908
:104440005968FA7F13465B0013449B000B443B61A1
:104450003B691B78FA789A4258D13B695B88002BFC
:104460002DD0FB782E2B13D17B699B88022B01D892
:10447000002354E07B691B6801331B781B029AB24E
:104480007B691B6802331B789BB213439BB2BB83CF
:10449000FB78312B13D17B699B88032B01D8002338
:1044A0003DE07B691B6802331B781B029AB27B6973
:1044B0001B6803331B789BB213439BB2BB833B69DE
:1044C0005B88002B04D03B695B88BA8B9A421DD174
:1044D0003B695B68FB60FB68002B01D101231EE098
:1044E0000023BB770CE0BB7FFA6813441A780E4BAD
:1044F0005B7E9A4201D1012311E0BB7F0133BB7780
:10450000BB7FFA6813441B78002BECD1FB7F01338F
:10451000FB77BB691B7AFA7F9A4290D30023184637
:104520002037BD4680BD00BF7425002080B586B011
:1045300000AF78600B46FB700023FB750023BB7552
:104540007868FFF737FE38613B69002B01D1002303
:104550003EE00023FB7535E03B695968FA7D134660
:104560005B0013449B000B441B78FA789A4226D1D7
:104570003B695968FA7D13465B0013449B000B446A
:104580009B68FB60FB68002B01D1012320E0002326
:10459000BB750CE0BB7DFA6813441A780E4B9B7E0A
:1045A0009A4201D1012313E0BB7D0133BB75BB7D72
:1045B000FA6813441B78002BECD1002308E0FB7D44
:1045C0000133FB753B691B7AFA7D9A42C4D3002301
:1045D00018461837BD4680BD7425002080B582B0CE
:1045E00000AF78600C4B1B7878681946FFF7DEFE49
:1045F0000346012B04D1786800F038F8034607E041
:10460000054B1B78184611217A6801F069FB0123DC
:1046100018460837BD4680BD3400002080B584B000
:1046200000AF786002F04CFBF8600F4BDB69002BA9
:1046300012D00D4BDA69FB689A420DD80A4BDB6940
:10464000FA68D31A41F28832934205D9064B002208
:104650005A76054B01229A76034AFB68D361002300
:1046600018461037BD4680BD7425002080B582B045
:1046700000AF78607868FFF7D1FF184B1B78786837
:104680001946FFF753FF0346002B08D1134B1B7845
:10469000184611217A6801F023FB012319E00F4B22
:1046A0001B7878681946FFF7B1FE0346002B08D146
:1046B0000A4B1B78184633217A6801F011FB01235D
:1046C00007E0074B012283F82420786801F04EFBB5
:1046D000002318460837BD4680BD00BF34000020C7
:1046E0007425002080B586B000AF7860FFF704FD28
:1046F0007861FFF7F7FC38613B699B88022B05D096
:104700003E2013217A6801F0EBFA39E03B691B681F
:104710005B78FB73FB7B002B08D0FB7B802B05D0E9
:104720003E2012217A6801F0DBFA29E002F036FA25
:10473000FB7B5BB2002B1EDB7B6900229A807B69CE
:104740001A687B699B88591C88B2796988801344F0
:104750007E221A707B691A687B699B88591C88B213
:1047600079698880134400221A707B699B881846F7
:1047700001F078FA03E000200021FFF7CBFD00BF35
:104780001837BD4680BD00BF80B588B000AF7860E7
:10479000FFF7B2FCB861FFF7A5FC7861594B9B6845
:1047A0003B617B691B685B78FB737B699B88022B91
:1047B00005D0102013217A6801F092FA9EE0FB7B6D
:1047C00003F07F03BB730023FB830AE0FB8B3A6992
:1047D00013441B78BA7B9A4200D108E0FB8B01336B
:1047E000FB83FB8B3A6913441B78002BEED1FB8BC8
:1047F0003A6913441B78002B05D1102012217A68E6
:1048000001F06EFA7AE0404B9B7E022B08D1BB7B15
:10481000032B05D1102022217A6801F061FA6DE0A6
:10482000394B9B7E012B08D1BB7B022B05D110207D
:1048300022217A6801F054FA60E0334B0022DA73E7
:10484000314B00225A73304ABB7B9376FB7B5BB2C1
:10485000002B4ADBBB6900229A80BB691A68BB69DE
:104860009B88591C88B2B9698880134450221A70F9
:10487000BB691A68BB699B88591C88B2B969888072
:104880001344FA7B1A70BB691A68BB699B88591C70
:1048900088B2B9698880134400221A70BB691A680B
:1048A000BB699B88591C88B2B9698880134432223D
:1048B0001A70BB691A68BB699B88591C88B2B969B0
:1048C0008880134401221A70BB691A68BB699B88EF
:1048D000591C88B2B96988801344F4221A70BB69E4
:1048E0009B88184601F0BEF903E000200021FFF785
:1048F00011FDBB7B184602F025FA00BF2037BD46EC
:1049000080BD00BFF00502007425002080B586B090
:1049100000AF7860FFF7F0FB7861FFF7E3FB3861E9
:104920003B699B88022B05D0852013217A6801F012
:10493000D7F948E03B691B685B78FB73FB7B03F0AE
:104940007F03BB73BB7B012B08D0BB7B022B05D045
:10495000852012217A6801F0C3F934E0BB7B184648
:1049600002F022F90346002B05D0852022217A6827
:1049700001F0B6F927E0FB7B5BB2002B1EDB7B6905
:1049800000229A807B691A687B699B88591C88B2CF
:10499000796988801344C5221A707B691A687B691B
:1049A0009B88591C88B2796988801344BA7B1A7035
:1049B0007B699B88184601F055F903E0002000212F
:1049C000FFF7A8FC00BF1837BD4680BD80B586B094
:1049D00000AF7860FFF790FB7861FFF783FB3861E9
:1049E0003B699B88012B05D8872013217A6801F049
:1049F00077F94FE03B691B685B78FB73FB7B03F047
:104A00007F03BB73BB7B012B0BD0BB7B022B08D07E
:104A1000BB7B032B05D0872012217A6801F060F957
:104A200038E03B691B680233BA7B1046194602F036
:104A3000CDF80346002B05D0872022217A6801F0AB
:104A40004FF927E0FB7B5BB2002B1EDB7B6900226A
:104A50009A807B691A687B699B88591C88B279693E
:104A600088801344C7221A707B691A687B699B8807
:104A7000591C88B2796988801344BA7B1A707B69A3
:104A80009B88184601F0EEF803E000200021FFF7B4
:104A900041FC00BF1837BD4680BD00BF80B586B061
:104AA00000AF7860FFF728FB7861FFF71BFB3861E8
:104AB0003B699B88032B05D0282013217A6801F0DD
:104AC0000FF964E03B691B685B78FB73FB7BBB738E
:104AD000BB7B002B0ED0BB7B012B0BD0BB7B022BF7
:104AE00008D0BB7B032B05D0282012217A6801F067
:104AF000F7F84CE03B691B689B787B737B7B012B51
:104B00000BD07B7B022B08D07B7B032B05D028208E
:104B100031217A6801F0E4F839E03B691B6802331F
:104B20001B78BA7B1046194603F02AFD0346002B7A
:104B300005D0282022217A6801F0D2F827E0FB7BFB
:104B40005BB2002B1EDB7B6900229A807B691A68AE
:104B50007B699B88591C88B27969888013446822D4
:104B60001A707B691A687B699B88591C88B27969BD
:104B700088801344BA7B1A707B699B88184601F0C1
:104B800071F803E000200021FFF7C4FB00BF1837D5
:104B9000BD4680BD80B586B000AF7860FFF7ACFA47
:104BA0007861FFF79FFA38613B691B685B78FB739C
:104BB0003B699B88022B05D0112013217A6801F0F4
:104BC0008FF831E0FB7B012B0BD0FB7B022B08D055
:104BD000FB7B032B05D0112012217A6801F080F8AD
:104BE00022E07B6900229A807B691A687B699B8836
:104BF000591C88B279698880134451221A707B69E4
:104C00001A687B699B88591C88B27969888013442B
:104C1000FA7B1A707B699B88184601F023F8FB7BAE
:104C2000184601F0E1FF00BF1837BD4680BD00BF48
:104C300080B588B000AF786000237B730023BB771A
:104C4000FFF75AFAB861FFF74DFA78617B699B88E4
:104C5000012B05D8272013217A6801F041F832E1B1
:104C60007B691B685B78BB77BB6900229A80BB6954
:104C70001A68BB699B88591C88B2B969888013443B
:104C800067221A70BB691A68BB699B88591C88B275
:104C9000B96988801344BA7F1A7002F011F838613C
:104CA0008A4B1B7C002B28D0884B93F83430012B87
:104CB00023D1864B1A6B3B699A4218D2834B1B6BEC
:104CC0003A69D31A42F21072934210D97F4B0022F4
:104CD000DA737E4B1B7C013BDAB27C4B1A747B4B44
:104CE00000221A63794B002283F8342005E0272044
:104CF00037217A6800F0F4FFE5E0BB7F012B05D097
:104D0000BB7F032B02D0BB7F052B71D17B699B88B6
:104D1000022B05D0272013217A6800F0E1FFD2E0B2
:104D20006A4BDB7B012B05D1272024217A6800F018
:104D3000D7FFC8E0654B5B7EBA7F9A421DD1042342
:104D40007B730023FB7709E0BB691B68FA7F0232A3
:104D5000134400221A70FB7F0133FB777B7BFA7FC1
:104D60009A42F1D3BB699A887B7B9BB213449AB277
:104D7000BB699A800023BB7339E0BB7FFB737B69FF
:104D80001B68991CBB691B689A1CF87B07F10D0313
:104D900001F03AFF0346BB73BB7B002B20D10023FD
:104DA000FB770DE0FB7FBA691268F97F02310A4494
:104DB0001178464A13440A465A74FB7F0133FB7745
:104DC0007B7BFA7F9A42EDD3BB699A887B7B9BB24F
:104DD00013449AB2BB699A803C4B0122DA7306E015
:104DE000BB7B272019467A6800F07AFF6BE064E00D
:104DF000BB7F022B05D0BB7F042B02D0BB7F062BD1
:104E000055D17B699B88062B05D0272013217A6812
:104E100000F066FF57E02D4BDB7B012B41D1BB7FC0
:104E2000013BFB737B691B680233FA7B1046284900
:104E30001A4601F065FE0346002B10D1234AFB7B86
:104E40005376224B00221A74204B00221A631F4B08
:104E5000002283F834201D4B0022DA732DE01B4B17
:104E60001B7C0133DAB2194B1A74184B0022DA7327
:104E7000164B1B7C012B05D8272035217A6800F0C2
:104E80002FFF20E0114B012283F8342001F018FF9E
:104E900002460E4B1A63272036217A6800F020FF65
:104EA00011E0272024217A6800F01AFF0BE0272068
:104EB00012217A6800F014FF05E0BB699B88184650
:104EC00000F0D0FE00BF2037BD4680BD7425002015
:104ED0008525002080B586B000AF7860FFF70CF91B
:104EE0007861FFF7FFF838613B699B88032B05D099
:104EF000222013217A6800F0F3FE5AE03B691B6818
:104F000001331B781B029AB23B691B6802331B7882
:104F10009BB213439BB2FB817B691B68DA1CF98946
:104F200007F10C03084611461A4602F0E3FF034658
:104F30007B737B7B002B35D17B6900229A807B6958
:104F40001A687B699B88591C88B2796988801344E8
:104F500062221A707B691A687B699B88591C88B227
:104F60007969888013443A69126852781A707B69AB
:104F70001A687B699B88591C88B2796988801344B8
:104F80003A69126892781A707B699A883B7B9BB267
:104F900013449AB27B699A807B699B88184600F01B
:104FA00061FE05E07B7B222019467A6800F098FEBE
:104FB00000BF1837BD4680BD80B586B000AF7860B1
:104FC000FFF79AF87861FFF78DF838613B699B88A5
:104FD000032B05D82E2013217A6800F081FE55E0BE
:104FE0003B691B6801331B781B029AB23B691B6843
:104FF00002331B789BB213439BB2FB813B691B6856
:10500000DA1C3B699B88DBB2033BDBB2F9890846BB
:1050100011461A4603F0ECF903467B737B7B002BA9
:105020002DD17B6900229A807B691A687B699B88F5
:10503000591C88B27969888013446E221A707B6982
:105040001A687B699B88591C88B2796988801344E7
:10505000FA89120A92B2D2B21A707B691A687B6915
:105060009B88591C88B2796988801344FA89D2B226
:105070001A707B699B88184600F0F4FD05E07B7B85
:105080002E2019467A6800F02BFE00BF1837BD4667
:1050900080BD00BF80B586B000AF786000237B6123
:1050A000FFF72AF83861FFF71DF8F860FB689B8866
:1050B000042B05D0142013217A6800F011FE41E082
:1050C000FB681B6801331B781A04FB681B680233FA
:1050D0001B781B021344FA681268033212781344D7
:1050E0007B617B69002B0AD07B696FF07F42934222
:1050F00005D0142031217A6800F0F2FD22E07869B1
:1051000002F0B4FA0346FB72FB7A002B13D13B6921
:1051100000229A803B691A683B699B88591C88B2B7
:1051200039698880134454221A703B699B88184659
:1051300000F098FD05E0FB7A142019467A6800F02B
:10514000CFFD00BF1837BD4680BD00BF80B588B019
:1051500000AF7860FEF7D0FFB861FEF7C3FF78615B
:105160000023FB7700233B817B699B88012B05D8BB
:10517000192013217A6800F0B3FDF0E27B691B6807
:105180005B78FB74BB6900229A80BB691A68BB69B3
:105190009B88591C88B2B9698880134459221A70B7
:1051A000BB691A68BB699B88591C88B2B969888039
:1051B0001344FA7C1A70FB7C013B142B00F2B28280
:1051C00001A252F823F000BF1D52010085520100D8
:1051D000D75201000753010079530100B553010074
:1051E0000F5401007B540100D15401003B550100D4
:1051F00081550100C75501000D56010053560100AD
:1052000025570100255701002557010025570100AA
:105210002557010099560100DF5601007B699B88E4
:10522000032B05D0192013217A6800F059FD96E26E
:105230007B691B689B78BB74BB691A68BB699B88D8
:10524000591C88B2B9698880134409221A70BB6955
:105250001A68BB699B88591C88B2B9698880134455
:1052600001221A70BB691B68BA6992881A44B97C1A
:1052700007F10803084611461A4602F059FA034698
:10528000FB7755E27B699B88032B05D019201321FE
:105290007A6800F025FD62E27B691B689B78BB742D
:1052A000BB691A68BB699B88591C88B2B969888038
:1052B000134409221A70BB691B68BA6992881A44A0
:1052C000B97C07F10803084611461A4602F064FA51
:1052D0000346FB772CE27B699B88022B05D01920C3
:1052E00013217A6800F0FCFC39E2BB691B68BA69DB
:1052F00092881A4407F108031046194602F0A0FAF2
:105300000346FB7714E27B699B88062B05D01920A6
:1053100013217A6800F0E4FC21E27B691B68023308
:105320001B781A047B691B6803331B781B02134329
:105330007A691268043212781343FB607B691B6838
:105340005B79FB72FB7A012B08D0FB7AFF2B05D02F
:10535000192031217A6800F0C3FC00E2BB691B68A8
:10536000BA6992881A44F97A07F10803F86802F0DA
:10537000BDFA0346FB77DBE17B699B88032B05D0F5
:10538000192013217A6800F0ABFCE8E17B691B6807
:105390009B78FB72BB691B68BA6992881A44F97AD8
:1053A00007F10803084611461A4602F015FB0346AA
:1053B000FB77BDE17B699B88062B05D01920132163
:1053C0007A6800F08DFCCAE17B691B6802331B78A8
:1053D0001A047B691B6803331B781B0213437A6929
:1053E0001268043212781343FB607B691B685B7997
:1053F000FB72BB691B68BA6992881A44F97A07F193
:105400000803F86802F0F6FA0346FB7790E17B693F
:105410009B88042B05D0192013217A6800F060FCCA
:105420009DE17B691B689B78BB727B691B68DB789D
:10543000BB74BB691A68BB699B88591C88B2B9697F
:105440008880134409221A70BB691A68BB699B885B
:10545000591C88B2B9698880134401221A70B87A3D
:10546000BB691B68BA6992881A44B97C07F10803C2
:1054700002F070FB0346FB775AE17B699B88042BA3
:1054800005D0192013217A6800F02AFC67E17B69B6
:105490001B689B78BB727B691B68DB78BB74BB693C
:1054A0001A68BB699B88591C88B2B9698880134403
:1054B00009221A70B87ABB691B68BA6992881A44C3
:1054C000B97C07F1080302F097FB0346FB772FE155
:1054D0007B699B88052B05D0192013217A6800F081
:1054E000FFFB3CE17B691B6802331B781A047B6974
:1054F0001B6803331B781B0213437A69126804325A
:1055000012781343FB60BB691A68BB699B88591CFE
:1055100088B2B9698880134409221A70BB691B6874
:10552000BA6992881A4407F10803F86811461A46C6
:1055300002F0EEFB0346FB77FAE07B699B88022BC7
:1055400005D0192013217A6800F0CAFB07E1BB6976
:105550001A68BB699B88591C88B2B9698880134452
:1055600009221A70BB691B68BA6992881A4407F14C
:1055700008031046194602F029FC0346FB77D7E0E2
:105580007B699B88022B05D0192013217A6800F0D3
:10559000A7FBE4E0BB691A68BB699B88591C88B209
:1055A000B9698880134409221A70BB691B68BA69FB
:1055B00092881A4407F108031046194602F052FC7B
:1055C0000346FB77B4E07B699B88022B05D019204A
:1055D00013217A6800F084FBC1E0BB691A68BB69DB
:1055E0009B88591C88B2B9698880134409221A70B3
:1055F000BB691B68BA6992881A4407F10803104610
:10560000194602F03BFC0346FB7791E07B699B88DF
:10561000022B05D0192013217A6800F061FB9EE06F
:10562000BB691A68BB699B88591C88B2B9698880B4
:10563000134409221A70BB691B68BA6992881A441C
:1056400007F108031046194602F024FC0346FB77D5
:105650006EE07B699B88022B05D0192013217A68A4
:1056600000F03EFB7BE0BB691A68BB699B88591C54
:1056700088B2B9698880134409221A70BB691B6813
:10568000BA6992881A4407F108031046194602F0D5
:105690000DFC0346FB774BE07B699B88022B05D012
:1056A000192013217A6800F01BFB58E0BB691A68C7
:1056B000BB699B88591C88B2B96988801344092248
:1056C0001A70BB691B68BA6992881A4407F108030B
:1056D0001046194602F0F6FB0346FB7728E07B698B
:1056E0009B88022B05D0192013217A6800F0F8FA64
:1056F00035E0BB691A68BB699B88591C88B2B969D7
:105700008880134409221A70BB691B68BA699288A1
:105710001A4407F108031046194602F0DFFB03465E
:10572000FB7705E0192012217A6800F0D9FA16E01B
:10573000FB7F002B0CD1BB699A883B8913449AB23A
:10574000BB699A80BB699B88184600F08BFA05E01C
:10575000FB7F192019467A6800F0C2FA00BF203793
:10576000BD4680BD80B586B000AF7860FEF7C4FC52
:105770007861FEF7B7FC38613B699B88022B05D83E
:105780002F2013217A6800F0ABFA5AE03B691B68BE
:1057900001331B789BB21B029AB23B691B68023330
:1057A0001B789BB21344FB813B691B68D91C7B6946
:1057B0001B68DA1CF88907F10A0301F06BFA03464B
:1057C000BB81BB89002B34D17B6900229A807B6925
:1057D0001A687B699B88591C88B279698880134450
:1057E0006F221A707B691A687B699B88591C88B282
:1057F000796988801344FA89120A92B2D2B21A7077
:105800007B691A687B699B88591C88B27969888092
:105810001344FA89D2B21A707B699A887B8913443F
:105820009AB27B699A807B699B88184600F01AFAC5
:1058300006E0BB89DBB22F2019467A6800F050FAE7
:1058400000BF1837BD4680BD90B589B002AF786003
:105850000023BB72FEF750FC7861FEF743FC386111
:105860003B699B88012B05D8312013217A6800F011
:1058700037FA80E03B691B685B78FB73FB7B012B8D
:105880000BD0FB7B022B08D0FB7B032B05D03120F8
:1058900012217A6800F024FA6DE03B691B6802333C
:1058A0001B789BB21B029AB23B691B6803331B78BF
:1058B0009BB21344BB813B691B681A1D7B691B6843
:1058C0001C1DF87BB98907F10A030093234601F0F8
:1058D00061FA0346FB7201F0F3F90246274BDA61E5
:1058E000FB7A002B40D17B6900229A807B691A6881
:1058F0007B699B88591C88B279698880134471221E
:105900001A707B691A687B699B88591C88B279690F
:1059100088801344FA7B1A707B691A687B699B88BC
:10592000591C88B2796988801344BA89120A92B2E4
:10593000D2B21A707B691A687B699B88591C88B23D
:10594000796988801344BA89D2B21A707B699A88BF
:10595000BB7A9BB213449AB27B699A807B699B881D
:10596000184600F07FF905E0FB7A312019467A6885
:1059700000F0B6F900BF1C37BD4690BD742500206D
:1059800080B588B000AF78600023FB77FEF7B4FBEA
:10599000B861FEF7A7FB78617B699B88042B05D86B
:1059A000232013217A6800F09BF98CE07B691B6847
:1059B0005B78FB74FB7C03F00F03042B04DCFB7CA3
:1059C0001B09DBB2042B05D9232031217A6800F0B2
:1059D00087F978E0FB7C1B09BB743C4B00221A6002
:1059E0000023FB7712E0394B1B681B02374A136018
:1059F000364B1B687A691268F97F02310A441278C3
:105A00001344324A1360FB7F0133FB77FA7FBB7C80
:105A10009A42E8D3FB7C03F00F037B742B4B0022EC
:105A20005A600023FB7714E0284B5B681B02274A6F
:105A30005360264B5B687A691268B97C881CF97FD1
:105A400001440A4412781344204A5360FB7F013317
:105A5000FB77FA7F7B7C9A42E6D31C4B19681B4B81
:105A60005A68BB691B680133084611461A4601F0A3
:105A7000F5F80346FB60BB6900229A80FB68002BA7
:105A800019D1BB691A68BB699B88591C88B2B9696E
:105A90008880134463221A70BB699A880B4B5B6839
:105AA0009BB213449AB2BB699A80BB699B88184623
:105AB00000F0D8F806E0FB68DBB2232019467A68CC
:105AC00000F00EF900BF2037BD4680BD74250020D0
:105AD00090B589B000AF78600023FB77FEF70CFB30
