S0150000534343555F433232395F6672646D2E7331396A
S1138000F82F0020118400005FCA00005FCA00003E
S11380105FCA00005FCA00005FCA00005FCA0000B8
S11380205FCA00005FCA00005FCA00005FCA0000A8
S11380305FCA00005FCA00005FCA00005FCA000098
S11380405FCA00005FCA00005FCA00005FCA000088
S11380505FCA00005FCA00005FCA00005FCA000078
S11380605FCA00005FCA00005FCA00005FCA000068
S11380705FCA000045DA00005FCA0000A3360100B1
S11380805FCA00005FCA00005FCA00005FCA000048
S1138090F97901005FCA0000077501001575010038
S11380A05FCA00005FCA00005FCA00005FCA000028
S11380B05FCA00005FCA00001FC400002FC4000094
S1138400FFFFFFFFFFFFFFFFFFFFFFFFFFFFFEFF79
S1138410002000210022002300240025002600273C
S113842062B60FF037FBFEE770B59F4C9F4D287C7A
S1138430042859D14020205C000901D00F2853D1D1
S11384409B483021415C01713021415C4172012122
S113845081723122825C427129700022C2803223EF
S1138460C25429713323C254297202723423C25470
S113847029733523C35C0370697042703623C25478
S1138480697142803723C25469723823C2546973B4
S11384903923C35C2C2683553A23C35C2826835591
S11384A0A9702D23C2543B23C2542923C2543C2314
S11384B0C2542523C254A9712E23C2543D23C2544D
S11384C02A23C2543E23C2542623C254A9722F2302
S11384D0C2543F23C2542B23C2544023C2542723E3
S11384E0C254A97301F0F9FA4020205C00092874F1
S11384F070BD70484178002906D1A349097809095B
S1138500042901D1012100E000210170704768486D
S11385104121415C002900D17047F0B501003031A0
S113852001229A4C00236578012D03D163704272B5
S113853002710A70964C2578012D0DD12370447A6E
S1138540012C03D103710B70437204E0002C02D19F
S113855002710A7042728272534D3C242C5DA6074C
S1138560B60F8C4C032E11DA2778002F0DD137006B
S11385700BD0012E03D103710B70437204E0022E61
S113858002D102710A70427282722670297A07251A
S113859007260E40042E02D00D40052D07D1017987
S11385A0002910D00371437282726270F0BD617849
S11385B0012908D13021415C05798D4202D0017135
S11385C0417282726370F0BD39484121415C0029D7
S11385D000D17047F0B5040031346C4A002113799E
S11385E0012B02D14379237011719F4D2E792F4AAB
S11385F00123977CB74207D09674002E04D0761ED0
S11386004671267029711370984D2E79577CB742A4
S113861007D05674002E04D0761E46712670297138
S11386201370214C247A072507262640012E0BD1EE
S11386303121415C022904DB4179022932D0022133
S113864021E001292ED10BE007262640022E03D07B
S113865007262640032E08D13121415C002921D070
S1138660417901291ED043710EE007262640042ECD
S113867002D02540052D0AD13124045D002C11D0EF
S11386804479002C0ED041711370D374F0BDD47CA6
S1138690012C07D13124045D4579A54201D04471F0
S11386A01370D174F0BD0000E00C0020C01B00204A
S11386B0781B0020B91B002037484121415C002968
S11386C000D17047F0B56A4D2E790400323401218F
S11386D0684A0023577DB74207D05675002E04D050
S11386E0761E867126702B7111719A4D2E79177D25
S11386F0B74207D01675002E04D0761E86712670F8
S11387002B711171944C247A072507262640012EDB
S11387100BD13223C35C022B04DB8379022B32D0CE
S1138720022321E0012B2ED10BE007262640022E46
S113873003D007262640032E08D13223C35C002B26
S113874021D08379012B1ED081710EE007262640AB
S1138750042E02D02540052D0AD13224045D002CBC
S113876011D08479002C0ED0837111719175F0BDF4
S1138770947D012C07D13224045D8579A54201D072
S1138780847111719375F0BD200D0020341B0020FD
S11387901C1A002096200020781B00206F484121DD
S11387A0415C002900D17047F8B5010033310091D4
S11387B0304901226A4C00236578012D0BD1637086
S11387C00A72C479002C01D1032400E0641EC47130
S11387D0C479009D2C70974D2E79974C2778B74219
S11387E008D02670002E05D0761EC671009F3E70FC
S11387F02B710A72584D2D7A6D076D0F012D0AD118
S11388003323C35C012B04DDC379022B2AD002235A
S113881019E027D107E0022D01D0032D08D133231D
S1138820C35C002B1ED0C379012B1BD0C2710BE09B
S1138830042D01D0052D0AD13325455D002D11D01D
S1138840C579002D0ED0C3710A726270F1BD6578CE
S1138850012D07D13325455DC679AE4201D0C571DE
S11388600A726370F1BD0000C01900208019002055
S1138870C8190020C01B002038484121415C002950
S113888000D17047F8B501003431009101216B4AE1
S1138890334C00232579012D0BD123711173047AF4
S11388A0002C01D1032400E0641E0472047A009DAC
S11388B02C70954D2E79954C2778B74208D02670A8
S11388C0002E05D0761E0672009F3E702B71117328
S11388D0214D2D7A072607272F40012F0AD1342353
S11388E0C35C012B04DD037A022B31D0022320E088
S11388F02ED10BE007272F40022F03D007272F404C
S1138900032F08D13423C35C002B21D0037A012B1D
S11389101ED001720EE007272F40042F02D02E40F4
S1138920052E0AD13425455D002D11D0057A002D80
S11389300ED0037211736170F1BD6578012D07D1FA
S11389403425455D067AAE4201D005721173637019
S1138950F1BD000088190020E00C0020781B0020E5
S1138960141A00206A484121415C002900D1704753
S1138970F0B501003531674B00229C79012C02D1FE
S113898004780C709A719B4DEE7801232B4C277E52
S1138990B74207D02676002E04D0761E06700E70DD
S11389A0EA706370944DEE78E77DB74207D0E675C0
S11389B0002E04D0761E06700E70EA7063708F4924
S11389C0097A072507260E40032E0BD13521415C79
S11389D0012905DD017802292AD00221017019E05C
S11389E026D107E007260E40042E08D13521415C2C
S11389F000291DD0017801291AD003700AE00D4026
S1138A00052D0AD13521415C002911D001780029B6
S1138A100ED0027063706376F0BD617E012907D1C8
S1138A203521415C05788D4201D001706370627616
S1138A30F0BD0000D019002098200020C01B0020A9
S1138A4033484121415C002900D17047F8B56C4D91
S1138A50EE780100363100916A490122A14B0024CD
S1138A605F78B74208D05E70002E05D0761E46703F
S1138A70009F3E70EC704A719B4DEE781F78B742B0
S1138A8008D01E70002E05D0761E4670009F3E70E2
S1138A90EC704A71594D2D7A072607272F40032F72
S1138AA00AD13624045D012C04DD4478022C29D03B
S1138AB0022418E026D107E007272F40042F08D10D
S1138AC03624045D002C1DD04478012C1AD0427049
S1138AD00AE02E40052E0AD13625455D002D11D021
S1138AE04578002D0ED044704A719A70F1BD9D787E
S1138AF0012D07D13625455D4678AE4201D045703B
S1138B004A719C70F1BD0000D81900209A20002001
S1138B10781B0020341B002074484121415C00294B
S1138B2000D17047FCB585780100373101910121EE
S1138B30344A6F4C00232678012E08D123705172D9
S1138B402C0001D1032500E06D1E019C2570694CA9
S1138B50E4786E463470684C26786F463F78BE429F
S1138B600AD027706E463678002E05D0751E019EF9
S1138B703570604EF3705172204E367A6F463E70F7
S1138B8007263F783740032F0AD13723C35C012BD4
S1138B9004DDEBB2022B2BD002251BE028D108E028
S1138BA06F463F783740042F08D13723C35C002B2E
S1138BB01ED0EBB2012B1BD001250BE06F463F7892
S1138BC03E40052E09D13726865D002E10D02E0694
S1138BD00ED00025517261700AE06678012E07D12B
S1138BE03727C75DEEB2BE4201D03D465172637075
S1138BF08570F3BDC019002080190020E00C00200E
S1138C00C8190020C01B002038484121415C0029BC
S1138C1000D17047FCB5C5780100383101910121BC
S1138C20994A334C0023E678012E08D1E37051733E
S1138C302C0001D1032500E06D1E019C2570934C8E
S1138C40E4786E463470924C26786F463F78BE4284
S1138C500AD027706E463678002E05D0751E019E08
S1138C6035708A4EF37051738A4E367A6F463E7071
S1138C7007263F783740032F0AD13823C35C012BE2
S1138C8004DDEBB2022B2BD002251BE028D108E037
S1138C906F463F783740042F08D13823C35C002B3C
S1138CA01ED0EBB2012B1BD001250BE06F463F78A1
S1138CB03E40052E09D13826865D002E10D02E06A2
S1138CC00ED00025517361700AE06678012E07D139
S1138CD03827C75DEEB2BE4201D03D465173637082
S1138CE0C570F3BD111A002088190020781B0020DC
S1138CF0141A0020D01900209C200020664841212D
S1138D00415C002900D17047F8B5644A0021937A88
S1138D10012B08D12C23C35C392403552823C35CBD
S1138D203A24035591725E4CA5780122564B5E7F1E
S1138D30AE4209D05D77002D06D06D1E2C268555D8
S1138D4039268555A1709A700500243500952C2587
S1138D50455D012D19D125789E7FAE4207D09D77C0
S1138D60002D04D06D1E009E357021709A706578B8
S1138D70DE7FAE4209D0DD77002D06D06D1E282699
S1138D8085553A26855561709A70A64DAC789E7EBD
S1138D90A64209D09C76002C06D0641E2C2684554D
S1138DA039268455A9709A702C24045D012C19D19C
S1138DB02E78DF7EB74207D0DE76002E04D0761EF2
S1138DC0009F3E7029709A706E781F7FB74209D059
S1138DD01E77002E06D0761E2827C6553A27C6557C
S1138DE069709A702B4D2D7A072607272F40032F81
S1138DF012D13925455D012D44D13A25455D002D1B
S1138E0012D0012C03D12821415C01293AD02C2411
S1138E100255282402551CE007272F40042F0DD1AA
S1138E203925455D012D2DD1012C03D12824045D64
S1138E30002C27D02C254255282409E02E40052E4D
S1138E400BD13925455D002D1CD0002C1AD02C24C3
S1138E5001559A7020201A54F1BD20255D5D012D25
S1138E6010D13A25455D3926865DB44203D12824C4
S1138E70045DAC4204D02C240655282405559A7070
S1138E8020201954F1BD0000C01B0020D819002077
S1138E909E200020E00C0020781B0020341B0020C2
S1138EA0C019002060484121415C002900D170476D
S1138EB0F8B55E4DAE7801215D4A5E4B0024DF7843
S1138EC0B74209D0DE70002E06D0761E2D27C65577
S1138ED03B27C655AC7091710600253600962D26A9
S1138EE0865D012E19D12E781F79B74207D01E71E5
S1138EF0002E04D0761E009F3E702C7091716E7807
S1138F005F79B74209D05E71002E06D0761E2927FC
S1138F10C6553C27C6556C709171474DAD781E7887
S1138F20AE420AD01D70002D07D06D1E2D2685552A
S1138F303B268555404DAC7091712D25455D012D25
S1138F401DD13D4E36785F78B74208D05E70002E52
S1138F5005D0761E009F3E70374E34709171364EA8
S1138F6076789F78B7420AD09E70002E07D0761E7E
S1138F702927C6553C27C6552F4E74709171984EBB
S1138F80367A6F463E7007263F783740032F12D15A
S1138F903B26865D012E44D13C26865D002E13D0EF
S1138FA0012D03D12924045D012C3AD02D254155EE
S1138FB0292541551FE06F463F783740042F0DD1D6
S1138FC03B26865D012E2CD1012D03D12925455D3B
S1138FD0002D26D02D26815529250BE06F463F789C
S1138FE03E40052E0AD13B26865D002E19D0002D69
S1138FF017D02D25445591719971F1BD9E79012E9B
S11390000FD13C26865D3B27C75DBD4203D1292590
S1139010455DB54204D02D25475529254655917106
S11390209C71F1BD80190020781B0020C819002014
S1139030C01B00201D1A0020881900206948412106
S1139040415C002900D17047F8B5674DAE78012125
S1139050664A674B0024DF78B74209D0DE70002EE1
S113906006D0761E2E27C6553D27C655AC70917284
S11390700600263600962E26865D012E19D12E78FE
S11390801F79B74207D01E71002E04D0761E009FB0
S11390903E702C7091726E785F79B74209D05E7120
S11390A0002E06D0761E2A27C6553E27C6556C705C
S11390B09172504DAE781F78B74209D01E70002EC1
S11390C006D0761E2E27C6553D27C655AC70917224
S11390D02E26865D012E19D12E785F78B74207D0EF
S11390E05E70002E04D0761E009F3E702C7091722C
S11390F06E789F78B74209D09E70002E06D0761EF7
S11391002A27C6553E27C6556C709172A34DAE787A
S1139110012E0ED1AC7091722E25455D012D02D128
S11391202E25445501E02E2681552E25455D3D26EC
S113913085552B4D2D7A072607272F40032F14D151
S11391403D25455D012D49D13E25455D002D14D0B9
S11391502E24045D012C03D12A24045D012C3DD06E
S11391602E2541552A25415520E007272F40042F5D
S11391700FD13D25455D012D30D12E25455D012DB5
S113918003D12A25455D002D28D02E2681552A2578
S11391900BE02E40052E0CD13D25455D002D1DD044
S11391A02E25455D002D19D02E25445591729971B7
S11391B0F1BD9D79012D11D13E25455D3D26865D8C
S11391C02E27C75DB74203D12A27C75DAF4204D01B
S11391D02E27C6552A26855591729C71F1BD000033
S11391E0E00C0020781B0020D0190020C01B0020B8
S11391F0E11B0020E01900208E484121415C002938
S113920000D17047F8B58C4DAE7801218B4A8C4B58
S11392100024DF78B74209D0DE70002E06D0761E17
S11392202F27C6553F27C655AC70917306002736C5
S113923000962F26865D012E19D12E781F79B7420C
S113924007D01E71002E04D0761E009F3E702C7035
S113925091736E785F79B74209D05E71002E06D0A3
S1139260761E2B27C6554027C6556C709173754DD5
S1139270AE781F78B74209D01E70002E06D0761E35
S11392802F27C6553F27C655AC7091732F26865D90
S1139290012E19D12E785F78B74207D05E70002E68
S11392A004D0761E009F3E702C7091736E789F7868
S11392B0B74209D09E70002E06D0761E2B27C655C5
S11392C04027C6556C709173344D6E79012E0ED1C2
S11392D06C7191732F25455D012D02D12F254455C5
S11392E001E02F2681552F25455D3F268555564D96
S11392F02D7A072607272F40032F14D13F25455DDC
S1139300012D49D14025455D002D14D02F24045D45
S1139310012C03D12B24045D012C3DD02F25415574
S11393202B25415520E007272F40042F0FD13F253F
S1139330455D012D30D12F25455D012D03D12B2510
S1139340455D002D28D02F2681552B250BE02E407E
S1139350052E0CD13F25455D002D1DD02F25455DE3
S1139360002D19D02F25445591739971F1BD9D7924
S1139370012D11D14025455D3F26865D2F27C75D10
S1139380B74203D12B27C75DAF4204D02F27C65560
S11393902B26855591739C71F1BD0000141A002091
S11393A010B500F00FFB032807D1BFF34F8F2748F8
S11393B027490860BFF34F8FFEE7042817D11D48E3
S11393C00021017141720121817222480171224AF6
S11393D01171224B1971184C2171C170D170D9705F
S11393E0E170817091701E4881701648817010BDC3
S11393F010B51C4C00F0ACFB208000F0A9FBA08150
S113940000F0A6FBE08100F0A3FB608000F0A0FB6D
S1139410208100F09DFB608100F09AFB608200F0E7
S113942097FB208200F094FBA08000F091FBE08089
S113943010BD0000781B0020D8190020C01B00209C
S1139440A0200020E8190020E00C00200400FA0508
S11394500CED00E08019002088190020D0190020AC
S1139460E0190020CC0C002080B500F001F801BD0B
S1139470F8B5874C874D8848884E4521715C04298E
S11394801BD1016803290DD30021016000F0EBFB1F
S1139490002807D100F0DEFC002803D1A878402181
S11394A00143A970208A00F057FB32280EDBFFF736
S11394B09FFF00F04DFB208208E00021016000F0D6
S11394C047FB2082A878BF210140A9704620305C68
S11394D0042809D1608A00F03FFB322804DBFFF73F
S11394E087FF00F035FB608201276D4E708A00F023
S11394F033FBFA214900884203DB677000F028FB44
S11395007082B08900F028FBFA21890088420BDBC5
S113951064480178F0220A43027081784906490EB2
S1139520817000F015FBB081F08900F015FBFA2181
S11395308900884206DBA87880210143A97000F0E5
S113954007FBF081308A00F007FBFA21890088428A
S113955006DBE87801210143E97000F0F9FA308272
S1139560308800F0F9FAFA214900884207DBE878EC
S113957004210143E970277000F0EAFA3080708911
S113958000F0EAFAFA218900884206DBE87808212B
S11395900143E97000F0DCFA708143480068007808
S11395A0C00918D0308900F0D7FAFA21890088421E
S11395B006DBE87810210143E97000F0C9FA308134
S11395C0B08800F0C9FAFA214900884203DBA77089
S11395D000F0BEFAB080F08800F0BEFAFA2149002B
S11395E0884203DBE77000F0B3FAF080708800F083
S11395F0B3FAFA21490088420DDB2C490F702C483C
S1139600017AF8220A400272417BFC220A4042732A
S113961000F09EFA7080E878410801220A40694609
S11396200A7082080121114002220243E0781F4B94
S11396301B781D4E36683678F60907D0002910D0FD
S1139640012B0ED101280CD1A07803E0002908D009
S1139650012B06D1012804D168460078002800D1E6
S1139660EA70B14EA08A00F077FAC92808DB307A94
S1139670C00901D02079401C207100F069FAA08251
S1139680E8782179032915DB4021014316E000BF66
S1139690500900206C16002034F4FF1F781B0020B2
S11396A0CC0C0020200D002068160020C90C0020DE
S11396B0E00C0020002902D1BF210140E970E08ABA
S11396C000F04AFAC92808DBB07AC00901D06079F1
S11396D0401C607100F03CFAE082E878617903296B
S11396E003DB80210143E97004E0002902D1400634
S11396F0400EE870208B00F02FFAC92808DB307B7D
S1139700C00901D0A079401CA07100F021FA208387
S11397102879A179032902DB0121014303E000290F
S113972002D1FE2101402971608B00F015FAC9288D
S113973008DBB07BC00901D0E079401CE07100F087
S113974007FA60832879E179032902DB02210143C6
S113975003E0002902D1FD210140297198480078D5
S1139760012800D0DEE0A08B00F0F6F9C92808DB60
S1139770307CC00901D0207A401C207200F0E8F946
S1139780A0832879217A032902DB0421014303E021
S1139790002902D1FB2101402971E08B00F0DCF9A2
S11397A0C92808DBB07CC00901D0607A401C607213
S11397B000F0CEF9E0832879617A032902DB0821DD
S11397C0014303E0002902D1F72101402971208CD3
S11397D000F0C2F9C92808DB307DC00901D0A07AA5
S11397E0401CA07200F0B4F920842879A17A0329DE
S11397F002DB1021014303E0002902D1EF210140E3
S11398002971608C00F0A8F9C92808DBB07DC00973
S113981001D0E07A401CE07200F09AF96084287963
S1139820E17A032902DB2021014303E0002902D16C
S1139830DF210140297172480068007880083842AD
S113984038D0A08C00F088F9C9280ADB7078384237
S113985002D0207B401C00E00020207300F078F947
S1139860A0842879217B032902DB4021014303E002
S1139870002902D1BF2101402971E08C00F06CF96C
S1139880C9280ADBF078384202D0607B401C00E033
S11398900020607300F05CF9E0842879617B03297F
S11398A003DB80210143297104E0002902D1400631
S11398B0400E2871208D00F04FF9C9280ADB707919
S11398C0384202D0A07B401C00E00020A07300F0CE
S11398D03FF920856879A17B032902DB012101433B
S11398E003E0002902D1FE2101406971608D00F07E
S11398F033F9C9280ADBF079384202D0E07B401CF6
S113990000E00020E07300F023F960856879E17BD2
S1139910032902DB0221014303E0002902D1FD21D6
S113992001406971F1BD0000141B0020002035497D
S11399304A7989797F23194202D1002A05D17047D7
S11399400B407F2B01D1FF2A00D0012070472E4805
S113995000780009042801D10120704700207047D5
S1139960BFF34F8F29482A490860BFF34F8FFEE7A2
S113997028480078022801D100207047012800D02F
S1139980022070470220204909780A0922490B78ED
S113999093420ED0042B05D1130001D00F2A08D115
S11399A0002006E0002B01D00F2B02D1042A00D1A5
S11399B001200A7070471348807C4007400F7047AD
S11399C09209002030B500200E49897C134A13788F
S11399D00724214205D1002B0ED0012B0CD10320EA
S11399E00AE007250D40012D06D1002B01D10420EA
S11399F002E0012B00D101200C40147030BD0000A6
S1139A0068160020E00C0020200D00200400FA0558
S1139A100CED00E0BB1B0020A7200020A8200020A4
S1139A20F8B5494E0C223100012000F06FFB474D80
S1139A302F00243700243078AA281AD0AA203070A6
S1139A40747074807471F47134810C2231000120BB
S1139A5000F090FB2C716C71AC71EC712C722C7059
S1139A606C70AC70EC702C202C543C7028202C545E
S1139A7020E0B17829710120012900D17070F178BA
S1139A806971002900D03071AC71EC712C7271795C
S1139A902970002900D0B0716C70AC70EC70F17951
S1139AA02C22A954727A3A70327A2823EA54002973
S1139AB000D0B0722E202C542D202C5429202C544C
S1139AC025202C542F202C542B202C542A202C5469
S1139AD027202C5426202C54F1BD38B51B483121A5
S1139AE0425C3021435C18498C789C4216D1CC7876
S1139AF0944213D14C793525455DAC420ED1CC79D5
S1139B003925455DAC4209D14C7A2425455DAC42EA
S1139B1004D10C7A3A25455DAC4213D0AA240C70CA
S1139B208B70CA703522825C4A713922825CCA7198
S1139B302422825C4A723A22805C08720C22012040
S1139B4000F018FB31BD0000341B0020781B0020FE
S1139B5081B02848408810E00100274A914201D191
S1139B6026487047521C914201D100207047214A77
S1139B70528815E081B01F4880886946088068468D
S1139B80008801B0704701001B4A914201D11B4873
S1139B907047521C914201D100207047154A9288A7
S1139BA0824201DB501A02E01548401A801880B244
S1139BB0704710B50F484188491C41800021104A64
S1139BC04388934200DB418003885B1C0380038845
S1139BD0FA24A400A34207DB018083885B1C8380F2
S1139BE08388934200DB818010BD024801214180BB
S1139BF08180704752200020F0FF0000FFFF00002A
S1139C00FFFE000084484188002901D0491E41809C
S1139C10704710B5814C2078607000F047FB2070CD
S1139C20A1886278002A02D0002800D150216088DF
S1139C307B4A002801D080186080080000D0891871
S1139C40A18000F08FFB00280AD06088A18801431E
S1139C5006D100F0DBFF042802D02078002801D0D0
S1139C60FFF7C6FB10BD6D48418882880A43100087
S1139C7000D00120C0B27047B420684948807047C2
S1139C8080B50121417367490A68920C02600A7B1E
S1139C9002730822091D001D01F004F801BDF8B586
S1139CA0604C207B08285ED12068800C00905E48C0
S1139CB001680098814204D05B484068009A904251
S1139CC051D1554EFA20400070800120F022002529
S1139CD063793E2B02D12779174237D02379534F2A
S1139CE03F78002F05D01F001740102F3BD01342A0
S1139CF039D0302B06D14E4A1378012B02D115707E
S1139D004A4A1070009881420CD1301D3178090103
S1139D104018FFF7B5FF3078401C3070C0B20F28F0
S1139D2000DB3570404840682168890C88421AD1AC
S1139D30707800013018F430FFF7A2FF7078401CEF
S1139D407070C0B20A280EDB7570F1BD009A9142A2
S1139D5000D0012537490D70374908700822211DAC
S1139D60364800F0B9FFF1BD38B5354C354B257890
S1139D702D015B1918601A73181D00F093FF2078E9
S1139D80401CC1B2142902D100200121A17020700D
S1139D9031BDF8B594B02A4CA088FFF7DDFE012848
S1139DA02DDDFFF7D5FEA08061782078884202D1AE
S1139DB0A078002823D0684600254A2285544922E9
S1139DC0855409011F4B5A18167B01968026482793
S1139DD0C6551668B6040096127B1B1D5918083028
S1139DE000F060FF184A6946184801F051F860789D
S1139DF0401C6070C0B2142801D16570A57015B004
S1139E00F0BD80B50B0011001A00FFF7ADFF012073
S1139E100F49087002BD00000C1D00207C090020C1
S1139E20FFFF0000B40C0020D4F4FF1F76200020B4
S1139E30772000207A20002079200020F8120020CA
S1139E4082090020A01E0020F809002000400240E2
S1139E50B020002080B501F0C7F82A490A785A28B2
S1139E6001D2022207E0A12801D3012203E05F38D6
S1139E703D2800D200220A70087802BD70B5002186
S1139E8028223C235024204D2E78012E04D009D3BF
S1139E90032E05D002D305E0282604E03C2602E088
S1139EA0502600E0002606706E78012E04D009D3F7
S1139EB0032E05D002D305E0827004E0837002E033
S1139EC0847000E08170AE78012E04D009D3032E93
S1139ED005D002D305E0427004E0437002E0447010
S1139EE000E04170ED78012D04D009D3032D05D095
S1139EF002D305E0C27070BDC37070BDC47070BD84
S1139F00C17070BDB2200020781B002080B501F024
S1139F1003FD01BD10B50A000021002303E004780D
S1139F200919401C5B1C9CB29442F8D3C8B210BD02
S1139F30F8B584B0002069460870029000200190B2
S1139F40D94802994901401801990901471838680C
S1139F5003907E68BD89044609E001226946200019
S1139F6000F0C8F868460078AA2805D06419B442FD
S1139F70F3D30398B86000E0BC600198401C0190E2
S1139F800228DDDB0298401C02900828D6DD05B0CB
S1139F90F0BDF8B5CE24640210232200CC2149027E
S1139FA0012000F08DF8D0256D0210232A00210035
S1139FB0012000F092F8D2246402802322002900B8
S1139FC0022000F07DF8D4256D0280232A002100B0
S1139FD0022000F082F8D624640210232200290013
S1139FE0032000F06DF8D8256D0210232A0021000B
S1139FF0032000F072F8DA246402402322002900CE
S113A000042000F05DF8DC256D0240232A002100C5
S113A010042000F062F8DE24640280277F003B0005
S113A02022002900052000F04BF8E0256D023B00DA
S113A0302A002100052000F050F8E22464027E008A
S113A040330022002900062000F03AF8E4256D02CE
S113A05033002A002100062000F03FF8E6246402C1
S113A0603B0022002900072000F02AF8E8256D02B1
S113A0703B002A002100072000F02FF8EA246402A4
S113A080330022002900082000F01AF8EC256D02A4
S113A09033002A002100082000F01FF8EE24640297
S113A0A0202322002900002000F00AF82023F022B7
S113A0B052022100002000F010F8FFF739FFF1BD33
S113A0C010B5092801DB042010BD774C400120188D
S113A0D0016042608381002010BD10B5092801DBB6
S113A0E0042010BD704C400120180161426183833B
S113A0F0002010BD10B5002304E0041924780C706E
S113A100491C5B1C9CB29442F7D310BDFEB50024DD
S113A1106D462C700290644D0F00160020010190D2
S113A12032003900029840012818019BC018806849
S113A130001DFFF7DFFF0122694628000830019B5C
S113A140C058029B5B00C0180019401EFFF7D2FFE5
S113A15031003800FFF7DEFE69460978814202D0FB
S113A160641C022CDADB022C01DB0020FEBD012082
S113A170FEBD0000F0B58BB005000E00140006A86B
S113A180142101F04BFCAA2069464870A0200870F5
S113A19072B600208D700596CC8002900298000162
S113A1A00490414869468978490140180499451842
S113A1B02E68AC6868680390A889694688806846F8
S113A1C0C1880598FFF7A6FE6946C870042206A94F
S113A1D02000FFF78FFF6846007EAA280BD10122DA
S113A1E06946200001F06EFC6846808824180398B4
S113A1F0844200D33400B44202D0A01BC00502D173
S113A200200001F011FD012200A9491C200001F0E9
S113A21059FC6846C2880599201D01F053FC224868
S113A220AC60049947183D68BC6878680390B889A5
S113A23069468880042206A92000FFF75BFF06AE6A
S113A2403078AA280BD101226946200001F03AFC9B
S113A2506846808824180398A04200D22C00AC429F
S113A26002D0601BC00502D1200001F0DDFC68466D
S113A2704078307068468078400002994018301861
S113A280401E6946C9780170122206A9200001F017
S113A29019FCBD600298401C0290022800DA7DE798
S113A2A062B601200BB0F0BD240B002080B5FFF78F
S113A2B0D1FD02BD80B5FFF753FB01BD80B5FFF7AB
S113A2C057FB02BD80B5FFF75DFB02BD38B5140036
S113A2D01D0005291AD801A2525C974404080C10E9
S113A2E0142C022012E0032010E004200EE00520CC
S113A2F00CE0FE22520021000620FFF707FF072092
S113A300FE21490064186D1A00E00820AAB2210059
S113A310FFF7FCFE012032BD38B514001D000529ED
S113A3201AD801A2525C974404080C10142C022081
S113A33012E0032010E004200EE005200CE0FE22D1
S113A340520021000620FFF715FF0720FE214900D7
S113A35064186D1A00E00820AAB22100FFF70AFF72
S113A360012032BD80B5FFF7F2FA02BD012070472B
S113A37080B5FFF7DBFA010000D1002002BD002008
S113A3807047704770470020884908700120884949
S113A39008707047012085490870002084490870BE
S113A3A0704780B500F035FC01BD80B500F037FC86
S113A3B001BD704770470120704738B50021A34A9A
S113A3C0A34BCB181B78146845186355491C032903
S113A3D0F6DD1168081801789A2908DA41789A2973
S113A3E005DA81789A2902DAC1789A2903DB0422F2
S113A3F0002100F065FC042032BD80B59349096852
S113A4000818FFF73BFD042002BD80B58F49096899
S113A410081800F0F0FD022002BD80B58B490968E0
S113A420081800F0EBFD012002BD80B587490968DA
S113A430081800F0E7FD022002BD80B583490968D1
S113A440081800F0EAFD012002BD80B57F490968C3
S113A450081800F0F7FD022002BD80B57B490968A9
S113A460081800F0F2FD012002BD80B577490968A3
S113A470081800F0EEFD022002BD80B5734909689A
S113A480081800F0E9FD012002BD80B56F49096894
S113A490081800F0E5FD012002BD80B56B4909688C
S113A4A0081800F0E1FD012002BD80B56749096884
S113A4B0081800F0DDFD012002BD80B5634909687C
S113A4C0081800F0D9FD012002BD80B55F49096874
S113A4D0081800F0D5FD012002BD80B55B4909686C
S113A4E0081800F0D1FD012002BD80B55749096864
S113A4F0081800F0CDFD012002BD80B5534909685C
S113A500081800F0C9FD012002BD80B54F49096853
S113A510081800F0C5FD012002BD80B54B4909684B
S113A520081800F0CCFD012002BD80B54749096838
S113A530081800F0D8FD012002BD80B54349096820
S113A540081800F0DFFD012002BD80B53F4909680D
S113A550081800F0E6FD022002BD80B53B490968F9
S113A560081800F0E1FD012002BD80B537490968F3
S113A570081800F0DDFD012002BD80B533490968EB
S113A580081800F0DCFD012002BD80B52F490968E0
S113A590081800F0E4FD022002BD80B52B490968CB
S113A5A0081800F0ECFD042002BD000089F4FF1F30
S113A5B07C20002038B5894C9B4804600025207815
S113A5C0FF2803D16078FF2800D165700020A11C0A
S113A5D082B2895C802925DA401C81B21129F6DB1C
S113A5E000202100133182B2895C9A2920DA401CB0
S113A5F081B20429F5DB102200212000173000F07D
S113A6005FFB102200212000273000F059FB2000BE
S113A6103730A9B2405C802811DA6D1CA8B20A2830
S113A620F5DB31BD11220021A01C00F049FBD7E766
S113A630042200212000133000F042FBDBE70A2251
S113A64000212000373000F03BFB31BD18170020FB
S113A6500A94010030B5010001207A4C2478A1420B
S113A6602BD2794B1B687F4C16256943615A854C64
S113A670091B04D0083916D0491F0AD030BDDC1C90
S113A6808DB2645D802C18DA491C8CB2112C15DA59
S113A690F5E7DC1C8DB2645D9A2C0EDA491C8CB291
S113A6A0032C0BDCF5E7DC1C8DB2645D802C04DA32
S113A6B0491C8CB20A2C01DAF5E7002030BD30B514
S113A6C001000120704A1823594354186F4909782E
S113A6D025782D0264782C19A4B2904D641B072CA4
S113A6E005D9083C032C05D9241F06D030BD042904
S113A6F006DB04E0090603D501E0012900DD0020A2
S113A70030BD80B5002801E080B5032803D1604A3C
S113A7105E4900F04EFD012002BD80B5002801E035
S113A72080B5032803D15A4A584900F062FD01203C
S113A73002BD80B5002801E080B5032803D1544A46
S113A740524900F07BFD012002BD80B5002801E0E4
S113A75080B5032803D14E4A4C4900F093FD0120F3
S113A76002BD80B5002801E080B5032803D1484A22
S113A770464900F0ADFD012002BD80B5002801E08E
S113A78080B5032803D1424A404900F0C3FD0120AB
S113A79002BD80B5002801E080B5032803D13C4AFE
S113A7A03A4900F0D7FD012002BD80B5002801E040
S113A7B080B5032803D1364A344900F0EFFD012067
S113A7C002BD80B5002801E080B5032803D1304ADA
S113A7D02E4900F017FE012002BD0000700C00207D
S113A7E080B5002801E080B5032803D1284A274911
S113A7F000F0A2FE012002BD80B5002801E080B572
S113A800032803D1224A214900F02EFF012002BD72
S113A81080B5002801E080B5032803D11C4A1B49F8
S113A82000F0B6FF012002BD6816002080B50028A4
S113A83001E080B5032803D1154A144901F03CF81E
S113A840012002BD8D090020181700200120704747
S113A8500120704780B5012802D17549FFF756FBE6
S113A860012002BD2C5F01000120704701207149C5
S113A870087070470000000000BF01206C49087098
S113A8807047000090F10000F802002088200020AA
S113A890892000200120704701207047012800D042
S113A8A07047F8B500240025634F644E644869007E
S113A8B0491940186349495DCA0701D5447029E024
S113A8C0090727D54178491C4170C9B2282921DBE1
S113A8D044708178FF2901D0491C8170E8B201F0ED
S113A8E00CFB00205849EA0089580201B21852684A
S113A8F0914200D13C54401C3628F6DB0020534AD8
S113A9000301D2185268914201D1514B1C54401C8E
S113A910A228F4DB6D1C362DC8DBF1BD20D000006D
S113A920F0B585B000240025049002AF00A8801C77
S113A930019042482901461843480499C900401827
S113A940039000687168884223D1684600F0F7FBE1
S113A95000A8801C00F003FC02A800F010FCF068C2
S113A9600121017044706A4612788270C1700171CD
S113A970019A12784271019A52788271C17102214E
S113A98001723978417279788172B978C172F97833
S113A99001736D1C362DCCDB294804994A005118EB
S113A9A041182A4A20011318039D2D685E68B54298
S113A9B010D11B78012B04D00CD3032B05D002D368
S113A9C008E00B7802E04B7800E08B7815000C353A
S113A9D028580370641CA22CE4DB05B0F0BDF8B564
S113A9E0FEF7B5FF002821D0FEF7E5FF00281DD1B2
S113A9F000210023174A01269810400FC018C010E8
S113AA00114CDD006419656887B2D75DBC46C0008F
S113AA10181A012787406046384203D02E706068B8
S113AA20467000E029705B1C362BE5DBF1BD0000AD
S113AA303C17002073200020A40E0020CC5B0100F2
S113AA4074160020340E0020F8F4FF1FA8F6FF1F30
S113AA50981100206C160020894800210170012201
S113AA604270817002E08648062101708549818028
S113AA70C18001814181704710B5814C0120207053
S113AA800220E07001F0A5FA00F0D2F801F095FA86
S113AA90FFF75EF8A080FFF75BF8E080FFF758F857
S113AAA02081FA2080007849888110BDF8B501F032
S113AAB075FA002800D00120714C607020780227BC
S113AAC06178002907D1401E09D0401E012807D80B
S113AAD00120E07004E00021E170012800D1E7705A
S113AAE0A088FFF739F8674D674EB18988420DD3C6
S113AAF0FFF72EF8A0802078032807D1A580FFF760
S113AB0027F860810420207001F05FFA2089FFF7A4
S113AB1023F8318A884204D3FFF71AF8208100F021
S113AB2087F82078012807D04CD3032825D017D3E1
S113AB30052840D029D3F1BDE088FFF70DF8F1894D
S113AB4088423FD3E5806078002807D10320207035
S113AB502581FEF7FDFFA080FA200BE02770F1BDF0
S113AB60607800282ED1032020702581FEF7F0FFA5
S113AB70A080AF208000B081F1BD6078012821D190
S113AB802770FEF7E5FF2081F1BD6078012806D12A
S113AB90FFF772FF0020A0706581FFF76DF86089F0
S113ABA0FEF7DAFF718A88420CD365810520207094
S113ABB001F014FAF1BD6078012803D1FFF75CFFBE
S113ABC00020A070F1BD10B52D4C2078401E022845
S113ABD002D9C01E04D010BDFEF7BAFFA08060E702
S113ABE00120A070FFF748FFFFF746F810BD10B52D
S113ABF0234C2078401E012802D8FEF7A9FFA0802C
S113AC0010BD00218170FFF737FF01BD1C4800789B
S113AC10704780B5FFF720FF01F0B4F9F3E780B582
S113AC20FFF721FF01F0B2F900201849087001BDB7
S113AC303EB568460021002206C0134C6D462078BC
S113AC404006400E2870697002200D49A870C9782A
S113AC50002908D0012906D001F0A0F9002801D16B
S113AC60042000E00620E8700821684601F0BBF9E2
S113AC70002803D16069002800D0804737BD000058
S113AC806C1B0020F1FF0000D008002089F4FF1F96
S113AC9002490870704702490880704778200020F4
S113ACA06E0C0020002800D1704710B5002906D092
S113ACB0002302E0CC5CC4545B1C9342FAD310BD65
S113ACC00B001100002800D1704780B5002902D084
S113ACD01A0000F091FE01BD124207D08B0706D086
S113ACE00B78491C0370401C521EF7D87047830729
S113ACF006D00B78491C0370401C521EF9D17047D2
S113AD0070B4103A03D378C9103A78C0FBD2530711
S113AD1001D318C918C001D508C908C0D20704D383
S113AD200B880380891C801C002A01D50B780370D2
S113AD3070BC704710B586B06846182100F06EFEEE
S113AD409D4C200000F0DAF89C4801689C4A0A40B7
S113AD50026068469B4941800021C94302910391E6
S113AD6004910591002101710188974A0A430280E8
S113AD706946200001F090F906B010BDF8B5002531
S113AD80140081346078002803D0C0004B689842D6
S113AD9001D20020F2BD72B62078082800D12570B7
S113ADA00E68B00C4301B003400F18430B00483346
S113ADB09B78002B0DD018230343180073000E005A
S113ADC048367678002E09D001251D436B461D7048
S113ADD04D680E0017006946487021E0FE261E40AB
S113ADE06B461E70F5E7521B083101F04BFB38002F
S113ADF00C30217809017268521B4254756820781E
S113AE00000138184821715C41736078401E6070FD
S113AE102078401C2070C0B2082801D10020207086
S113AE207068854231D23068400D21780901785428
S113AE30207800013818694649784170300048305C
S113AE40807800280BD02078000138183168C909AF
S113AE50817020780001381869460978C170381D5E
S113AE60217809014018711972682B0008339A423D
S113AE70B9D30822083101F005FB38000C302178E1
S113AE800901082242540835B9E762B60120F2BD2F
S113AE9080B5FFF773FF002807D072B64B480178DE
S113AEA007220A43027062B6012002BD70B50C008D
S113AEB08034A278082A01D1002070BD72B6060041
S113AEC00D0020786178884202D1A178002911D13F
S113AED000012918300001F037FA00280AD0207840
S113AEE0401CC1B2082900DB00202070A078401C5F
S113AEF0A070E6E762B6012070BD000080B5364858
S113AF0008218170002202803148817002704270F1
S113AF10324801F07EFA324801F07EFA01BD10B5E4
S113AF20254C21790220014202D021790843207165
S113AF3021798020014204D021790843207101F055
S113AF4029F821794020014203D021790843207156
S113AF50207924492000FFF7A9FF002803D1E079D4
S113AF60F8210140E17110BD70B5194C6068401CB6
S113AF706060114D2879012630421AD001F082FC1C
S113AF80A078002812D02078411C21701149142285
S113AF9050430918280001F0EFF92078082801DB54
S113AFA000202070A078401EA07070BD2879064350
S113AFB02E7170BD0000000000400240108004406B
S113AFC0FFFFFEFF07E600001AB200000740024040
S113AFD01C0B00207C0A0020780A002069AF0000C6
S113AFE01FAF0000F809002092484089C82141435E
S113AFF08803000E70478F49498805E038B504007E
S113B0009E4D0DE08B49C9888022D200914200DB1D
S113B010511E4170090A0170704738B50400864D0D
S113B020286801F0FFFC20702868954901F018FD9C
S113B03001D2D82004E0A34901F026FD01D8642000
S113B040207031BD7B498988DEE738B504009E4D08
S113B050E6E778490989D7E738B504009B4DDFE76F
S113B060AB49097C01707047A949897C017070471C
S113B070A749497C01707047A549C97C0170704794
S113B080A349097D01707047A149897D017070470A
S113B0909F49497D017070479D49C97D0170704782
S113B0A030B501219A4A147E012323400370157F91
S113B0B06D1C0124AC401C43047020230DE030B50A
S113B0C00121934A947E012323400370957F6D1CD4
S113B0D00124AC401C4304702223D25C121D914015
S113B0E02143017030BD30B50121894A547E0123CA
S113B0F023400370557F6D1C0124AC401C43047035
S113B1002123EAE730B50121814AD47E012323407B
S113B1100370D57F6D1C0124AC401C4304702323B1
S113B120DBE7444909886FE738B50400994D77E7B0
S113B1307749C97B012900D00021017070473D493E
S113B1404A899A2A01DA9A224A814A89C8215143B2
S113B1504A12920D511889121E39017070478E4996
S113B1600978002906D19D494A79427089794906AE
S113B170490E02E000214170802101707047984916
S113B180097800290ED1954933228A5CC270342291
S113B1908A5C827035228A5C427036228A5CD107CE
S113B1A0C90F04E00021C170817041700221017057
S113B1B0704730B58B4B5C788B4D03280DD15448C8
S113B1C0007C032C00D0187003245C700978491C9F
S113B1D0297100280BD0012009E0002808D1032C94
S113B1E002D11878401C287100205870FF2010707C
S113B1F030BD30B57D4B5C787D4D03280DD144487E
S113B200807C032C00D0187003245C700978491CDE
S113B210297100280BD0012009E0002808D1032C53
S113B22002D11878401C287100205870FF2010703B
S113B23030BD0000900700209C08002030B56D4B05
S113B2405C786D4D03280DD13148407C032C00D02F
S113B250187003245C700978491C297100280BD0EC
S113B260012009E0002808D1032C02D11878401CE1
S113B270287100205870FF20107030BD9408002001
S113B280000020C230B55D4B5C785D4D03280DD1C4
S113B2901F48C07C032C00D0187003245C7009780C
S113B2A0491C297100280BD0012009E0002808D18D
S113B2B0032C02D11878401C287100205870FF20FC
S113B2C0107030BD0100C84298080020A00800207A
S113B2D030B5944B5C78444D03280DD10C48007D67
S113B2E0032C00D0187003245C700978491CE970A1
S113B2F000280BD0012009E0002808D1032C02D13A
S113B3001878401CE87000205870FF20107030BD81
S113B310781B002030B5844B5C78354D03280DD163
S113B3208248807D032C00D0187003245C70097857
S113B330491CE97000280BD0012009E0002808D13D
S113B340032C02D11878401CE87000205870FF20AC
S113B350107030BD30B5764B5C78274D03280DD185
S113B3607248407D032C00D0187003245C70097867
S113B370491CE97000280BD0012009E0002808D1FD
S113B380032C02D11878401CE87000205870FF206C
S113B390107030BDA40800205009002030B5654B62
S113B3A05C78174D03280DD1AB48C07D032C00D029
S113B3B0187003245C700978491CE97000280BD0CC
S113B3C0012009E0002808D1032C02D11878401C80
S113B3D0E87000205870FF20107030BDE00C002091
S113B3E05109002058200020801900205A200020F4
S113B3F0D01900205C200020881900205E20002045
S113B400D8190020F6B505009448467894490122DD
S113B41002230324032D59D1444D2D7E002D00D049
S113B4200125019F3D70009D2D7805708778032FBD
S113B4302AD0FE273740BC463C4E377E01263E408C
S113B44067463E434670394F3F7F002F01D10227A4
S113B45006E0012F01D1042702E0022F02D10827C0
S113B460374347707F4E3678002E02D14678102736
S113B47008E0012E02D14678202703E0022E03D1F2
S113B4804678402737434770847001202840401C89
S113B49088706808104201D00A7008E0A8081042B9
S113B4A001D00B7003E0E808104200D00C702809AA
S113B4B0104201D04A70F3BD6809104201D04B70AC
S113B4C0F3BDA80910422BD04C70F3BD002D27D139
S113B4D0FF25019F3D708578032D1FD1012535403F
S113B4E06D1C8D707708174201D00A7008E0B70808
S113B4F0174201D00B7003E0F708174200D00C701C
S113B5003709174201D04A7008E07709174201D081
S113B5104B7003E0B309134200D04C7000218170DA
S113B520F3BD00006020002062200020781B002072
S113B5306420002066200020F6B505004748C67840
S113B54001210222904B0324032D59D1424DAD7E9B
S113B550002D00D00125019F3D70009D2D780570C0
S113B5600779032F2AD0FE273740BC463A4EB77ED0
S113B57001263E4067463E43C670374FBF7F002FCB
S113B58001D1022706E0012F01D1042702E0022F96
S113B59002D108273743C7707C4E3678002E02D17B
S113B5A0C678102708E0012E02D1C678202703E0D0
S113B5B0022E03D1C67840273743C7700471012097
S113B5C02840401C98706808084201D0197008E0AF
S113B5D0A808084201D01A7003E0E808084200D025
S113B5E01C702809084201D05970F3BD680908424B
S113B5F001D05A70F3BDA80908422BD05C70F3BD8A
S113B600002D27D1FF25019F3D700579032D1FD102
S113B610012535406D1C9D7077080F4201D01970CB
S113B62008E0B7080F4201D01A7003E0F7080F4290
S113B63000D01C7037090F4201D0597008E0770917
S113B6400F4201D05A7003E0B2090A4200D05C7084
S113B65000210171F3BD0000781B00206820002048
S113B660C0190020981B0020F6B5050090484679C3
S113B670012102228F4B0324032D59D1A54D6D7E48
S113B680002D00D00125019F3D70009D2D7805708F
S113B6908779032F2AD0FE273740BC469D4E777EFC
S113B6A001263E4067463E4346719A4F7F7F002FF6
S113B6B001D1022706E0012F01D1042702E0022F65
S113B6C002D1082737434771984E3678002E02D1AD
S113B6D04679102708E0012E02D14679202703E09D
S113B6E0022E03D1467940273743477184710120E4
S113B6F02840401C98706808084201D0197008E07E
S113B700A808084201D01A7003E0E808084200D0F3
S113B7101C702809084201D05970F3BD6809084219
S113B72001D05A70F3BDA80908422BD05C70F3BD58
S113B730002D27D1FF25019F3D708579032D1FD151
S113B740012535406D1C9D7077080F4201D019709A
S113B75008E0B7080F4201D01A7003E0F7080F425F
S113B76000D01C7037090F4201D0597008E07709E6
S113B7700F4201D05A7003E0B2090A4200D05C7053
S113B78000218171F3BD0000D01900209A1B002014
S113B790F6B505004648C67901210222904B0324E0
S113B7A0032D59D15B4DED7E002D00D00125019F65
S113B7B03D70009D2D780570077A032F2AD0FE274F
S113B7C03740BC46534EF77E01263E4067463E4313
S113B7D0C671504FFF7F002F01D1022706E0012FD1
S113B7E001D1042702E0022F02D108273743C77191
S113B7F07C4E3678002E02D1C679102708E0012E3F
S113B80002D1C679202703E0022E03D1C67940274E
S113B8103743C771047201202840401C987068089F
S113B820084201D0197008E0A808084201D01A7033
S113B83003E0E808084200D01C702809084201D03F
S113B8405970F3BD6809084201D05A70F3BDA809C4
S113B85008422BD05C70F3BD002D27D1FF25019F3A
S113B8603D70057A032D1FD1012535406D1C9D7057
S113B87077080F4201D0197008E0B7080F4201D0D1
S113B8801A7003E0F7080F4200D01C7037090F420A
S113B89001D0597008E077090F4201D05A7003E0D3
S113B8A0B2090A4200D05C7000210172F3BD0000AD
S113B8B068200020C819002074B54B4D6E78002212
S113B8C0144B0124032813D1032E01D0D87B2870F4
S113B8D0032068700878002801D11A7102E0012859
S113B8E001D11C719C72D87B002810D001200EE07D
S113B8F000280ED1032E08D12878002801D11A710E
S113B90002E0012801D11C719C726A70FF20009929
S113B910087071BD781B0020012805D1334801222D
S113B9200270002242700A7070470000991B0020C8
S113B930F8B52E4C617822782D4D64270026002915
S113B94023D1012A4BD101F0C1F801F0BFF801F075
S113B950BDF801F0BBF801F0B9F801F0B7F82F72A7
S113B9606F72AF72E420E8722E736E73AE73EE736F
S113B9702F746F74AF74E8742E756E75AE75EE75B2
S113B980FEF7E6F86080012028E0608801291BD1D9
S113B990012A24D1FEF7E0F8164988421FDB2F72F2
S113B9A06F72AF72EF722E736E73AE73EE732F7489
S113B9B06F74AF74EF742E756E75AE75EE75FEF719
S113B9C0C7F86080022009E0022908D1012A06D1C3
S113B9D0FEF7C2F8652802DB267003206070F1BD13
S113B9E0D81900209B1B002071200020E8080020AB
S113B9F0F41A0020D10700001206130A1A43130C8C
S113BA001A4300BF094205D0830709D00270401CC5
S113BA10491EF9D1704700000022F3E70022FFE736
S113BA201300103906D330B41400150010393CC08B
S113BA30FCD230BC490700D30CC000D504C0890037
S113BA4002D30280801C002900D50270704781B0A7
S113BA5003206946887000200880009801B0704770
S113BA6008B4024B9C4608BC6047C04695090020B8
S113BA7070B50024774901F05BF9411E764A8023B2
S113BA809078184201D1754870BD75483F251678E5
S113BA9076060FD416781E4205D013782B403F2625
S113BAA00E40B3420DD11078C02303400D401D4316
S113BAB0157005E012782A400D40AA4200D0040017
S113BAC0200070BDFEB51400D2086407640F009412
S113BAD0A408019405000C008007800F01D0614880
S113BAE0FEBD0026029209E021686268083428003D
S113BAF000F061F8010028D10835761C02998E42C5
S113BB00F2DB290025000026019F0C0008E02968CB
S113BB102D1D200000F01AF8010016D1241D761CFA
S113BB20BE42F4DB0099BA008A1AD2B2002A0CD0C1
S113BB300021C943A818401E0B0201781943401E76
S113BB40521EF9D1200000F001F8FEBD70B50023AB
S113BB5000240322104201D0424870BD424E3025D9
S113BB603571337006233372030CF3710123337080
S113BB70F071000A307202253570080A3072F171D2
S113BB803270080E3072080CF0710120FFF768FF64
S113BB903079800600D5354C3079C00602D52000B6
S113BBA0414C04433079C00702D520003F4C044384
S113BBB0307928428BE0F8B5002300240326304274
S113BBC001D02848F2BD284D30272F712B70062351
S113BBD02B72030CEB7101232B70E871000A28729D
S113BBE002202870080A2872E9712E70080E287243
S113BBF0080CE87104202870100A2872EA710520E4
S113BC002870100E2872100CE8710120FFF728FF2D
S113BC102879800600D5154C2879C00602D5200065
S113BC20214C04432000F2BD38B5002100248207D2
S113BC3001D00C4832BD0C4D30222A7129700A21E2
S113BC402972010CE97101212970E871000A287236
S113BC500EE0000040420F000300024014300000D8
S113BC6018300000013000000100024008300000DC
S113BC700120FFF7F5FE2879800600D5194C2879B4
S113BC80C00602D52000084C04432879C00702D519
S113BC902000064C04432879800702D52000104C6C
S113BCA00443200032BD00001030000011300000B9
S113BCB00120FFF7D5FE2879800600D5094C2879A4
S113BCC0C00702D52000054C04432879304202D035
S113BCD02000034C0443200070BD0000113000001C
S113BCE0123000000830000070B501F094F89C4C4C
S113BCF02078FF280DD16078FF280AD1A078FF288A
S113BD0007D1012000F0ADF8A22200219548FEF7EA
S113BD10D7FF0026944DA0190278BC211140017070
S113BD20A955F0B200F0C6F8761C362EF3DB70BDD0
S113BD3080B500F001F801BDF0B585B00020009099
S113BD408A4C8B4D0098C0B200F0C6F88449009A22
S113BD508918039108708449009A89180291097816
S113BD60884272D0C00770D57E4800994A005118A5
S113BD7040180178FE2901DA491C00E0FE21017017
S113BD800098C0B2FEF7CCFD00207A49009AD20098
S113BD9089580191C1B20A01AA185268019B9A42BA
S113BDA021D1754A04925522049B5A54002200233F
S113BDB005E02E000A361F01F65D92195B1C8B42CA
S113BDC0F7DB3632D2B2002307E00E01AD19ED687D
S113BDD0ED5C049E9F18F5555B1C654D0E01AE1974
S113BDE0B67AB342F1DB401CC1B23629D2DB002063
S113BDF0C1B20A01A2185268019B9A4221D15F4A3A
S113BE0004925522049B5A540022002305E0260084
S113BE1008361F01F65D92195B1C8B42F7DB5E3A14
S113BE20D2B2002307E00E01A419E468E45C049E86
S113BE309F18F4555B1C4D4C0E01A619367AB3427B
S113BE40F1DB401CC1B2A229D2DB0398007802992D
S113BE5008700098401C0090362800DA72E705B09C
S113BE60F0BD70B5012400260500012D02D1F0B209
S113BE7000F043F8761CF0B23628F6DB280000F018
S113BE805DF8002804D0280000F061F8002800D1F3
S113BE900024200070BD01000020364A03065B0D1B
S113BEA0D358994204D0401CC3B2362BF6DB401C55
S113BEB0C0B270472A49095C2E4AC0001018CA074C
S113BEC0D20F00D0012243681A700822114000D01A
S113BED0012140684170704701000020254AC900D3
S113BEE0511849680A78012A00D1012049780129AA
S113BEF002D1010008200843704738B504001D49E9
S113BF00C200891800224B681A7049684A701449A3
S113BF100A5415490A5403220021124B45002818DB
S113BF201818FEF7CDFEE00815490818017801221B
S113BF3063075B0F9A409143017031BD80B50128BE
S113BF4003D136210C48FFF769FD012002BD80B5FD
S113BF50012803D1A2210948FFF760FD012002BD99
S113BF60340E0020741600206C0E0020A8F6FF1F6B
S113BF70CC5B0100F8F4FF1FA40E002098110020F0
S113BF806C160020002034490870704701203249A3
S113BF900870704701203149087070472F483049B4
S113BFA009780909042902D00178002903D0002165
S113BFB0017001207047002070472A48007800284B
S113BFC002D10120284908707047002026490870D2
S113BFD0704780B5254800F0A3F901BD80B523481A
S113BFE000F085F901BD38B50A001B49097800291C
S113BFF021D11F490B00483300249C705C704A60B7
S113C00080251D701B4B1B689B040B6003E0035DC4
S113C0100D192B72641C9442F9DB144D164C22004A
S113C0202800FEF7ABFE21002800FEF73FFF0128A1
S113C03001D1002032BD012032BD10480168C90081
S113C040490D0F4A8918802900D3704780B5001D17
S113C050FEF7B9FD01BD00009420002095200020CA
S113C060200D00207C20002089F4FF1F00400240A6
S113C07038F4FF1FD0080020F8090020B40C002079
S113C08080FAFFFF80B5FEF7E7FCFEF7F5FC01BD83
S113C09080B5FEF70BFD01BDF0B50022B54B1C6861
S113C0A080252D0225431D60802344781C43447061
S113C0B001240D882D09254203D0457840262E43BE
S113C0C04670057801262E43067045782542FCD03B
S113C0D0CD7A05748D7A45744D7A85740D7AC5745C
S113C0E0CD7C05758D7C45754D7C85750D7CC57540
S113C0F0CD7B05768D7B45764D7B85760D7BC57630
S113C100CD7D05778D7D45774D7D85770D7DC57713
S113C1104D88AE012F06BF0E374387702F0BBC46E8
S113C1206E0A370170263E4067463E43C6702D0AAC
S113C1302542C57801D01D4301E06D066D0EC57022
S113C1400D88ED092542457802D010262E4301E0E2
S113C150EF262E404670DF2520260F887F092742D0
S113C160477801D0374300E02F4047700F882742BB
S113C17003D005782E43067002E00678354005703A
S113C1800D88AD092542457802D004262E4301E0EE
S113C190FB262E4046700D88ED0B457802D008260C
S113C1A02E4301E0F7262E4046700D792D013026EE
S113C1B02E40C6720578FE262E400670457825422C
S113C1C0FCD10D882D0B2542457902D002262E4341
S113C1D001E0FD262E404671DD050E88760B2642D1
S113C1E0467904D0012737434771954E03E0FE2773
S113C1F037404771934E35600D88AD0A254205D00E
S113C2004279302515434571012203E04579CF2653
S113C2102E4046710D886D0A254205D0427940258D
S113C22015434571012203E04579BF262E4046712E
S113C2300D886D082542057802D008262E4301E0BA
S113C240F7262E4006700D88AD0B254205D0C27925
S113C25007251543C571012203E0C579F8262E4050
S113C260C6710D88ED0A254205D042790C25154387
S113C2704571012203E04579F3262E4046710D886D
S113C2802D0A254204D042791A434271012203E067
S113C29045796D066D0E45710D88AD08254205780A
S113C2A002D004262E4301E0FB262E400670002A0D
S113C2B003D080221206624D2A600988C9082142EF
S113C2C002D041780B434370F0BD10B55E4C2000A2
S113C2D000F02FF8002809D060784006400E607006
S113C2E024480168594A0A400260012010BD41787F
S113C2F0C90701D500207047802102790A4202D083
S113C30002790A43027102780423134303704279C9
S113C31011434171017802220A43027001207047DF
S113C3200178FD220A40027041788907FCD401207B
S113C33070470121027801231343037042780A42B3
S113C340FCD001207047000038B50724404A127819
S113C3502240002A01D1002032BD050072B6AA7223
S113C3600E22303000F08EF8A87A0440AC7162B628
S113C370012032BD14800440F0B503790122134238
S113C38045D02123C45C2323C35CE5081540CD7349
S113C39001251D408D732025465D0F682D4D3D40C0
S113C3A076052E430E602C4D35406609B6042E43A7
S113C3B00E602A4D35406407A40B2C430C602225E3
S113C3C0455D274E2640EC0134430C607F25AC4389
S113C3D05B0823430B602C23C35C1B071B0F0B73ED
S113C3E0002306E0C4182425645D0D1DEC545B1C79
S113C3F0DBB20C7BA342F5DB3E23C35C0B743F230F
S113C400C35C4B7401790A4302710120F0BD002022
S113C410F0BD14490860704713490860704711481B
S113C4200068002800D1704780B5804701BD0E48E0
S113C4300068002800D1704780B5804701BD000026
S113C44000E100E080E100E000400240FF7FFFFFE8
S113C45006400240FFFF1FE0FFFFE3FFFF7FFCFFFA
S113C4607F80FFFF401B0020441B002001000020B0
S113C470002901D17047401C0A00511C1278002A7F
S113C480F9D1704730B503000C00002819D00029F9
S113C49017D0002A15D09107890F521A920803E089
S113C4A025681D60241D1B1D15006A1E002DF7D173
S113C4B003E022781A70641C5B1C0A00511E002AD7
S113C4C0F7D130BD10B5040008001100002C05D0D0
S113C4D0002903D002002000FFF78EFA200010BDCF
S113C4E038B5994C208BFDF737FB14281DDBFEF77C
S113C4F07BFD617C002538280BD2002912D193489A
S113C50001784906490E0170914805700120607454
S113C51008E03D2806D3012904D100F040FDFEF7D0
S113C52078FB6574FDF714FB208331BDFEB500274D
S113C530009788480190877001994F7008208649B8
S113C540486080200199087000F0B6F90290834C8D
S113C5504520205C00280AD1FDF785FB002806D180
S113C560FDF778FC002802D100F0F8F90090764D30
S113C570687C012805D00298012802D0009801287F
S113C58001D1FEF74CFBBE4E0198407A002800D141
S113C590C4E0687C002852D10298009901430091BC
S113C5A0A88AFDF7D9FA642842DB009800283FD115
S113C5B0207DF3210140607D80000843CF210140AC
S113C5C0207C000108438006800E617C89010143C0
S113C5D02972697AC0200840E17C8A000C2111404C
S113C5E0E27B130130221A400A43A17C8907890F98
S113C5F0114301436972AD48574908602800083067
S113C600AB490CC80CC1082001990872A94A5249C7
S113C6103000FEF7B3FBA7493000FEF747FCFDF7F7
S113C62097FA0199488101202874FDF791FAA882AC
S113C630E88AFDF791FA642870DB009800286DD130
S113C640CF20F321A27D0A40E37D9B0013430340E6
S113C650227F12011A439206920E637F9B011343B9
S113C6602B706A78F02313400093A27F93079B0FEB
S113C6709C46E27F93000C221A4063461A43009BB7
S113C6801A436A702022A25C11402122A25C92000B
S113C6900A4310402221615C090101438806800E8F
S113C6A02321615C89010143297108206979F02201
S113C6B00A40A17E8B0004210B409C46E17ECB0006
S113C6C008211940634619438C46237ED907C90FB4
S113C6D0634619438C46617E4B0002210B40614640
S113C6E00B4313436B719C491B4A116070490CCD79
S113C6F00CC1083D019908726E4A17493000FEF7D3
S113C7003DFB6C493000FEF7D1FBFDF721FA01999E
S113C710488101202874FDF71BFAE882287C01284F
S113C72010D101984089FDF717FA32280ADB3079D5
S113C7300C21014006D130793021014002D12F6211
S113C74045202754F7BD000010F4FF1F01400240AC
S113C750601B002080F4FF1F38F4FF1F781B0020AB
S113C760F8B5A448C1780022A34BA44C2568AD0CAD
S113C770C03D14D0B9267600AD1B6CD06D1E5DD0C3
S113C780163D71D0393D38D00E3D4CD0ED1F3AD016
S113C790ED1E22D0163D1CD0AD1E0ED0F1BD251DC0
S113C7A0C0CDC0C3964B1A70F9220A40C270FDF77F
S113C7B0CFF920830120A075F1BD251D0833C0CD1C
S113C7C0C0C36275FD220A40C270FDF7C1F96083DF
S113C7D0F1BD201D1900103112E0251D1833C0CD04
S113C7E0C0C3ED230B40C37086480270FDF7B0F957
S113C7F0A083FDF7ADF92084F1BD201D190020317F
S113C8000CC80CC1F1BD251D2833C0CDC0C3F52310
S113C8100B40C3707C480270FDF79AF9E083FDF782
S113C82097F96084F1BD201D1900303128C828C152
S113C83076480270FDF78CF96085F1BD211D1A0060
S113C840383228C928C281784906490E8170FDF71B
S113C8507FF9E084F1BD201D190040310CC80CC1E2
S113C860FDF776F9A084F1BD221D483360CA60C388
S113C870FE220A40C270FDF76BF92085F1BD00006D
S113C8800040024010B55D4C21006248FFF774FD82
S113C8902075002808D0FFF763FF00220021002044
S113C8A0FFF7CBFBFDF7FBF910BD000000001809F2
S113C8B040F4FF1FF809002070B5554CA07C0025FA
S113C8C0002828D1534E30790C2101400C2940D145
S113C8D0707B0121014371733000FFF7F6FCFEF712
S113C8E029FA072030722574FDF732F96083606AF3
S113C8F0401C6062A07C401CA074206A401C206222
S113C900062801D3C82000E03220A0834248042135
S113C910017045700FE001280FD1608BFDF71CF901
S113C920A18B884207D3206A142801D314202062E3
S113C930A07C401CA074012070BD022808D1FEF721
S113C94068F93648A082E082A07C401CA07400E014
S113C950A574002070BD000000001C09F8B52D4C22
S113C96020792B4D00260C27384206D12C4806701E
S113C970FDF7EEF8E883EE7402E0E97C00290DD1BE
S113C98020790740082F04D104202549087001208C
S113C990E874FDF7DDF8E8830020F2BDE88B012997
S113C9A00CD1FDF7D9F89628F6DBE87C401CE87436
S113C9B0FDF7CEF8E88307202072EDE7022916D1AF
S113C9C0FDF7CAF8962801DA0120F2BDE87C401C84
S113C9D0E8742000FFF779FCFEF7ACF9FDF7B8F82E
S113C9E0E883FEF716F90D48A882E882D4E7EE74CE
S113C9F0D2E700006C160020E00C0020B40C0020EC
S113CA005009002052090020530900205109002038
S113CA1010F4FF1F00400240BD1B0020F0FF000087
S113CA20BE1B00200122D2070118090E7F3910D441
S113CA3049421F310FD4001805D2C0011043C84029
S113CA4000D5D0437047C0011043C84005D44042CC
S113CA507047002070470042F3D5100070477047BC
S113CA600CB4012212060318DA4207D84B18DA4232
S113CA7004D802000A43921802D288420CBC7047C0
S113CA80FCD08142FAE700000CB40122120603181C
S113CA90DA4207D84B18DA4204D802000A43921843
S113CAA002D281420CBC7047FCD088420CBC704757
S113CAB010B5904B642460431818836C1B78C46CC5
S113CAC02370836C1970006C425410BD80B5002033
S113CAD000F020FB002204210020FFF7E9FF01BD44
S113CAE070B5854C208BFDF737F8002807D000205F
S113CAF000F0B2FB00F0ABFFFDF72AF8208300251D
S113CB0020001C30690046183088FDF725F8FA210A
S113CB10C90088420CDBFDF71BF8308020000C3084
S113CB20405D00F0A8F8002802D1A8B200F004F893
S113CB306D1C0C2DE4DB70BDF1B57148417982792F
S113CB400823102420256E4636880B2E29D801A7E9
S113CB50BF5DBF440A0E141A20242C30343C4248D2
S113CB6004220BE00B434371F1BD0C434471F1BD4E
S113CB700D434571F1BD402200E080220A43427119
S113CB80F1BD012102E0022100E004211143817181
S113CB90F1BD13438371F1BD14438471F1BD154399
S113CBA08571F1BDF1B5564841798279F723EF24B7
S113CBB0DF256E4636880B2E2BD801A7BF5DBF44F8
S113CBC00A0E141A202830343840464CFB2209E05F
S113CBD00B404371F1BD0C404471F1BD0D404571F2
S113CBE0F1BDBF220A404271F1BD4906490E4171AF
S113CBF0F1BDFE2102E0FD2100E0FB211140817125
S113CC00F1BD13408371F1BD14408471F1BD154031
S113CC108571F1BD70B505000026374C20000C303D
S113CC20805DA8420BD1A0190178002907D1012108
S113CC300170FCF78DFF21001C3172008852761CB4
S113CC400C2EEBDB70BDF8B5002400262A4D07003E
S113CC5028000C30805DB84209D1AC55FCF778FF50
S113CC6029001C3172008852B0B2FFF79BFF761C7A
S113CC700C2EEDDBF1BD0100002001221F4B1B78BF
S113CC80002B06D01A2933D00B2931D00C292FD0F0
S113CC902DE013291BD0152919D01B291CD01C29C0
S113CCA01AD01D291DD01E291BD026290FD02829B2
S113CCB00DD02A2906D02B2904D02C2902D02D29C5
S113CCC000D070470F490968097849080DE00D49FB
S113CCD009680978090908E00A490968097889088E
S113CCE003E00849096809784909114200D1012083
S113CCF070470000106801005C080020E80800206C
S113CD006C16002068160020CA0F00D04942031098
S113CD105A400DD004B500D3404200F009F8009AFF
S113CD20D20701D34942124200D5404204BD00005B
S113CD30094214D088420FD30122030C01D100040C
S113CD401204002300185B418B4200D35B1A52414A
S113CD50F8D319001000704701000020704708B58F
S113CD6001F092F808BD000010B56E4C2078EF2158
S113CD7001402170FDF706FBFDF70CFBFDF719FBE5
S113CD80FDF70FFB2078FE210140217001F0F6F938
S113CD902078DF210140217010BD10B56248007871
S113CDA06249C20903D00A785206520E0A7001225F
S113CDB08309134203D00B78BF241C400C70430931
S113CDC0134203D00B78DF241C400C700309134278
S113CDD003D00B78EF241C400C70104203D0087869
S113CDE0FE2202400A7010BD80B5002050494870F0
S113CDF001F0C1FC01BD10B54D4C01202070FFF7BE
S113CE00B3FFFFF7CAFF0020607001F0B4FC10BD4F
S113CE10474800787047F8B5002700260097362366
S113CE20444A02210020FDF751FAA223424A032179
S113CE300020FDF74BFABD239B00404A042100204B
S113CE40FDF744FA00253E4829014418A27A3B48DC
S113CE50F1B241183631E068FDF724FFA07A3618A4
S113CE606D1C362DEFDBA2235B00364A0521002022
S113CE70FDF72CFA0025009E334829014418227A34
S113CE803048F1B24118A231E068FDF70BFF207A77
S113CE9036186D1CA22DEFDBF1BD80B53623254A73
S113CEA002210020FDF738FAA223234A032100209F
S113CEB0FDF732FABD239B00204A04210020FDF730
S113CEC02BFAA2235B001F4A05210020FDF724FA58
S113CED0012002BD38B586B01C4D06222900083158
S113CEE06846FDF70DFF6C4606222900A01DFDF7DC
S113CEF0F3FE0C2303AA01210020FDF7E7F900202B
S113CF00215C03AA125C914205D1401C0C28F7DB7A
S113CF10012007B030BD0C236A4601210020FDF733
S113CF20FBF9F5E77D20002098F4FF1F7E20002008
S113CF3081200020340E002074160020A40E00204E
S113CF40CC5B010098110020A8F6FF1F1C170020DD
S113CF50012070471CB582208001019001A801F0D6
S113CF6047FC0198C02189010143019101A801F006
S113CF703FFC5F4C0094684601F03AFC0098A02105
S113CF80C90101430091684601F032FC00985949F7
S113CF900140A14201D0002016BD012016BDF8B504
S113CFA001F08FFCE027FF01534CA020C00160601A
S113CFB0201D01F01DFCA7602000083001F018FCC2
S113CFC0A068810613D501F069FE0500FFF7C2FFD2
S113CFD006004A48A0602000083001F009FCEDB2C8
S113CFE0012D01D1002E31D001F0B8FD2EE09621A3
S113CFF0890001401ED0000705D54148A0602000EB
S113D000083001F0F5FB207A400605D53D48A060C4
S113D0102000083001F0ECFB207AC00605D53A4820
S113D020A0602000083001F0E3FBA06880050DD566
S113D030C42005E06168090508D5000506D5D0209F
S113D040C001A0602000083001F0D2FB207A000665
S113D05006D5C120C001A0602000083001F0C8FB43
S113D060A068400506D5C820C001A0602000083093
S113D07001F0BEFBA7602000083001F0B9FBA068F6
S113D080B84292D101F02CFE01F0F4FD1F4D01F0E5
S113D09085FC28780028FAD101202070F1BD38B52C
S113D0A000241B4D2888FCF757FD32281FD3E020AD
S113D0B0C0010090684601F09BFB0098000506D56E
S113D0C0D020C0010090684601F092FB0124009832
S113D0D0400505D5C820C0010090684601F088FBD2
S113D0E0002C01D001F0C6FDFCF732FD288031BDD3
S113D0F004480000FFEF0000601B002020600000D7
S113D1000860000040600000106000004B0C00202C
S113D1104E09002010B50024002801D0062404E0A4
S113D12000212048007800F098FC200010BD002861
S113D13000D0704780B51B48007800F0D8FC01BDD2
S113D140002800D0704780B51648007800F0E9FC4C
S113D15001BD002800D0704780B51248007800F067
S113D160E4FC01BD10B50024002801D006240AE027
S113D170092901DB052406E00B48C0680170094851
S113D180007800F0E6FC200010BD10B50024002853
S113D19001D0062403E00348007800F0CDFC200011
S113D1A010BD0000246601001068010070B50A007B
S113D1B0040941080D00454086086E40250075406D
S113D1C0AD0140263540C6084E40744041096140D7
S113D1D0CC01E1437F24A1432943012A09D1C02280
S113D1E00240C9B28A4201D0FF2103E08106890EC0
S113D1F000E00143C8B270BD3C2901D03D2900D1F3
S113D2000021027807E0401C0378C9188BB2FF2B79
S113D21000DDFF39521E1306F5D1C843C0B2704772
S113D22080B50B0011001A0002D100F0E4F801BD32
S113D230012B02D100F096F901BD022B02D100F0BE
S113D24041F901BD082B02D100F020FA01BD0A000A
S113D250190000F0DBF901BDF8B586B00400BF4841
S113D2602100642251434018019054300390C06857
S113D27004900198806C02900198C769C06B029970
S113D2800978C90045186878002800D1B0E00198F1
S113D290406C0078002800D0A0E03A7800212000FB
S113D2A000F00EFB0198066A3088400BC00711D5C8
S113D2B03978200000F0EAFA3088A9490140318029
S113D2C000200199496908700198C06B0299097896
S113D2D0C9004518A1482100642251434018019017
S113D2E0006C02990978461868460470059C0AE0A7
S113D2F03078401C30702978C0B2884203D3684625
S113D300007800F0D9F930782978884222D2696807
S113D3100A225043081840780199496C08706868DB
S113D32031785143445C01982D21405C201A0199C5
S113D3302C22895C884208DA0398406801992D22DE
S113D340895C611A4018407838703878FFF793FC8C
S113D3500028CDD1686831780A2251434018801CD6
S113D3606978012904D139783C2901D104990860EC
S113D3703078401C30702978C0B2884203D36846A4
S113D380007800F099F97548694609786422514398
S113D39040180190006BE1B20C225143405C10280C
S113D3A005D1E1B26846007800F0B3F938703878F6
S113D3B0FF2813D03C2801D03D2809D101985421DD
S113D3C0405C012804D10198006D0178491E017068
S113D3D0397868460078FFF7AAFE09E00198406CA6
S113D3E00178491E0170090602D10298007800E014
S113D3F0002007B0F0BDF8B505000E00574829001D
S113D400642251434718386E00900020B9690870AF
S113D4103100280000F0E2F9FF2841D0396B0C22DA
S113D42050430C182078002804D001280FD011286C
S113D43026D042E0A07801283FD100223100280004
S113D44000F0EAF961782800FFF78CFEF1BD387925
S113D450002832D0A0684068007869460870786B6C
S113D4600978405C002828D0B86D69460978491CC1
S113D4702D22BA5C891A415C280000F0BCFAE1E76D
S113D480A078012819D13C2E04D10021280001F0F4
S113D49053FCD7E70098007F002805D13D2E03D127
S113D4A02800FFF74DFEF1BD280001F0B6FC0098FE
S113D4B0007F401E00990877C4E761782800FFF7D1
S113D4C064FEF1BDF8B505000E002448290064226D
S113D4D051434018009001200099096908703100F7
S113D4E0280000F07BF9FF2836D00C2148430700C0
S113D4F000240098006BC05D002804D0012808D0E7
S113D50011280ED011E001223100280000F084F926
S113D5100BE00098406904703100280000F03BFAE9
S113D52003E03100280000F033F9B848C119087944
S113D5304979B74A04E0FF23C7B2D355401C641CA1
S113D540E3B28B42F7DB00980079012804D1320062
S113D5500221280000F0B4F9F1BD000010680100B8
S113D560FFDF0000F8B5070088483A0064235A43F7
S113D57084180120226910700025A6480278012A27
S113D58002D162691570057068460170380000F0B8
S113D59025F906003100380000F0DCF8206B0C217E
S113D5A04E4380190178012904D1B7498068406845
S113D5B000780D54684600783C2813D1207900285F
S113D5C01AD1A06C0178E26BCB00D2185278022AEF
S113D5D012D1491C0170206CA16C09784554206E4D
S113D5E0057409E0684600783D2805D120790128B2
S113D5F002D10220216E48742079012805D16846A1
S113D60002780121380000F05BF9F1BDF2B50400A5
S113D61015005E482100642251434618684600788C
S113D620001F032828D8012001222C21715C002925
S113D6301BD0130019D0B36D5B5CAB4212D1002236
S113D640336B9C462D23F35CCF180C235F43634656
S113D650DB190C3B1B78012B02D177693A7001E08E
S113D66073691870491EC9B2E1E73C2D01D03D2D04
S113D67002D1200001F097FC3079012805D12A005D
S113D68068460178200000F01BF9F1BD10B50400D4
S113D6900A003E482100642359434018012183694C
S113D6A019700079012803D10821200000F008F93D
S113D6B02000FFF74EFD10BD10B5344964225043DD
S113D6C00818816CC26CC36B0C78E4001B195B787E
S113D6D0012B0DD006D3032B17D004D3042B01D177
S113D6E01078087010BD5423C35C012B08D103E0EB
S113D6F0036D1B78002B03D00B7814780C70137017
S113D7000022006C0978425410BD3922825C0A70F0
S113D710F6E710B51D4A642358431018026B0C2316
S113D720594351188968002200E0521C0C78D3B286
S113D730A3420DD24B68D4B21B5D446BE45C002C55
S113D740F3D0816D2D22805C181A0818407810BD22
S113D750FF2010BDF8B52D4A0C234B43D218137883
S113D760112B10D01079547900220025284B04E0A5
S113D770FF26C7B2DE55401C6D1CEEB2A642F7DB95
S113D78041484254F1BD01F0E9FBF1BD10680100CC
S113D79070B504003C39C8009F49220064235A43F1
S113D7A08A180121D3685B78002B05D19069017038
S113D7B02000FFF7CEFC70BDD368CDB25B5D956AE7
S113D7C0C6B2AB55491C401CCBB2092BF4DB20007C
S113D7D001F0D6FB200001F037FB70BD10B58E4A76
S113D7E06423584310182C22825C00E0521E130656
S113D7F00AD0836DD4B21B5D8B42F7D12D21405CDE
S113D8001018401EC0B210BDFF2010BD28660100D4
S113D810A81A00209320002070B504001500FFF71B
S113D820DDFFFF282FD07C49642254430C19E168A2
S113D8307A4A0C235843161870780870F078784A9E
S113D8400123002D14D1B568002D06D02D78A468CD
S113D850A47AA54201D1734D2B70DCB20D786D1CF6
S113D860AC4210DAC5B2555D0D555B1C401CF4E7A3
S113D870DCB20D786D1CAC4205DA0C5DC5B25455B2
S113D8805B1C401CF4E770BDC81A002010B50400EE
S113D890FFF7A4FF60496422544309190A79002A56
S113D8A00DD18A6C1378CC6C23700B6B0C24604301
S113D8B018188068007A10700022096C0A5410BD90
S113D8C0F5B581B068460279534864235343C418BC
S113D8D06069067820690078534B9A5C256A2B8826
S113D8E0F8273F021F400097030033439B02802721
S113D8F0FF003B406F463F7A3B439C463702802300
S113D9005B001F4063461F434302802080000340A6
S113D9103B43009F3B432B8020790028A0692DD1F5
S113D920027842481840D20280231B011A40024365
S113D9302A80082901D1002000E001203C4911403F
S113D9400003084328806846017A0079FFF746FF00
S113D950FF281FD0216B0C225043085C012808D1FA
S113D960012E06D1288833490140802080010843D4
S113D9700FE02888304901402980F7BD00782F49FD
S113D9801940C00208432E49014090030843400453
S113D990400C2880F7BDF8B50600FFF71FFF040010
S113D9A0FF2C27D01C483100642251434718012121
S113D9B0F8684078FFF7FAFB396B0C2254430919D5
S113D9C08C680022050011E0B86D6168D3B2C95CAF
S113D9D02D23FB5CC91A401840782900884204D1E1
S113D9E001223000FFF718FF2278521C2178D0B2B0
S113D9F08842E9D3F1BD38B504000D000022FFF7D9
S113DA000BFF00212800FFF7D1FB03496422544394
S113DA100919C968487031BD106801002866010001
S113DA20301A0020932000208D200020FFB7000032
S113DA30FFEF0000FFFE0000FFDF0000FFF7000023
S113DA40FF8F000080B5012000F000F901BD80B512
S113DA507748007800F093F801BDF8B504007548E4
S113DA60220024235A43861835687171724864224F
S113DA7051434018C16871610179317147886F4819
S113DA803900FFF741F97083802080016C490860F8
S113DA906C484168802292030A43426001688022F4
S113DAA052010A43026068483900FFF72DF9C1109A
S113DAB0090F0918CA03D20E2A70081168700020D1
S113DAC0A8700C20E8706879862101436971E878B0
S113DAD020210143E970A87902210143A971287822
S113DAE0802101432970200000F08DF8F1BD10B5AC
S113DAF0020008004F4924235A438C182179002935
S113DB000ED12074FFF752FB20760120A07121680A
S113DB10CA781043C8702068C178FE220A40C270D7
S113DB2010BD80B500F06FF801BD0A21414A2423DD
S113DB3058431018817170473E4A242358431018E3
S113DB4042691170002181724169C16006218171AD
S113DB50704710B5C949242250430C18217E6069CE
S113DB60FFF74AFB61690A78891848700120A0729E
S113DB70606940782168C8710720A07110BD38B56C
S113DB8005002C482900242251434418BC48A1799B
S113DB90002908D0891E022919D9091F1DD0491E40
S113DBA0012914D931BD218C00290DD1FF2208216E
S113DBB06079FFF735FBFA20C000208420684179A2
S113DBC0FD220A40427131BD0818208431BDA18B69
S113DBD0002911D00818A08331BDE18B00290FD191
S113DBE0A07A002808D0E07902210143E171227C67
S113DBF007216079FFF714FB280000F004F831BD19
S113DC000818E08331BD0B49242250430818C17918
S113DC10FB220A40C271FA21C900018400218171EA
S113DC200068417902220A434271704700000000F3
S113DC3024660100F00700201068010040420F0034
S113DC4000E100E010800440002D3101F1B58B4863
S113DC506946097824225143441820680500802627
S113DC6040276979C0220A40402A13D168790743C2
S113DC706F71A0790A2803D168460078FFF7C3FFC3
S113DC80287806432E702878BF21014029706879CE
S113DC90EF2124E004216A79D20922D0687906436D
S113DCA06E71287807432F7028784006400E28703C
S113DCB0A0790A2800D1C8E0E171724861790901AC
S113DCC04018C089A0832079002804D10220A071C3
S113DCD05520E87101E00320A0716879FD2101401D
S113DCE0C9E00279C67990060DD5A07902280BD037
S113DCF003280CD004280ED0062841D0072878D059
S113DD000A2800D1A6E0F1BDA171207E88E0552E3D
S113DD107BD1A171F1BD2079002810D1227C002192
S113DD206079FFF77DFA5748617909014018616904
S113DD30097849004018801E0088E083F1BD012164
S113DD403000FFF733FA20742676227CFF2A12D0A3
S113DD5000216079FFF764FA4A48617909014018A3
S113DD606169097849004018801E0088E083207C9E
S113DD70FEF750FFF1BDE0790743E771032141E06D
S113DD80E068401CE0600670A07A61690978884206
S113DD902BD1217E6069FFF72FFAB042E07918D1C8
S113DDA001210143E171E878DB210140E970092098
S113DDB0A071227C02216079FFF732FA207CFEF701
S113DDC042FFE87824210143E970A0790A280CD0A5
S113DDD007E012210143E171227C05216079FFF7FC
S113DDE01FFA68460078FFF70EFFA07A401CA07265
S113DDF0F1BD3A4204D06069A17A405C864205D004
S113DE00227C06216079FFF70BFA1EE0084661695F
S113DE100978814206D3401CA0726069A17A405CF3
S113DE20E871F1BDE07901210143E171E878DB217A
S113DE300140E9700920A071227C01216079FFF77B
S113DE40EFF9E87824210143E97068460078FFF788
S113DE50DAFEF1BDF02E07D0E02E05D0C02E03D09F
S113DE60802E01D0002E07D168460078FFF7CBFE44
S113DE706879022101436971F1BD0000F0070020B7
S113DE80FFFF0000F466010070470000FEB50024A7
S113DE909D480068C5782A008178407800F03EF9F2
S113DEA000909A48009918225143461898480078DF
S113DEB02121014001D1332406E0964800886946B7
S113DEC08880032803DC13249348457142E0924A76
S113DED00099A84B1B78994202DB3124557139E033
S113DEE00423B178002908D1032D03D1B179091D88
S113DEF0032304E00421557102E0B179C91C537174
S113DF00327B052A0BD09C4B1B78934207D0727B43
S113DF10934204D0B27B934201D07F241AE0C9B269
S113DF206A469288914201D0132413E0FCF720FA48
S113DF30002807D1FCF723FA002803D1FCF712FAD2
S113DF40002801D1222405E000988A4909788842F2
S113DF5000DB3124002500216F484279074606E0A2
S113DF60057003E0042AFBD1DB780370491CB07907
S113DF7081424EDA8A484018634B1B685B18032AB7
S113DF80F0D11B79F1E7307A07280ED0854909785A
S113DF9081420AD0707A814207D0B07A814204D09B
S113DFA0F07A814201D033243EE001247E490C7092
S113DFB0B979FE257D4E009881420CD030782042FC
S113DFC009D00020514A1823594351180969884738
S113DFD030782840307078793178002805D1B879C4
S113DFE0FF2809D10D40357006E0032801D004282C
S113DFF002D10120084330700098B871BC7006E06B
S113E0000321200000F0E2FFBD700320388038684F
S113E010FEBD200008D1032AB5D10098C0B2FCF798
S113E0204EFB0028AFD13124614800780128E7D1A4
